:020000021000EC
:100000000000042079A80100B1A8010045670100A3
:10001000B5A801005167010057670100000000000A
:10002000000000000000000000000000A57F0100AB
:10003000BDA80100000000003D8001004D800100CE
:1000400019E50100295B0100C3A80100C3A8010054
:10005000C3A80100C3A80100C3A80100C3A80100F0
:10006000C3A80100C3A80100C3A80100C3A80100E0
:10007000C3A80100ADE60100C3A80100415B010077
:10008000C3A80100C3A80100C3A80100C3A80100C0
:10009000C3A80100C3A80100C3A80100C3A80100B0
:1000A000C3A80100C3A80100C3A80100C3A80100A0
:1000B000C3A80100E51001000000000000000000DE
:1000C000C3A80100C3A80100C3A80100C3A8010080
:1000D000C3A80100C3A80100C3A80100C3A8010070
:1000E000C3A80100C3A80100C3A8010000000000CC
:1000F00000000000C3A8010000000000C3A8010028
:1001000010B5054C237833B9044B13B10448AFF351
:1001100000800123237010BD0010002000000000AB
:100120007C6C020008B5034B1BB103490348AFF3D5
:10013000008008BD00000000041000207C6C02005C
:10014000154B002B08BF134B9D46A3F5803A0021A9
:100150008B460F461348144A121A11F0D9FA0F4B66
:10016000002B00D098470E4B002B00D09847002062
:10017000002104000D000D48002802D00C4807F0B3
:10018000CDF810F0D5FD2000290007F083FD07F021
:10019000C2F800BF000008000000042000000000BA
:1001A000F17B010000100020F0C300201D7301004E
:1001B0000000000070B504460D46164602F002FB32
:1001C00020B132462946204601F04EFF70BDA0F511
:1001D0009760EFE7436882B001330193C268019BE7
:1001E0009A42DCBF002301938268019B9A421FBFA1
:1001F00043680268D154019B16BF43604FF0FF3043
:10020000002002B070470000426883689A4210B52F
:10021000044620D11649174802F059FB16491548E3
:1002200002F055FB0A226168124802F0A6FB13494E
:10023000104802F04CFB10490E4802F048FBA16840
:100240000C480A2202F099FB0D490A4802F04CFBC7
:100250004FF0FF3010BD8368C26801339A42D8BFA7
:10026000002382680068825C0A700020A360F1E7C6
:10027000D04C0200702A0020D64C0200D84C02005C
:10028000DD4C02000223012280F82930002380F88F
:10029000282080F82A3080F82B2080F82C3080F835
:1002A0002D3080F82E3080F82F3080F8303080F8F4
:1002B000313080F8323080F833307047E4230370F7
:1002C000EB23437000F11201831C002203F8012B81
:1002D0008B42DA73FAD10222042380F823200C2205
:1002E00080F8223080F8242080F825307047E423FD
:1002F0000370EB234370821C00F11201002302F80B
:10030000013B8A42D373FAD1042280F822202E22A4
:1003100080F8233080F8242080F82530704770B5AD
:1003200001444FF6FF7341F22105884210D010F8C6
:10033000012B082482EA132616F0800F4FEA4303AC
:1003400018BF6B405200013C9BB2D2B2F2D1ECE735
:10035000184670BD10B526210446FFF7E0FFC0F334
:10036000072384F8263084F8270056212046FFF71B
:10037000D6FFC0F3072384F8563084F8570010BD29
:1003800010B526210446FFF7CAFFC0F3072384F8FF
:10039000263084F8270040F234412046FFF7BFFFA3
:1003A000C0F3072384F8343484F8350410BD00000A
:1003B0002DE9F041DFF82C8006460F460C4674B15B
:1003C000102C254628BF102531462A464046FFF707
:1003D000F1FE0A202E44641B02F01CFBEFE73846B6
:1003E000BDE8F081B825002010B504468AB04A481F
:1003F00000F09AF9002800F0848003AB02AA01A95A
:10040000454800F0E7F901980FF094F93EA3D3E9CD
:1004100000230FF0E7F90FF095FCC4F832000298C2
:100420000FF088F938A3D3E900230FF0DBF90FF0C0
:1004300089FCC4F8360003980FF07CF932A3D3E9A5
:1004400000230FF0CFF90FF07DFCC4F83A003248DA
:1004500000F07DF9002854D006AB05AA04A92E4867
:1004600000F000FA04980FF065F929A3D3E90023FE
:100470000FF0B8F90FF066FCC4F83E0005980FF0D5
:1004800059F923A3D3E900230FF0ACF90FF05AFC7C
:10049000C4F8420006980FF04DF91DA3D3E90023DC
:1004A0000FF0A0F90FF04EFCC4F846001A4800F017
:1004B00056F930B309AB08AA07A9174800F01AFA91
:1004C000079BC4F84A30089BC4F84E30099BC4F817
:1004D0005230012384F82830002384F8293084F82E
:1004E0002A3084F82B3084F82C3084F82D3084F8AE
:1004F0002E3084F82F3084F8303084F831300AB050
:1005000010BD0020FBE700BF05A3923A019D2340E8
:10051000399D52A246DF913FC8180020F8B55822F5
:1005200000212A4811F0F4F82848FFF75DFF27481A
:10053000FFF7DDFE2548FFF70DFF58212348FFF7A1
:1005400037FF4FF4FA6002F065FA214A136801336D
:1005500006D1204D204C2946204602F0B8F9FAE792
:100560001E4D296801292AD1146844BB1C4E1D4F19
:1005700031193846FFF748FE013006D11A4D164CA6
:100580002946204602F0B0F9FAE70134B4F5806F4D
:10059000EED11648FFF776FE1448FFF78FFE13489A
:1005A000FFF7EEFE40F236411048FFF701FF00234F
:1005B0002B604FF4FA60BDE8F84002F02BBA0C4D06
:1005C000054C2946204602F082F9FAE75214002031
:1005D000C4180020F44C0200702A0020AC14002043
:1005E00050100020B01400200D4D02001C100020FF
:1005F000234D0200164B174A174810B51A60002207
:100600005A604FF416519A6040F20142DA6001F0EC
:1006100099FF114C204602F0D5F80028FAD00F4877
:1006200000F0F1F94FF480610D4800F00FFD0D4925
:100630000B4800F009FD4FF47A520121084800F000
:100640006DFC20B90849094802F04EF9FEE710BDDB
:10065000B0140020C0140020B8250020C8180020C5
:10066000BC1E00207106010055610200702A0020A6
:1006700070B50F4B0F4D1048104EADF5806D002436
:100680002C601C6000F026FC694602460A4800F017
:1006900033FC1DF8041030460134FFF79BFDB4F520
:1006A000806FF6D101232B600DF5806D70BD00BF0A
:1006B000C4180020AC140020BC1E0020B014002080
:1006C00070470000004870470000EE420048704745
:1006D0000000A04110B50C21044607F04FF8204659
:1006E00010BD70B5044680680368DB6A16460D4687
:1006F0009847A068036831461B689847A06803685C
:100700005B6B984768B9A06803680122DB6B2946D8
:100710009847012805D1A0680368BDE870405B696F
:1007200018474FF0FF3070BD08B5037943B12F2251
:100730006B21FFF7D6FF10F03F0018BF012008BD66
:1007400017226B21FFF7CDFF00F00100F7E708B596
:1007500017226B21FFF7C5FFC0F3400008BD08B5A5
:1007600027221E21FFF7BDFFC0F3C00008BD2DE901
:10077000F04105468068069E1F460368DB6A144602
:1007800088469847A868036844F080011B6898472A
:10079000A868036800211B6B9847044690B9A868B5
:1007A00003683246DB6B41469847B0420ED13C4667
:1007B000E31B9E420CD9A86803685B69984704F85C
:1007C000010BF5E74FF0FF30BDE8F0812046FBE775
:1007D0000120F9E77FB51C4606230E461546009317
:1007E000282202AB6B21FFF7C2FF28B91B4B3360F5
:1007F0002B60236004B070BDBDF908000EF088FFC7
:100800000022174B0EF0EEFF00224FF07C530EF04B
:10081000E9FF0FF097FA3060BDF90A000EF078FF9B
:1008200000220F4B0EF0DEFF00224FF07C530EF043
:10083000D9FF0FF087FA2860BDF90C000EF068FFB1
:100840000022074B0EF0CEFF00224FF07C530EF03B
:10085000C9FF0FF077FA20600120CBE70000C07FCE
:10086000000010407FB51C4606230E461546009337
:10087000182202AB6B21FFF77AFF28B91B4B3360BC
:100880002B60236004B070BDBDF908000EF040FF7E
:100890000022174B0EF0A6FF00224FF07C530EF003
:1008A000A1FF0FF04FFA3060BDF90A000EF030FFE3
:1008B00000220F4B0EF096FF00224FF07C530EF0FB
:1008C00091FF0FF03FFA2860BDF90C000EF020FFF9
:1008D0000022074B0EF086FF00224FF07C530EF0F3
:1008E00081FF0FF02FFA20600120CBE70000C07FCE
:1008F00000409F407FB51C4606230E4615460093D8
:10090000282202AB1E21FFF732FF28B9214B3360AA
:100910002B60236004B070BDBDF908000EF0F8FE36
:1009200000221D4B0EF05EFF00221C4B0EF05AFF02
:1009300000224FF07C530EF055FF0FF003FA3060A9
:10094000BDF90A000EF0E4FE0022134B0EF04AFF40
:100950000022124B0EF046FF00224FF07C530EF0A7
:1009600041FF0FF0EFF92860BDF90C000EF0D0FE4A
:100970000022094B0EF036FF0022084B0EF032FF2A
:1009800000224FF07C530EF02DFF0FF0DBF92060BA
:100990000120BFE70000C07F000010400000594068
:1009A00070B5044680681D460368DB6A16469847A2
:1009B000A068036831461B689847A0680368294609
:1009C0001A689047A06803685B6B9847B0FA80F09C
:1009D000400970BD10B50323044622221E21FFF7F3
:1009E000DFFF002310226B212046FFF7D9FF0023F1
:1009F000204620226B21FFF7D3FFA0680368BDE8E3
:100A000010405B6A184710B5044680680368DB69CC
:100A10009847052322226B212046FFF7C1FF0C23B4
:100A200021221E212046FFF7BBFF0A2001F0F2FF22
:100A30000F226B212046FFF754FE682804D0204681
:100A4000FFF7C8FF002010BD0F221E212046FFF730
:100A500048FE3D28F3D1782310226B212046FFF772
:100A60009FFF702320226B212046FFF799FFB423BC
:100A700020221E212046FFF793FF002321221E2162
:100A80002046FFF78DFF002322221E212046FFF77C
:100A900087FF0120D7E700000548064B03600023CD
:100AA0000371054A054B0649836006F032BC00BF5E
:100AB000C8180020404D020000020020C81B002082
:100AC000C106010070470020704749000023016201
:100AD000C0F82C327047036801211B6B184710B413
:100AE00003689C6B0123A4465DF8044B6047D0F873
:100AF0002C32B3F5807F1FBF5A1CC0F82C22C018BF
:100B000080F82C1114BF0120002070477047C0F8F6
:100B100030127047C0F834127047D0F82821D0F84E
:100B200024319A421DBFD0F82831C01890F8240013
:100B30004FF0FF307047000010B5044B03600446CF
:100B400000F50E7009F050FB204610BD804D0200EC
:100B500038B50446802006F0EBFD94F91C2094F98A
:100B60001810054602F016FD656138BD7FB50446D4
:100B700048200E4606F0DCFD94F91C2094F918106C
:100B8000054602F041FD71002846256102F058FD3E
:100B9000094B0393094B01936946002304F50E703A
:100BA0000293009409F09AFA039B13B19B6868467C
:100BB000984704B070BD00BF6C4D0200610D01008C
:100BC0000B6803604B6843608B688360704738B57F
:100BD000D0F82C3214461A44B2F5807F88BFC3F592
:100BE0008074054600F596702246184410F092FC79
:100BF000D5F82C322344C5F82C32204638BD10B528
:100C00000446406910B10368DB689847206920B149
:100C10004821BDE8104006F0B1BD10BD38B504460E
:100C200040690D4608B102F0BFFB206920B129469A
:100C3000BDE8384002F002BD38BD07B581F00101C2
:100C40000091D0F82C32016A00F59672406902F0EA
:100C5000D9FB002814BF0220002003B05DF804FB7C
:100C600070B5C2B083F00103009302AE044615468E
:100C7000134649003246406902F0E5FBB0B9A8428C
:100C800011D0D4F82431D4F828210133DBB29342B7
:100C900007D0D4F82421315C224482F82410C4F80F
:100CA00024310130EBE7C0B242B070BD0020FBE759
:100CB00010B4D0E9013401686210E40701EB0200CE
:100CC00048BF8A585DF8044B48BFD3581847000006
:100CD00073B54FF47A730025C0E90153174B0360D5
:100CE0000446C0E906124FF480722946243010F001
:100CF0000FFD134BC4F838322946C4F82451C4F808
:100D00002C52C4F82851C4F83052C4F83452C4F8F4
:100D1000485204F51E7006F03BFF04F50E7604F50C
:100D2000237006F0D3FE304600952B464FF48052D8
:100D3000182109F0C7F9204602B070BD804D0200AD
:100D400034660200D0F80031D0F80401181A48BF08
:100D500000F58070704708B52430FFF7F3FF08BD39
:100D6000F0B5044685B000F124050026206902F0A4
:100D70006EFC012821D0F9DB0328F7DCC4F82461DC
:100D8000C4F8286110226946206902F062FC002242
:100D9000824221DAD4F82431D4F828110133DBB2AD
:100DA0008B4208D0D4F824111DF80270214481F838
:100DB0002470C4F824310132EAE7D4F8343203B1A4
:100DC0009847D4F82C22206904F5967102F043FC70
:100DD000206902F048FCC9E71028D3D82846FFF75D
:100DE000B1FF0028F4DDD4F83072002FF0D028468F
:100DF000FFF7A8FFB847EBE710B504462430FFF72C
:100E0000A1FF98B1D4F82821D4F824319A421BBF0D
:100E1000D4F828311B194FF0FF3093F824001FBF7E
:100E2000D4F828310133DBB2C4F8283110BD0000FA
:100E300010B500F02BFA12288ABF1B4B4FF0FF347D
:100E400093F9204100F022FA132888BF164B174867
:100E50008CBF93F930214FF0FF322146FFF738FF66
:100E6000134A1449114806F054FA00F00FFA1E28EC
:100E70008ABF0D4B4FF0FF3493F9E04100F006FAC2
:100E80001F2888BF084B0C4888BF93F9F0212146E2
:100E900098BF4FF0FF32FFF71BFF054A0549064890
:100EA000BDE8104006F035BA04020020D418002036
:100EB00000020020390B0100C81B002000F1804017
:100EC00000F5E830002382B0036003680193019BC2
:100ED00002B0704738B5074C4FF00055C4F8805049
:100EE000BFF34F8FBFF36F8F143000F0A2F925606E
:100EF00038BD00BF00E100E038B5074C4FF00055A9
:100F0000C4F88050BFF34F8FBFF36F8F143000F0E1
:100F100067F9256038BD00BF00E100E04FF0804375
:100F200070B504460161D3F8000128B901201860AA
:100F3000D3F800010028FBD0B2F57A5F05D04AF261
:100F4000C3239A4272D0002070BD3C4B0122C3F8EB
:100F500020254FF020620129C3F804256AD0022918
:100F6000F1D1364B0022C3F80825344B207A1422E5
:100F7000C3F818250121C3F81C2501F08FFD0021BD
:100F8000207A01F0C7FD0021207901F087FDA568D6
:100F900000F07CF985423CBFA368294A666836BFE9
:100FA0001B014FF0FF35D55600F070F986423DBF6A
:100FB0006368234A1B014FF0FF3338BFD3561F4AE3
:100FC0004FF48070C2F84055C2F84435FFF776FF01
:100FD0004FF48470FFF772FF4FF48270FFF76EFFDB
:100FE000E06803230028C2F8043307DB0121C0B204
:100FF00001F054FD0121207B01F08CFD04F114006F
:1010000000F0B6F80F4BE02283F81D234FF000529A
:10101000C3F880211A60094901224FF48070C1F899
:101020000025FFF74BFF0A6010468DE7034B4FF09A
:10103000A85290E7014BC3F8081596E700D001408D
:101040000402002000E100E081637047143000F0EA
:101050008DB800001F4B1B6870B5054653B34FF4A5
:10106000807005F11404FFF729FF204600F0E1F835
:10107000D8B9204600F0D8F80646204600F0A4F87B
:101080002B69154A5B00C2F86065B0FBF3F320469C
:10109000C2F8643500F098F80146204600F0D3F815
:1010A000AB6B33B1BDE8704018470B4B0022C3F85F
:1010B000002570BD094B1B682BB14FF48270BDE851
:1010C0007040FFF7FBBE064B1B68002BF1D04FF4BE
:1010D0008470F4E700D1014000D0014004D1014008
:1010E00008D1014001210148FFF7B4BFBC1E002018
:1010F00010B50B4C0B4B23601D221C23C4E90123AC
:1011000004F114001B23E36000F050F80023A363F4
:101110002046054A0549BDE8104006F0FAB800BF70
:10112000BC1E0020D44D020000020020311101003D
:1011300010B5044B044640F8143B00F00FF820466D
:1011400010BD00BFD44D020010B50446FFF7F0FFFC
:1011500020463C2106F012FB204610BD704710B51A
:101160002421044606F00AFB204610BDC1607047EA
:1011700010B5C1680446406810F02AFB6060D4E9ED
:10118000020110F025FBE268A0600021606810F009
:10119000BFFAE268A068002110F0BAFA00232362C7
:1011A00023616361A361E36110BD000010B5054BCD
:1011B00003604FF400730446C360FFF7D9FF204675
:1011C00010BD00BFEC4D0200036A043350F8233019
:1011D000026A063250F82220C0689B1AC01A704773
:1011E00038B504460846236A043354F82350236A6A
:1011F000063354F82330ED1A954228BF15468DB1B9
:10120000236A226A04EB830306325B6854F82210D7
:101210002A46194410F07EF9236A04EB8304A3697B
:101220002B44A361284638BD036A00EB8300406865
:101230007047036A043350F82320036A063350F8DA
:101240002300101A7047036A5BB901230362036A23
:101250000433002240F82310036A063340F82320A9
:1012600070470023F2E730B5A1F11004002500F02B
:101270000F02D3B2092ACCBF373330338B73CD730F
:1012800002398C424FEA1010F1D130BD2220704754
:1012900030B5012185B0192001F000FC0121192091
:1012A00001F038FC204A0023D3604FF08042012136
:1012B000C2F85C3503F1804303F588334FF4803284
:1012C000C3F848232120C3F8082301F0E7FB0121DC
:1012D000202001F0E3FB0121212001F01BFC012172
:1012E000202001F017FC114B01221A60104A1368EC
:1012F000002BFCD00F4B0024C3F80045C3F8004579
:101300000D4B0FCB6D4685E80F00234620464FF06E
:10131000FF3155F823200133042BC2F80005C2F831
:101320006015F6D105B030BDF0ED00E004200040BE
:101330004421004000200040F44D020038B54FF039
:10134000805504462146D5F8A800FFF78CFFD5F854
:10135000A40004F11001FFF786FF202038BD000033
:1013600072B64FF08043B022C3F81C25BFF34F8FF5
:101370000549064BCA6802F4E0621343CB60BFF331
:101380004F8F00BFFDE700BF00ED00E00400FA054D
:10139000C3680BB19B681847704710B50446806955
:1013A00020B10368DB6898470023A36110BD704734
:1013B00001207047D0F82031D0F82401181A48BF16
:1013C00000F580707047D0F82421D0F820319A427F
:1013D0001DBFD0F82431C01890F820004FF0FF3026
:1013E0007047D0F82421D0F820319A420CD0D0F8A0
:1013F0002431034493F82020D0F824310133DBB2A8
:10140000C0F82431104670474FF0FF30704770B578
:1014100003681446DB690546984704F47063B3F526
:10142000407F04F0F0030CBF0721082104F00F02F5
:10143000302B0CBF02230123012A07D0901E424209
:101440004241A869BDE8704002F04CBA0222F8E7B8
:101450007FB5836904460E4663B94FF4807006F089
:1014600067F93346054694F91D2094F91C1002F0E3
:10147000D3FCA56194F91E20531C05D094F91F30AC
:10148000A069032102F0D8FCA06970B1084B039356
:101490000022084B019369460094029202F05BFA25
:1014A000039B13B19B686846984704B070BD00BFAA
:1014B000044E0200B914010013B50446A06902F0FD
:1014C00028FAC0B1A069036801225B690DF1070128
:1014D0009847D4F82031D4F824210133DBB2934269
:1014E000ECD0D4F820219DF80710224482F8201077
:1014F000C4F82031E2E702B010BD13B504468DF800
:101500000710A06902F016FA0028FAD0A069036853
:1015100001221B690DF107019847013018BF012016
:1015200002B010BD70B504460E461546A06902F023
:1015300001FA0028FAD0A069D0F8FC3001211B6B19
:10154000FC309847A06903682A461B6931469847D2
:10155000431C14BF2846002070BD10B4D0E90134EC
:1015600001686210E40701EB020048BF8A585DF889
:10157000044B48BFD358184770B5FFF787FE50B3E8
:10158000164B93F90060164CFFF780FE012888BFC8
:10159000124B4FF000054FF47A7288BF93F9103068
:1015A0002677C4E901520F4A226098BF4FF0FF33FB
:1015B0002022C4E9052563774FF48072FF23294672
:1015C00004F12000A377E37710F0A2F8C4F82051CB
:1015D000C4F8245170BD4FF0FF36D4E70402002058
:1015E000F81E0020184E0200002070477047704718
:1015F00010B5D0F88C452CB1236820465B6898471D
:10160000A468F8E710BD38B5D0F88C450D4634B164
:10161000236820469B6829469847A468F7E738BDA9
:1016200000487047D84E020010B5054B03600446D1
:1016300003F0FDFE204603F013FF204610BD00BF5F
:10164000584E020010B50446FFF7EEFF20464FF457
:10165000B26106F093F8204610BDF7B5D0F88C457E
:1016600005460E460023A4B123683146DF680DF11C
:10167000030201AB2046B8479DF803100429034636
:1016800005D0019A284603F02FF903B0F0BDA468F5
:10169000E9E7019A9DF80310F4E770B505460E4698
:1016A00022B10021BDE8704002F014BFD0F88C4593
:1016B0005CB1236800221B6931462046984710B16F
:1016C00001212846EEE7A468F2E72146F9E770B564
:1016D000D0F88C450E46054600213CB123683146C2
:1016E00020465B699847A4680146F6E72846BDE8AE
:1016F000704002F0EFBFF8B5D0F88C4505460E46B5
:1017000017463CB1236820469B693A4631469847C4
:10171000A468F6E728460121BDE8F84003F038B890
:1017200070B5002186B0044603F0DAFA0023ADF864
:10173000063023898DF810301B0AA188E2888DF8C5
:1017400011304FF4897540F20123ADF80450ADF823
:101750001230022540F20313EF268DF807508DF862
:1017600009508DF80C100125090A8DF80E20ADF8EE
:101770001430120A04F10A038DF808608DF80A503B
:101780008DF80B008DF80D108DF80F2001AD05AE12
:101790001C462A4603CAB24218605960154603F136
:1017A0000803F6D112881A80204606B070BDF8B53D
:1017B000002406460D462746304610F081FBA04225
:1017C00007D9335D05F8143005EB440301345F702D
:1017D000F2E7400000F0FE00F8BD38B5D0F88C55B7
:1017E000044635B12B6828461B6A984710B9AD6886
:1017F000F7E7284640F20233A4F8483504F24A518C
:10180000FFF7D5FF94F84835184484F8480504F5E7
:10181000A96038BD40F2023310B500F20A51044607
:10182000A0F808350548FFF7C2FF94F808351844BA
:1018300084F8080504F5A16010BD00BF444E020005
:1018400040F2023310B50446A0F8C83400F2CA4092
:10185000FFF774FD94F8C834184484F8C80404F5FC
:10186000996010BD2DE9FF4100238DF80A3090F8F2
:1018700088351B4A8DF80830012301928DF8093014
:101880003222C0238DF80B308DF80C2001AB0446BA
:1018900000F54E7803CBC4F83803C8F8041088F874
:1018A0000820D4F88C6509258EB1336800211B68A7
:1018B00030469847478805F54E73093F00F1090106
:1018C0003A46E0180FF026FE3D44B668ECE784F88F
:1018D0003A5340462D1284F83B5304B0BDE8F081E2
:1018E0000902FFFF73B504460D46164608F074FE64
:1018F0004FF480730093014633462A46204603F096
:10190000B7F9024B2360204602B070BD584E02006A
:10191000D0F88C356BB9C0F88C1590F888350B7100
:1019200090F888354A79134480F88835012070474B
:1019300013469A68002AFBD19960EEE71FB504466A
:1019400003F090F90146684602F032FB40216846F8
:1019500002F09EFBD4F88C4534B123682046DB6945
:1019600069469847A468F7E7684602F028FB04B088
:1019700010BD10B50446FFF7E1FF2046BDE810405A
:1019800003F0E0B810B50D4C2378BFF35B8FDB0795
:1019900012D4204605F0D0FC70B148F25A0242F24F
:1019A00041310748FFF79EFF204605F0E7FC054A56
:1019B0000549034805F0ADFC014810BD2420002076
:1019C00028200020000200202916010010B5FFF792
:1019D000D9FF0368BDE810405B6F184710B5FFF7EB
:1019E000D1FF0368BDE810409B6F184710B5FFF7A3
:1019F000C9FF0368BDE81040DB6F184702F096BCD2
:101A000002F058BC02F082BC704770477047436ACE
:101A100093F870007047D0F89C04704700487047F6
:101A2000245002002DE9F04F044697B00F464B2298
:101A3000002103A80FF06CFED4F89C34267994F8AA
:101A40000EA094F80C90002B06F10105637B019326
:101A500014BF05200020EDB2002F40F0978040F227
:101A60000923ADF80C304FF48173ADF810308023AA
:101A70008DF8133032238DF8143008238DF815308B
:101A80000B2301218DF816308DF8250040F202233A
:101A900042F205404FF0240C4FF0090E04274B2270
:101AA000ADF818308DF8211002238DF82410ADF810
:101AB00026004FF0100805208DF82A108DF82D1003
:101AC0008DF82F104FF0030B06218DF80E208DF8A6
:101AD00017608DF81A308DF81DE08DF81F608DF8B5
:101AE00022308DF823308DF82B008DF82CC08DF826
:101AF00031C08DF832308DF833108DF834008DF808
:101B000035C08DF81E708DF829808DF82EB08DF8B7
:101B100030708DF8361007218DF839108DF8491086
:101B200044F20201ADF84C1040F20751ADF85010EC
:101B30001D349DF804108DF837608DF838508DF8FD
:101B40003A008DF842508DF84A008DF852108DF809
:101B5000533044F20306402340F6022503A92046F1
:101B60008DF83BA0ADF83C608DF83F808DF840E0EB
:101B70008DF84170ADF844508DF84B908DF854308D
:101B80000FF0C8FC204617B0BDE8F08F0020FAE740
:101B90000A4B10B503600446FFF7F4FE03F047FC60
:101BA00004F5227002F00EFB04F1740002F00AFB4F
:101BB00004F1680002F006FB204610BDE84F020069
:101BC00010B50446FFF7E4FF20464FF4946105F09A
:101BD000D5FD204610BDFFF709BF000010B5034B2F
:101BE0000360044602F06CF9204610BD204F02004D
:101BF00010B50446FFF7F2FF2046282105F0BEFD90
:101C0000204610BD10B5034B0360044602F058F99E
:101C1000204610BDF04E020010B50446FFF7F2FF5B
:101C20002046342105F0AAFD204610BD10B5034B17
:101C30000360044602F044F9204610BD084F02003C
:101C400010B50446FFF7F2FF2046382105F096FD57
:101C5000204610BD38B51D4B0D461968C0F80F1051
:101C600099889B7943750446A0F8131040220221FD
:101C7000284602F003FA402220730221284602F08F
:101C800002FA402260730321284602F0F7F9A0739C
:101C9000284602F095F920B9B6220D490D4804F006
:101CA00021FF04F17D020023C4F8802204F2912276
:101CB00084F8703084F87C30C4F8843284F8903230
:101CC000C4F89424C4F8983438BD00BF3C4F0200D7
:101CD000784F0200CE4F02002DE9F34104460E4634
:101CE0001546FFF783FEF28823799A4237D1002DFB
:101CF00035D17778012F2ED1F378202B27D1328957
:101D0000072A24D104F10F0804F11605294640469C
:101D10000FF0CEFBD0B1D4F81630C4F80F30207CD1
:101D2000E17B638BA4F8133001EB0021607CE57C40
:101D3000237F009501EB00412568A07C637501EBD2
:101D40000061237D627D2D6B2046A8473D46F378D8
:101D5000212B08BF0125284602B0BDE8F0810025EF
:101D6000F9E710B50446FFF741FEFFF70BFE217BB4
:101D700003F0FAF904F17D03C4F880320023C4F8BB
:101D8000843284F87C3004F1740002F0D0F994F8C5
:101D90007C302BB9236820469B6BBDE81040184768
:101DA00010BD000070B50446FFF720FED4F898542B
:101DB0002DB14FF4F1720F490F4804F093FE04F275
:101DC0009123C4F89434FFF7DDFD617B03F02AF919
:101DD00084F89052C4F8980404F5227002F0A7F930
:101DE00094F890322BB9236820465B6BBDE87040B5
:101DF000184770BD784F0200484F020010B4D0E978
:101E0000013401686210E40701EB020048BF8A5800
:101E10005DF8044B48BFD35818470000F0B504469E
:101E200087B002ADFFF7E2FD0026FFF7ABFDA17B17
:101E3000009503234022059602F09EFE2846FFF7F8
:101E4000A7FAFFF79FFD164B217B164F0095402206
:101E5000CDE9033602230597029402F08DFE284651
:101E6000FFF796FAFFF78EFD0F4B617B009540223E
:101E7000CDE9033602230597029402F07DFE284641
:101E8000FFF786FAFFF77EFD4FF40073D4F8942431
:101E9000617B03F069F8012084F8900207B0F0BD7F
:101EA000631D0100304F0200A51D010038B502235B
:101EB0004371002383600C4B044640F8683B154691
:101EC00002F028F904F1740002F024F904F52270FC
:101ED00002F020F9C4F89C54FFF754FD2146FFF7A7
:101EE00017FD204638BD00BFE84F020070B504461C
:101EF0000D46FFF77BFD84F87050002D3ED194F81D
:101F00007C3033B1FFF73EFD217B02F005FF84F802
:101F10007C5004F17D0304F1740600253046C4F8BA
:101F20008032C4F8845202F002F9304602F0F8F828
:101F300028B91549154840F2491204F0D3FD94F828
:101F4000903233B1FFF71EFD217B02F0E5FE84F8ED
:101F5000905204F29123C4F8943404F522750023BE
:101F60002846C4F8983402F0E2F8284602F0D8F87F
:101F700020B940F2531204490548DEE704F1680035
:101F8000BDE8704002F0D3B8784F0200564F02000F
:101F9000674F020010B50446FFF728FD20460021D8
:101FA000BDE81040FFF7A2BF38B50D460446FFF765
:101FB0001DFD042D05D020460021BDE83840FFF767
:101FC00095BF38BDF8B5154604460E461F46FFF7C7
:101FD0000DFD04232B70F28823799A421DD171786C
:101FE00001291AD1F278212A08D0222A0BD0202ADE
:101FF0004FF0000013D12870163401E029700F341F
:102000003C600720F8BDB38813F0010308BF1946F0
:102010002046FFF76BFF02232B700020F2E703231B
:102020002B70EFE710B58AB00446FFF7CFFC684687
:1020300001F03AFF0A4B0093694604F168000994E5
:1020400002F08DF82046FFF7C9FC064B00211A6804
:10205000684601F073FF6846FFF7C0FD0AB010BD87
:10206000204F0200444F020070B58EB01546044662
:102070000E46FFF7ABFC01A801F016FF0E4B0C95C6
:1020800001A9002504F174000193CDE90A468DF8F9
:10209000345002F064F82046FFF7A0FC074B2946B5
:1020A0001A6801A801F04AFF01A89DF83440FFF723
:1020B000A9FD20460EB070BDF04E0200444F020054
:1020C00010B50446FFF792FC94F87C307BB9D4F845
:1020D000843263B1FFF756FCD4F88432217B04F1DB
:1020E0007D0202F0DFFF10B1012384F87C3010BDC7
:1020F0002DE9F8431E460446894690469DF8207017
:10210000FFF764FC0023336094F87030E3B194F877
:102110007C30CBB9D4F88452C5F50075454528BF4D
:102120004546B8F1000F05D02A464946D4F880024A
:102130000FF0F0F9D4F884322B44C4F884323560BF
:1021400017B12046FFF7BCFF2046BDE8F843FFF774
:1021500045BCF0B50446406A90F8705085B0012641
:102160002DB984F830503546284605B0F0BD04AB93
:10217000002743F8047DD4E90A120096FFF7B8FF60
:102180000399E36AA26A5B1A0A44E362A26213B982
:1021900084F83060E8E7606AFFF792FF3D46E3E7C6
:1021A0002DE9F0431C4691B0904606468946FFF75C
:1021B0000DFC002C08BF01AC4FF00005256002A803
:1021C0000CBF0127002701F06FFE104B029302A9FC
:1021D00006F52270CDE90D84CDE90B698DF83C70D0
:1021E0008DF83D5001F0BBFF3046FFF7F7FB084B81
:1021F00029461A6802A801F0A1FE02A89DF83D40F8
:10220000FFF714FD204611B0BDE8F083084F02002F
:10221000444F020010B5D0F89834044673B990F8D2
:1022200090325BB9FFF7AEFB4FF4007304F29122DA
:10223000617B02F099FE012384F8903210BD70B5E5
:102240001E4604460023336094F870300846EBB114
:1022500094F89032D3B9D4F89854D4F894149542A1
:1022600028BF15462A460FF055F93560D4F8943446
:10227000D4F898242B44551BC4F89434C4F89854CB
:1022800025B92046BDE87040FFF7C4BF70BD37B523
:102290000446406A90F870502DB984F835500125F5
:1022A000284603B030BD02AB002243F8042DD4E928
:1022B0000A12FFF7C4FF0199A26A0A44A262226BC4
:1022C00013680B441360E36A01995B1A94F83410A5
:1022D000E36209B9126802B91BB9012384F83530E9
:1022E000DEE7606AFFF796FF0025D9E76FF015007B
:1022F000704700290CBF6FF01800002070470120C4
:1023000070476FF0150070476FF01500704711208F
:10231000704770477047704703685B6C1847A0F5BB
:102320009760F9E7704770477047704790F8700002
:102330007047A0F5976090F8700070477047036889
:102340001847000038B500F053FB094D044695F8D6
:1023500070301BB1012000F05DFBF8E700F048FB96
:10236000001BC728F6D9BDE83840FEF7F9BF00BF0B
:10237000B82500204FF0FF3103F057B907B502AB85
:10238000012243F8041D1946FFF76EFE18B10198AB
:1023900003B05DF804FB4FF0FF30F9E7A0F594605F
:1023A000FFF7ECBF07B502A9002301F8013D0122A8
:1023B000FFF7F6FE20B19DF8070003B05DF804FBBF
:1023C0004FF0FF30F9E7A0F59460FFF7EBBF2DE980
:1023D000F04104460D4616461F46DDF81880FFF70B
:1023E00005FBD4F88C463CB143463A463146284674
:1023F000A446BDE8F0416047BDE8F08170B50646EF
:10240000FFF7F4FA06F5D2640025D6F8D036AB42D1
:1024100008D92046103454F8043C1BB11B68984777
:102420000135F2E770BD90F8703013B10368DB6BD3
:10243000184718467047A0F59760F4E7B0F5966F17
:1024400010B511D10421094803F067F9044658B1C9
:10245000074B0360074903F000FB22460649034887
:10246000BDE8104003F017BA10BD00BF8C2C00204F
:10247000452301003D2301003F23010010B4D0E9B2
:10248000013401686210E40701EB020048BF8A587A
:102490005DF8044B48BFD358184710B4D0E9013455
:1024A00001686210E40701EB020048BF8A585DF83A
:1024B000044B48BFD3581847134B03F1740270B54F
:1024C0000360C0F8A02403F1D402E4330446C0F84A
:1024D000A424C0F8B83400F5D26600F5DA65AE423F
:1024E00004D0103D2846FEF753FFF8E704F5BA6024
:1024F00007F07AFE04F5946003F096FF2046FFF79C
:1025000047FB204670BD00BF5C500200A0F5946000
:10251000FFF7D2BFA0F2A440FFF7CEBF10B504462C
:10252000FFF7CAFF204640F2D46105F027F92046A4
:1025300010BDA0F2A440FFF7F1BFA0F59460FFF733
:10254000EDBF00007FB50446FFF740FA1F4BC4F80B
:102550008C362046FFF742FA1D4B03931D4B019327
:102560002046002300940293FFF730FAD4F8D056A7
:10257000032D13D805F169066B1C04EB0616C4F88D
:10258000D0363046FEF704FF04EB0515039BC5F873
:102590009C361BB15B686946304698472046FFF77A
:1025A0001DFA6846FEF7F4FE0B4B03930B4B0093AA
:1025B0000B4B01936946002304F5BA60029307F0C0
:1025C0008DFD6846FEF7E4FE04B070BD3D240100B9
:1025D00048500200E12601003C5002008C2C0020F3
:1025E00075230100A0F59760FFF7ACBFF7B504466F
:1025F0001F4615460E4607F0EFFFBDF82430019345
:10260000BDF8203000932A463B4601462046FFF79E
:102610004DFC002104F5946003F0DCFE4FF47A7366
:10262000C4F8C034224B236003F174020025C4F8BF
:10263000A02403F1D402E433C4F8A424C4F8B834C9
:102640004FF480722946C4F8BC5404F599600FF029
:102650005FF8184BC4F8D0352946C4F8C855C4F8FB
:10266000E055C4F8CC5504F5C26005F091FA04F5C4
:10267000BA6704F2246005F029FA00952B464FF45E
:1026800080521821384607F01DFDC4F89C56C4F846
:10269000AC56C4F8BC56C4F8CC56C4F8D056C4F8EE
:1026A0008C5616B12046FFF7BDFC204603B0F0BDA6
:1026B0005C5002003466020038B50546FFF786F923
:1026C00095F8903253B9D5F89844FF2C28BFFF24D1
:1026D000E4B22846FFF782F9204638BD0024F8E727
:1026E00010B50446D4F8C825D4F8CC359A42ADBF0D
:1026F000D4F8C835D4F8CC35D4F8C825D4F8CC25CE
:10270000ABBFC3F1FF039B1A9B1803F1FF33BBB1AF
:102710002046FFF7D1FF98B1236820461B6C9847ED
:10272000D4F8C835D4F8CC250133DBB29342D9D0E4
:10273000D4F8C825224482F8C804C4F8C835D1E7C3
:1027400010BD10B50446FFF7CBFFD4F8CC25D4F864
:10275000C8359A421BBFD4F8CC35E4184FF0FF308F
:1027600094F8C80410BDA0F59760EAE710B50446D8
:10277000FFF7B6FFD4F8C805D4F8CC35C01A48BF67
:1027800000F5807010BDA0F59760EFE710B5044626
:10279000FFF7A6FFD4F8CC25D4F8C8359A421BBF62
:1027A000D4F8CC351B194FF0FF3093F8C8041FBF85
:1027B000D4F8CC350133DBB2C4F8CC3510BDA0F56C
:1027C0009760E3E790F870007047000037B5104C51
:1027D000104D00226821204602F00EFF2A460E49C5
:1027E000204604F096FD0D4C42F212030122CDE981
:1027F0000032002211464FF4F8532046FFF7F6FE50
:1028000007492A46204603B0BDE8304004F081BDA8
:102810008C2C00200002002017560100B825002053
:10282000B924010008B50DF0ADFC2DE9F8430646CA
:102830000D46071D00F10709002417F8011B0A22A5
:10284000284600F0B1F82E218046284600F043F8D3
:102850004F4540440444F0D10A22F179284600F063
:10286000A3F82044BDE8F883024B034A1A60002213
:102870005A607047E82C0020745102002DE9F041A5
:1028800006460D4601EB02080C464445A4EB05073D
:1028900007D0336814F8011B1B683046984700289E
:1028A000F3D13846BDE8F08170B5044608460D46C0
:1028B0000FF006FB23680246294620465B68BDE808
:1028C0007040184709B1FFF7EFBF0846704708B5D9
:1028D000FFF7F8FF08BD03681B6818470149FFF7B9
:1028E000E3BF00BF1460020038B50546FFF7EAFFFA
:1028F00004462846FFF7F2FF204438BD70B58AB081
:102900000D460AA9002301F8043D012A98BF0A22B6
:10291000B5FBF2F402FB1456F3B2092E94BF303328
:102920003733DBB2254601F8013D002CF0D1FFF72B
:10293000C9FF0AB070BD2DE9F04107460E461546A5
:102940002AB90368C9B21B68BDE8F04118470A2AD2
:1029500005D1002905DBBDE8F041FFF7CFBFD2B2BA
:10296000F9E72D21FFF7B7FF2A46044671423846A2
:10297000FFF7C4FF2044BDE8F08138B50546FFF7F6
:10298000DAFF04462846FFF7A9FF204438BD10B4FB
:102990002AB903685DF8044B1B68C9B21847D2B264
:1029A0005DF8044BFFF7AABFFFF7F1BF10B500F0C9
:1029B00033F8FEF76DFCFEF7E5FFFEF7DAFF4FF4A4
:1029C000E1310648064CFFF7BDFDFDF713FEFDF7AC
:1029D000A5FD002CFBD0AFF30080F8E7B825002060
:1029E0000000000010B5044601F0DFF8204610BDDD
:1029F00007B50749684601F015F94FF47A720023CC
:102A0000DDE900010DF0EEF903B05DF804FB00BF55
:102A1000F02C002007F0F0BA014801F0D0B800BF58
:102A2000F02C002010B5054C204601F038F9204666
:102A3000034A0449BDE8104004F06BBCF02C0020B0
:102A400000020020E529010008B590F900305A1C69
:102A500004D120220E490F4804F044F8012259B154
:102A60001F2B86BF03F01F030B494FF0A04102FA52
:102A700003F3C1F8083508BD1F2B86BF03F01F0301
:102A800005494FF0A04102FA03F3C1F80C35F2E713
:102A900078510200F5510200000300502DE9F04189
:102AA0001B4D0601AB198046DC680F469CB9FEF74A
:102AB000EDFB80454FF0010034BF15F906804FF063
:102AC000FF3804F035FE35440023044603704146C8
:102AD00003F0A3F8EC60012F10D006D3022F12D020
:102AE000204600F008FC012103E0204600F003FC32
:102AF00000212046BDE8F04100F00ABC2046BDE8B8
:102B0000F04100F0EBBB204600F0F5FB0321F0E7BD
:102B1000040200202DE9F34107468846FEF7B6FB84
:102B2000874221D2124C3E01A319DD68ADB9FEF7F0
:102B3000ADFB87424FF0010034BFA7574FF0FF377E
:102B400004F0F6FD34440023054603700122CDF85D
:102B50000080394603F06BF8E5604146284602B034
:102B6000BDE8F041FFF770BF02B0BDE8F08100BFE3
:102B700004020020064B10B504460360806A08B1C9
:102B800003F0CEFA201DFEF703FC204610BD00BF67
:102B90006453020010B50446FFF7ECFF2046802185
:102BA00004F0ECFD204610BDCB68C3600BB15B6840
:102BB00018477047C36810B52BB9054905484FF44D
:102BC000FD7203F08FFFBDE810401B68184700BF7F
:102BD0000D5202002B520200F8B50546064655F884
:102BE000044B8CB90D4F386818B14FF0FF3106F027
:102BF0002FFB346824B9284604F068FF2C46356062
:102C0000386808B106F03CFBAC4204D004490548E2
:102C10008B2203F067FF2046F8BD00BFB0B500204F
:102C20003752020059520200036801221B69002139
:102C30001847036800221B691146184780F84C1397
:102C40000020704780F850120020704790F84C0325
:102C5000704790F85002704700207047012070477D
:102C60006FF01C00704737B500F5467504462846DE
:102C7000019104F033FF0199204600F004FF28463B
:102C800004F04AFF002003B030BDA0F1FC00FFF7C4
:102C9000EABF37B500F5467504462846019104F0B1
:102CA0001DFF0199204600F037FF284604F034FF4D
:102CB000002003B030BDA0F1FC00FFF7EABF10B464
:102CC000D0E901320168541001EB6200D20748BF1D
:102CD0000A595DF8044B48BFD35818470020704785
:102CE000012070476FF01C00704700000C4B10B5BE
:102CF000036048330446C0F8FC30D0F8540310B1E8
:102D000003685B68984704F54F70FEF741FB04F5D4
:102D1000467004F01BFF204600F068FE204610BD00
:102D200090520200A0F1FC00FFF7E0BF10B504468E
:102D3000FFF7DCFF20464FF4567104F01FFD2046DC
:102D400010BDA0F1FC00FFF7F1BFD0F8540308B5A7
:102D500020B100F08AFC003818BF012008BD30B552
:102D6000002585B02A4669460446039500F0F3FD28
:102D70006846FEF70DFB84F84E5305B030BD30B504
:102D800085B00025012269460446039500F0E3FD65
:102D90006846FEF7FDFA84F84D5305B030BD10B516
:102DA000044603F09FFFD4E940239A420ABF94F8F7
:102DB0000841002484F0010403F0AAFF204610BD5E
:102DC00038B500F546750446284604F087FE04F53C
:102DD00003742046FFF7E3FF48B9284604F09CFE41
:102DE000012004F0E1FD284604F078FEF1E72846D2
:102DF00004F092FE002038BDA0F1FC00FFF7E0BF18
:102E000038B5054600F58070FFF7C9FF80F0010472
:102E10002846E4B2FFF799FF18B144F40054204665
:102E200038BD03F05FFF95F8145303F071FF002DD8
:102E3000F5D144F01004F2E7A0F1FC00FFF7E0BF89
:102E400070B504460D4603F04DFF03F04BFF94F8B8
:102E5000086103F05DFF56B1D4F80431FF2B03F194
:102E600001020ABF0023C4F80421C4F80431D4F8D5
:102E70000021531CC4F800312978A154B3F5807F98
:102E800004BF0023C4F80031D4E940239A4204BFB0
:102E9000012384F80831BDE8704003F039BF38B52C
:102EA00004460D4603F01EFF2046FFF778FFB0B939
:102EB000D4F804315A1CC4F80421E35C2B70D4F814
:102EC0000431B3F5807F4FF0000308BFC4F804015C
:102ED00084F80831012403F01BFF204638BD00248C
:102EE000F9E7000010B586B00446684680E80C009B
:102EF00006A800E90C00039110E90700034BE3600A
:102F000084E80700204606B010BD00BF7C520200D6
:102F100030B587B000250B4B009304462B46014685
:102F2000084A019502A8FFF7DDFF2A4602A92046BC
:102F300000F011FD02A8FEF72BFA012384F84E33AE
:102F400007B030BD3B30010038B5044600F086FCC8
:102F5000114B002503F1080250332260C4F8FC3005
:102F6000C4E98055C4E9C35584F8085284F8145361
:102F700004F5467004F0AAFD084BC4F84C33012355
:102F80002046C4F8485384F85033C4F85453FFF72C
:102F9000BFFF204638BD00BF88520200010000017B
:102FA00010B586B00B4B0093044600230146094A36
:102FB000019302A8FFF796FF012202A9204600F024
:102FC000CAFC02A8FEF7E4F9012384F84D3306B0E9
:102FD00010BD00BF5931010070B504460D4604F51F
:102FE0004F7603F07FFEAE420AD03046FEF7D0F9AE
:102FF000EB68C4F848331BB15B68294630469847F4
:10300000D4F8483343B147F6FF712046FFF7F8FE86
:1030100010B13046FFF7CEFDBDE8704003F078BE3A
:10302000A0F1FC00FFF7D8BF08B5D0F848331BB1BA
:1030300000F54F70FFF7BEFD08BDF7B500F58075D0
:1030400004462846FFF7ABFE064603F04BFE94F815
:10305000087203F05DFE77B9204600F05AFC50B1CB
:10306000204600F0FDFC0DF107018DF80700284611
:10307000FFF7E6FEE9E794F84E334BB103F032FE7A
:1030800094F8087203F044FE17B12046FFF767FE7C
:103090004EB12846FFF783FE28B9204603B0BDE8AD
:1030A000F040FFF7C1BF03B0F0BD2DE9F74306467E
:1030B00089461546002A49D000F54677384604F07F
:1030C0000DFD06F580784046FFF769FE044698B18D
:1030D00096F84C33384633B904F01EFD6FF00A0001
:1030E00003B0BDE8F08304F017FD012004F05CFCA0
:1030F000384604F0F3FCE6E709EB04014046019191
:10310000FFF74DFE30B9019940460134FFF7C7FE85
:10311000A542F1D103F0E6FD96F850337BB196F865
:103120004E3363B93046FFF788FF03F0DBFD96F8B6
:10313000085203F0EDFD15B93046FFF7E9FE03F044
:10314000E7FD384604F0E8FC2046C9E71046C7E72B
:10315000A0F1FC00FFF7A9BF73B5044603F0C2FD60
:1031600094F8145303F0D4FD04F50376204600F0E0
:10317000E1FB58B10DF107013046FFF790FE28B191
:103180009DF80710204600F06EFCEFE794F84D33F1
:103190003BB104F50370FFF702FE10B12046FFF7C4
:1031A000EEFD6DB103F09EFD94F8145303F0B0FDF5
:1031B00035B92046FFF7C9FD10B92046FFF734FFA7
:1031C00002B070BDF8B505460C46164600F503770B
:1031D0003846FFF7E4FD40B1A719BC4209D014F806
:1031E000011B284600F03FFCF7E72846FFF7B4FF35
:1031F000EEE73046F8BD2DE9F84F05460F46164676
:10320000002A65D003F06BFD044630B132463946E2
:103210002846BDE8F84FFFF7D5BF05F54679484683
:1032200004F05CFC05F5037A03F05CFD95F814836B
:1032300003F06EFDB8F1000F14D1A7EB0408A6420D
:1032400008EB040724D903F04DFD95F814B303F0FF
:103250005FFDBBF1000F1BD139465046FFF7F0FD73
:103260000134ECE795F84C3343B3484604F054FC82
:10327000012004F099FB484604F030FC03F032FDD5
:1032800095F8148303F044FDB8F1000FEDD1D4E7B5
:1032900003F028FD95F84F3363B195F84D334BB9E2
:1032A0002846FFF759FF5046FFF779FD10B9284629
:1032B000FFF776FE03F02CFDA642B5D8484604F091
:1032C0002BFC002C14BF20466FF00A00BDE8F88FDD
:1032D0001046FBE7A0F1FC00FFF78DBF07B501909A
:1032E00003F000FD0198012107F04CFE03B05DF8EA
:1032F00004EB03F00DBD07B5019003F0F3FC01985A
:10330000002107F03FFE03B05DF804EB03F000BDC1
:1033100007B5CDE9001003F0E5FCDDE9001007F08A
:103320000FFE03B05DF804EB03F0F2BC416830B46B
:10333000034671B1D0E9032000F0010402B944B1A1
:10334000451001EB60000CB149598A58996830BCAE
:10335000104730BC7047000008B5431C04D10F492A
:103360000F48202203F0BEFB012359B11F2886BF5E
:103370000C4A00F01F004FF0A04203FA00F0C2F820
:10338000080508BD1F2886BF064A00F01F004FF041
:10339000A04203FA00F0C2F80C05F2E72053020045
:1033A000F551020000030050036870B504460D4655
:1033B0001B68984704F13000A567294607F0F4FE22
:1033C000034B1C60236820465B68BDE870401847CB
:1033D000302D0020036870B5094D1B6804469847DE
:1033E0002B68A34205D0A16F04F1300007F0DCFE8A
:1033F0002C60236820465B68BDE87040184700BF1A
:10340000302D00207FB51D4603680446CDE902211A
:103410001B6898472046FFF7DDFF9DF8203083F0BA
:103420000103DDE90221009304F130002B4607F08F
:1034300017FF236806465B6820469847A81B18BFFD
:10344000012004B070BD7FB51D4603680446CDE978
:1034500002211B6898472046FFF7BCFF9DF82030EB
:1034600083F00103DDE90221009304F130002B46D3
:1034700007F0DAFE236806465B6820469847A81BDB
:1034800018BF012004B070BD7FB500240126154689
:103490002346224602A800968DF8084002F0C7FB9A
:1034A00003A800962346224629468DF80C4002F0D8
:1034B000BEFB03A807F016FD002853D002A807F0B2
:1034C00011FDB04202D1002004B070BD214603A816
:1034D000FFF71EFF03A8FFF701FF0A24002103A83E
:1034E000FFF716FF00219DF90C00FFF735FF0520BF
:1034F00004F05CFA032103A8FFF70AFF9DF90C0012
:103500000121FFF729FF052004F050FA013CE5D125
:1035100002A8FFF7E3FE21469DF90800FFF71CFF14
:10352000052004F043FA01219DF90C00FFF714FF78
:10353000052004F03BFA01219DF90800FFF70CFF7C
:10354000052004F033FA02A8FFF7D5FE03A8FFF721
:10355000D2FE03A807F0C6FC20B102A807F0C2FC07
:103560000028B0D16FF00100AEE7000008B50348B5
:10357000FFF732FBBDE8084004F0B0BA082D002088
:1035800008B50348FFF728FBBDE8084004F0C4BABB
:10359000082D0020F8B5184B03600D46174B43610A
:1035A000002100F130070446C0E90711C0E9091104
:1035B0001646016181854822806138460EF0A8F8E0
:1035C0000F4BA3672046FFF7D1FF3246294684F808
:1035D0007C5084F87D602046FFF756FF94F97D20EB
:1035E00094F97C10384607F099FD064B20461C6084
:1035F000FFF7C6FF2046F8BD645302002D330100DB
:10360000A0860100302D002070B504460D461646F8
:10361000002148220EF07CF832462946204607F069
:103620007DFD2046044907F0BFFD2046012107F03B
:1036300039FE204670BD00BFA086010007F0B4BD72
:10364000CAB2002342F00102194607F08FBE07F00C
:103650003BBE07F04BBE10B5144607F067FE001BDB
:1036600018BF012010BD07F0B7BD043007F03ABC09
:103670007047416830B4034671B1D0E9032000F0CF
:10368000010402B944B1451001EB60000CB1495985
:103690008A58996830BC104730BC704770B500F14B
:1036A0004C0690F9DF2090F9DE100446304608F011
:1036B000D1F9D4E939530DB9DA070ED55A1004EB14
:1036C0006300DB0748BFA35894F8EC1048BF5D596E
:1036D00094F9ED2094F9EE30A847D4F8D81030468C
:1036E00008F0CEFA224630460249BDE8704008F0A4
:1036F0009FBB00BF753A010070B5044600F14C0550
:10370000D0F8E010284602F005FDD4F8F020A2B170
:10371000D4F8E4301BB9D4F8E830D8070DD5D4F884
:10372000F810D4F8F4304E1004EB6100C90744BF20
:10373000A159CB5894F8EC109847D4F8D8102846E3
:1037400008F09EFA224628460249BDE8704008F07B
:103750006FBB00BF753A01002DE9F0411F46D0F85C
:10376000E03004460D4616462BB11749174840F283
:10377000271203F0B7F9164AC0E9392303681B681A
:10378000984784F8EC5084F8ED6084F8EE70032DCF
:103790000BD8DFE805F0150210154FF0FF33324665
:1037A000012104F14C0008F01DFB236820465B68F2
:1037B000BDE8F041184733464FF0FF320221F0E7F1
:1037C0003B4632462946ECE7745302009C53020004
:1037D000593701002DE9F04198461D4B03601D4B00
:1037E000436000251C4B85600446C0E90555C0E9CF
:1037F00007550F461646C360858445634564A0F8A7
:1038000048506C22294600614C300DF081FF40F297
:103810000113A4F8DC304FF47F43A4F8EC30FF230D
:103820002046C4E93558C4E93855C4E93C55C4F8C4
:10383000C45084F8DE7084F8DF60C4F8E85084F87F
:10384000EE30C4F8F850FFF729FF2046BDE8F081BC
:10385000BC5302009D36010073360100F8B51E4BC3
:1038600003601E4B436000251D4B856004460E46D9
:10387000C0E90555C0E907551746C360858445630F
:103880004564A0F848506C22294600614C300DF088
:103890003FFFC4E93557C4F8C45040F20113A4F8FF
:1038A000DC30337984F8DE30337B84F8DF304FF45A
:1038B0007F43A4F8EC30FF232046C4E93865C4E90F
:1038C0003C55C4F8E85084F8EE30C4F8F850FFF7DF
:1038D00013FF2046F8BD00BFBC530200F9360100BB
:1038E000733601007FB50546044655F84C6B0193CD
:1038F000CDE902213668B047DDE901322846039957
:1039000008F038FA23685B68204604B0BDE87040D0
:10391000184738B50546044655F84C3B1B68984790
:10392000284608F039FB236805465B68204698471F
:10393000284638BD38B50546044655F84C3B1B684B
:103940009847284608F048FB236805465B682046F0
:103950009847284638BD03682DE9F34105461B68A2
:1039600016460F46984795F8DC30340103B1B6B1DE
:1039700095F8DD300BB1012E11D0B8342819B842BA
:1039800006D00190FDF704FD01983946FFF70CF9C8
:103990002B685B68284602B0BDE8F0411847B83490
:1039A00003F0A0F92C44FA68E36805F14C089AB1D9
:1039B0000BB903F033FCA74206D02046FDF7E8FC24
:1039C00039462046FFF7F0F801223146404608F01C
:1039D0003FFA03F09DF9DBE70BB103F035FC20461D
:1039E000FDF7D6FC0022E260EFE7000030B5164B91
:1039F000036085B000252A46694604460395FFF713
:103A0000AAFF6846FDF7C4FC0122694620460395DB
:103A1000FFF7A1FF6846FDF7BBFC04F1C800FDF706
:103A2000B7FC04F1B800FDF7B3FC04F13800FDF772
:103A3000AFFC04F12800FDF7ABFC206A08B102F0EE
:103A40006FFB204605B030BDBC53020010B50446E4
:103A5000FFF7CCFF2046FC2103F090FE204610BD6E
:103A60004C3008F021BA10B54C300C4608F05EFA24
:103A7000204610BD00EB0110B83008B5C3680BB18B
:103A8000FFF798F808BD036870B504461B680D463B
:103A9000984794F8DC30AB422BD065B194F8DD3018
:103AA0004BB9A2686368511004EB6200D20744BFAF
:103AB0006258D358984703F015F905B3D4F8C430C9
:103AC0005BB104F1B800FFF775F803F0A7FB012222
:103AD000002104F14C0008F0BBF903F019F984F857
:103AE000DC5035B994F8DD301BB904F14C0008F016
:103AF00091F8236820465B68BDE8704018472A4665
:103B0000294604F14C0008F0A3F9D4F8C430002B86
:103B1000E3D003F099FBE0E7036870B504461B6847
:103B20000D46984794F8DD30AB422BD065B194F840
:103B3000DC304BB9A2686368511004EB6200D20715
:103B400044BF6258D358984703F0CCF805B3D4F873
:103B5000D4305BB104F1C800FFF72CF803F05EFB32
:103B60000122114604F14C0008F072F903F0D0F87C
:103B700084F8DD5035B994F8DC301BB904F14C0001
:103B800008F048F8236820465B68BDE87040184795
:103B90002A46012104F14C0008F05AF9D4F8D43037
:103BA000002BE3D003F050FBE0E7437D10B5044663
:103BB0001BB1037D0BB103F047FB204610BD13B5CD
:103BC000044601A802F0B4FA637D53B9237D0BB11A
:103BD00003F024FB206902F064FAC4E90001012328
:103BE000637501A802F0ACFA02B010BD37B5044607
:103BF0000D4601A802F09CFA00230022C4E900232C
:103C00006B7D4BB1286902F04CFAD5E90032C01A3D
:103C100061EB0201C4E9000101A802F091FA20461B
:103C200003B030BD30B585B004460D4603A802F0A0
:103C30007FFA29466846FFF7D9FFD5E90210009BB5
:103C4000019A5B1842EB0002C4E9003203A802F0BB
:103C500077FA204605B030BD13B5044601A802F03E
:103C600067FA206902F01DFA00220023C4E900016E
:103C7000C4E9022301A802F063FA02B010BDD0B576
:103C8000002300260027C0E90067C0E90267044658
:103C9000016102754375FFF7DFFF2046D0BD10B507
:103CA000044601F0E1FF002201462046FFF7E7FF4E
:103CB000204610BD03681B681847000010B5044675
:103CC000074B236000220023C4E902230023084697
:103CD000A161C4E90433034902F05CF9204610BD38
:103CE000D4530200B53C010007B5009000F1080173
:103CF000806902F08EF903B05DF804FB00F1080161
:103D0000806902F0B3B9002070476FF01C00704763
:103D10006FF01C0070476FF0150070476FF01500D2
:103D20007047012070470120704700207047002035
:103D3000704770B511F0010405468EB204D0FFF74C
:103D4000E8FD041E18BF0124F30605D52846FFF739
:103D5000F1FD08B144F01004204670BDA0F1FC0054
:103D6000FFF7E7BF10B5034B03600446FFF73EFEC5
:103D7000204610BDE0530200A0F1FC00F2E700BFB6
:103D800010B50446FFF7EEFF20464FF4807103F0B4
:103D9000F5FC204610BDA0F1FC00F1E72DE9F04153
:103DA00006460D461746C2B102F099FF80F00103A6
:103DB00013F0FF0403D0336830461B68984705EBC7
:103DC000070815F8011B3046FFF74DFEA845F8D14E
:103DD0001CB1336830465B6898473846BDE8F081CF
:103DE000A0F1FC00FFF7DABF38B504460D4662B11A
:103DF00003681B6898472046FFF732FE2870236847
:103E000020465B689847012038BD1046FCE7A0F1CA
:103E1000FC00FFF7E9BF000010B50446FFF7DAFC2D
:103E2000044B03F108023C332260C4F8FC30204606
:103E300010BD00BFD853020030B5056885B00446F8
:103E4000CDE9022101932D68A847DDE90132204622
:103E50000399FFF781FC23685B68204605B0BDE845
:103E60003040184730B5044685B004F1080502F02B
:103E700039FF29466846FEF797FE2846FDF788FA7F
:103E8000E0690023C4E9053308B103F0A7FE02F09E
:103E90003FFF039B13B11B68684698476846FDF7D0
:103EA00077FA05B030BD0000002204494260C0E945
:103EB00005220160C2610284704700BFAC54020059
:103EC000074B10B503608369044623B105490648D2
:103ED000262202F007FE0830FDF75AFA204610BDF0
:103EE000AC5402005C5402008554020070B50446D4
:103EF0000E4602F0F7FEA56965B104F10800FDF772
:103F000047FA00230122636184F82020E36184F8EA
:103F10002160A36102F0FCFE2DB121462846BDE8D8
:103F2000704000F02EB970BD08B103F0D7BD02F0AB
:103F3000D9BE08B103F0F0BD02F0EABE2DE9F041B0
:103F4000044686B00E46174602F0CCFEA56902F084
:103F5000DFFE35B301AD0021284603F019FE02F063
:103F6000C1FED4E9068323B10F491048392202F07B
:103F7000B9FDE56102F0CCFEB8F1000F0ED0394674
:103F8000284603F00DFE48B93046FFF7CDFF204626
:103F90000121FFF7ABFF3046FFF7CBFF284603F0C8
:103FA00020FE06B0BDE8F0815C540200935402008C
:103FB0000022C0E9012201220160027370477047AC
:103FC0000346007B30B1D3E90020136898428CBFD0
:103FD0000020012070472DE9F0410468012606FA0F
:103FE00001F10023271D82EA060E17F813400C4248
:103FF00004D004F030043AB1102C07D10233202B46
:10400000F3D14FF0FF300DE0002CF7D0D0F808C00E
:1040100042EA030506FA05F818EA0C0FEED1202C47
:1040200002D02846BDE8F0814EEA030406FA04F403
:1040300014EA0C0FF5D0E1E770B50D4611462A469B
:1040400004461E46FFF7C7FF002802DA002020734F
:1040500070BD25686368420805EB8205E98819444C
:104060006B7906FB03136360012303FA00F1A36875
:1040700042EAC0100B43A360C0B2E9E713460A4608
:104080000121FFF7D9BF13460A460021FFF7D4BF2D
:1040900013B50A46019100210446FFF7EFFF019A8C
:1040A0000021204602B0BDE81040FFF7ECBF00221F
:1040B000C0E90022704770470068704700230B601A
:1040C000436813B90160416070471960FBE70368FA
:1040D0002BB11A6802B94260026000221A601846C9
:1040E000704710B50468002223468B4203D083B189
:1040F0001A461B68F9E70AB10B6813608C4204BFCB
:104100000B68036043688B424FF0000308BF4260B6
:104110000B6010BD10B50446FFF7C9FF204610BD67
:1041200008B5FFF7C9FFB0FA80F0400908BD70B5C7
:1041300005462846FFF7C0FF044678B150F8043C16
:10414000061F9B683046984740B12846FFF7BFFFDF
:1041500054F8043C3046DB689847EAE770BD70B518
:1041600004460D46FFF7A8FFAC610646291D204610
:10417000FFF7A4FF26B92046BDE87040FFF7D7BF80
:1041800070BD70B505460C46FFF796FF064604B1B4
:10419000043421462846FFF7A4FFA64204D128464E
:1041A000BDE87040FFF7C3BF70BD10B504462046A0
:1041B000FFF782FF28B150F8043C0438DB689847C9
:1041C000F5E710BD10B50446FFF7EFFF2046FFF7F7
:1041D00072FF204610BD7047704703689B6D1847FB
:1041E00070B586B00023CDF806308DF80A3003890B
:1041F0008188C2888DF810301B0A12248DF8113086
:104200000323022590F820638DF804408DF80C10EC
:104210000124090A8DF80E208DF81430120A00F1DD
:104220000A038DF805408DF807508DF80B608DF866
:1042300012408DF813508DF815408DF80D108DF843
:104240000F2001AC05AE1D46224603CAB2421860DB
:104250005960144603F10803F6D112881A802846E3
:1042600006B070BD00487047945702000048704780
:10427000CC5702000048704798570200004870472A
:10428000DE57020000487047C457020000487047DC
:10429000AE570200036810B504465B6F9847D4F828
:1042A000EC0203681B6F9847236820469B6FBDE8AC
:1042B0001040184738B5D0F83433012B044610D1DC
:1042C0000025D4E9C93000F0010203B94AB1411018
:1042D000C4E9C95504EB60000AB16258D358984745
:1042E000EFE7D4F834332BB90649074840F2C662E9
:1042F00002F0F8FB013BC4F83433BDE8384002F06B
:1043000007BD00BFBC540200E754020008B5D0F856
:1043100034332BB90349044840F2CD6202F0E2FB8A
:1043200008BD00BFBC540200E754020010B50446AB
:1043300002F0D8FCD4F834330133C4F834332BB949
:10434000034904484FF4D76202F0CCFB10BD00BF14
:10435000BC540200E7540200036873B50446DB6FE7
:104360009847B4F8F8120B0A022B25D0032B56D02D
:10437000012B04D1236820461B6B984708B9002005
:1043800018E0236820461B6B98470678122EF6D15A
:10439000236820461B6B98474578012DEFD1236891
:1043A000C4F804631B6B2046984784F80853C4F88C
:1043B0000003284602B070BD2368C9B25B6B01914F
:1043C000204698470028DAD0236801995B6B204685
:1043D000984703780199092BD1D1236820465B6B5C
:1043E000984743780199022BC9D1236820465B6B1B
:1043F0009847236885785B6B019920469847C37876
:10440000019945EA03252368C4F804535B6B2046F1
:104410009847C4F80003012084F80803CAE7C9B22A
:104420000529ACD8DFE801F0030F19232D372368E5
:1044300020469B6B98470378C4F8043323689B6B32
:1044400020469847E5E723682046DB6B98470378CA
:10445000C4F804332368DB6BF2E7236820461B6C47
:1044600098470378C4F8043323681B6CE8E7236893
:1044700020465B6C98470378C4F8043323685B6C70
:10448000DEE7236820469B6C98470378C4F8043322
:1044900023689B6CD4E723682046DB6C984703783D
:1044A000C4F804332368DB6CCAE70B78DB091370AC
:1044B0000B78C3F3411353700B7803F01F03937011
:1044C0004B78D3704B8893808B88D380CB881381B3
:1044D00070470000036870B504465B6F0D4698474F
:1044E00094F80C33022B05D009490A4840F23D12DA
:1044F00002F0F8FA084BC4F824330023C4F8283338
:10450000236884F8105320469B6FBDE8704018471D
:10451000BC540200F3540200094A010038B5036894
:104520000446DB6F984794F8083313B100252846FA
:1045300038BDD4F8EC0203685B6C9847D4F80423C8
:104540009042F3D8D4F80013121A0144C4F80013AF
:10455000C4F80423A2B994F80A53022384F80C3354
:1045600045B1236884F80A239B6E04F53D7120460B
:104570009847DCE701212046FFF7ACFF0125D6E78D
:10458000D4F8EC02D4F820430368A2421B6C28BF85
:1045900022469847F2E70000036813B50446DB6F34
:1045A000984794F81C33012B06D800230F49009339
:1045B0001A460F4802F0FEFC94F80C3323B1002396
:1045C0000C4900931A46F4E794F80B33032B0BD0F5
:1045D0002046FFF7A3FF38B9D4F8EC020368DB6C80
:1045E00002B0BDE81040184702B010BD1E550200D1
:1045F0000E0115804655020038B503680446DB6F8E
:10460000984794F80833012B3BD1D4F8045335B9BB
:1046100094F809330BB901252CE084F80953D4F838
:104620002023D4F8EC02D4F800130368954228BF85
:1046300015462A469B6C9847D4F80033D4F80423D7
:104640002B44551BC4F80033C4F80453002DE2D1A9
:1046500094F80923002ADED194F80A53022384F83F
:104660000C334DB1236884F80A239B6E04F53D7129
:1046700020469847284638BD01212046FFF72AFFEB
:10468000C9E70025F6E70000036813B50446DB6FB1
:10469000984794F81C33012B06D800230B490C488B
:1046A00000931A4602F086FC94F80B33032B0BD0D0
:1046B0002046FFF7A1FF38B9D4F8EC020368DB6CA1
:1046C00002B0BDE81040184702B010BD1E550200F0
:1046D0000E011580036870B504465B6F0D46984760
:1046E00094F80C33032B05D009490A484FF4C372E0
:1046F00002F0F8F9084BC4F824330023C4F8283337
:10470000236884F8105320469B6FBDE8704018471B
:10471000BC54020090550200C754010010B5036854
:104720000446DB6F9847012004F21D33C4F80033C0
:10473000C4F8040384F8080310BD036810B50446E8
:10474000DB6F984794F81C33042B01BFB4F82E3369
:10475000A4F8FA32012004F54C7303BFC4F8003307
:10476000C4F8040384F80803002010BD036810B5E2
:10477000DB6F04469847042384F80C33236894F8CD
:10478000F8221B6FB4F8FA1220469847012010BD9A
:10479000036870B504465B6F0D46984794F80C3378
:1047A000042B05D009490A484FF4EB7202F09AF93C
:1047B000084BC4F824330023C4F82833236884F852
:1047C000105320469B6FBDE870401847BC54020050
:1047D000BC550200994A0100036810B50446DB6F1E
:1047E000984794F81C33042B02D0B4F8FA328BBBF0
:1047F00094F8F632012B0FD0022B10D053BB164B7E
:1048000001221A80144BC4F8003301200223C4F89B
:10481000043384F8080310BD0F4B0022F1E7B4F80D
:10482000FA2222F08F03ABB912F00F0F0A4902D11E
:1048300000230B80E6E7530003F01E0343EAD21384
:10484000023B182202FB034393F830309B07EFD55D
:104850000123EEE70020DEE7342D002010B50368C9
:10486000044690B0DB6F9847D4F8EC02D4F82023CC
:1048700003686946DB6B984704F53D72694620463C
:10488000FFF713FE0023C4F80833C4E9C033012343
:1048900084F80C33236811465B6E984710B010BD46
:1048A000036813B50446DB6F984794F81C33012B5B
:1048B00006D800230A490B4800931A4602F07AFBF7
:1048C00094F80C23012384F82C332AB9204602B033
:1048D000BDE81040FFF7C2BF84F82D3302B010BD11
:1048E0001E5502000E0115802DE9F0411D4603689A
:1048F00004465B6F0F461646984794F80C33012B1D
:1049000005D00B490B4840F2BA2202F0EBF80A4BF3
:10491000C4F824330023C4F82833236884F81073C0
:10492000C4E9C56520469B6FBDE8F041184700BF4C
:10493000BC540200E45502003B530100036870B50B
:104940000446DB6F9847B4F8FC2292B394F8F41253
:1049500094F80833012925D1012B06D0D4F8EC02B4
:104960000368DB6CBDE870401847D4F80433934209
:1049700001D9C4F804230129D4F8043326D19A427A
:1049800008D9D4F82023B3FBF2F002FB10330BB9A3
:1049900084F80913022384F80B332046BDE87040E5
:1049A000FFF72ABE002BD9D1D4F804339342E2D0CA
:1049B000D4E7D4F8EC02D4F804230368002AD0D159
:1049C000032184F80B139B6C11460EE0D4F8EC0223
:1049D0000122016884F80B23D4F820230D6CD4F84D
:1049E00000139A4228BF1A462B46BDE8704018476C
:1049F00010B503680446DB6F9847002384F82D3315
:104A0000032384F80B3310BD036810B5DB6F044635
:104A10009847002284F80C2394F82D2394F810333F
:104A200022B12046BDE81040FFF7E2BF33B9D4F809
:104A3000EC020368BDE81040DB6C184794F80B33B8
:104A4000012B0AD1D4F8EC02032384F80B3303685A
:104A50009B6CBDE8104011461847022B07D1D4F8D3
:104A6000EC02032384F80B3303681B6CF1E710BDE1
:104A7000036810B5DB6F04469847002384F82C3395
:104A800094F80C3323B92046BDE81040FFF7B0BFBF
:104A9000012384F82D3310BD036810B5DB6F044685
:104AA0009847002284F80C2394F82D2394F81033AF
:104AB00022B12046BDE81040FFF79ABF63B1B4F8B9
:104AC000FA32A4F82E33B4F8F83284F830332046A2
:104AD000BDE81040FFF732BFD4F8EC020368BDE830
:104AE0001040DB6C1847036810B504465B6F9847AD
:104AF00094F8F03283B9D4F8EC02036821469B683D
:104B00009847D4F8EC02036840219B6B9847012337
:104B1000C4F8200384F8F032236820469B6FBDE878
:104B20001040184738B5036804465B6F984794F8FF
:104B30001C53236820469B6FEDB298472B1F5842A9
:104B4000584138BD036810B55B6F0446984720464E
:104B5000FFF7C9FF94F8F1323BB9D4F8EC020368CF
:104B60005B699847012384F8F132236820469B6FE4
:104B7000BDE81040184700002DE9F04F904685B081
:104B800002680391526F0293DDF838900546904712
:104B9000039911F0700F03D111F00F0F029B06D192
:104BA00000232B492B4800931A4602F003FA95F88C
:104BB000F2723FB92B6828469B6F9847384605B07C
:104BC000BDE8F08F4C0004F01E0444EAD114A61E88
:104BD0004FF0180B0BFB065A9AF83020D20705D578
:104BE0001D491E484FF48E6201F07CFFB8F5806FBE
:104BF00004D919491A4840F27142F5E7D5F8EC0298
:104C00000268176D4246B84707460028D2D0601E9A
:104C10000BFB0050043048450BD00290FCF7B8FB6A
:104C2000D9F80C30CAF828301BB15B6802984946A5
:104C30009847182303FB065696F83030A6F82C80C8
:104C400043F0010386F83030002386F83130B1E7B5
:104C50000756020004011580BC54020026560200CB
:104C600048560200D0F8EC0203685B6B184700005E
:104C7000F8B50F461949044640F81C1B00250646A6
:104C800004F53B71F5601836B142FBD1E380BDF805
:104C900018302381A28000214FF434720CF038FDCB
:104CA0002822002104F53D700CF032FD0123C4E9F7
:104CB000C855C4E9CA55C4F8EC72A4F8F05284F897
:104CC000F252C4F8345384F8305384F81C3384F817
:104CD0001D5384F81E532046F8BD00BF1457020030
:104CE00038B503685B6F0D46044698472B071FBF16
:104CF0006A0002F01E0242EAD513023B1BBF1822D3
:104D000002FB0343D4F820539D8D236820469B6FFC
:104D10009847284638BD00000368F7B55B6F0E461C
:104D20000546984736F08F0701D1320706D1002398
:104D30001749184800931A4602F03CF9740004F031
:104D40001E0444EAD6141823023C03FB045494F8CE
:104D50003030DB0709D42846FFF7E4FE80B10E4966
:104D60000E4840F28C5201F0BDFE94F831303BB158
:104D7000D5F8EC0203683146DB6E984784F8317051
:104D80002B689B6F284603B0BDE8F040184700BF72
:104D90000756020004011580BC5402006056020050
:104DA000036873B55B6F0E460446984716F0700FA4
:104DB00001D1310706D100231A491B4800931A4636
:104DC00002F0F8F8750005F01E0545EAD61518231F
:104DD000023D03FB054595F83030DA0709D420463B
:104DE000FFF7A0FEB0B11149114840F2CC4201F0EA
:104DF00079FE43F0020385F83030D4F8EC02036802
:104E000031469B6D984795F831301BB131462046AD
:104E1000FFF782FF23689B6F204602B0BDE8704019
:104E2000184700BF0756020004011580BC54020059
:104E300060560200036810B50446DB6F984794F88B
:104E40001C33042B02D0B4F8FA32A3B994F8F6322A
:104E5000022B10D1B4F8FA1231F08F000BD111F0FF
:104E60000F030AD0B4F8F83223B92046C9B2FFF7CD
:104E700097FF012010BD0020FCE71846FAE700006C
:104E8000036873B55B6F0E460446984716F0700FC3
:104E900001D1310706D100231C491D4800931A4651
:104EA00002F088F8750005F01E0545EAD615023DAA
:104EB000182303FB054393F83020D20709D420467A
:104EC000FFF730FED8B11349134840F2F14201F028
:104ED00009FE93F831301BB131462046FFF71CFF25
:104EE000182303FB0545314695F8303023F00203C3
:104EF00085F83030D4F8EC020368DB6D98472368FE
:104F00009B6F204602B0BDE870401847075602006C
:104F100004011580BC54020060560200036810B5FD
:104F20000446DB6F984794F81C33042B02D0B4F886
:104F3000FA32A3B994F8F632022B10D1B4F8FA126F
:104F400031F08F000BD111F00F030AD0B4F8F83212
:104F500023B92046C9B2FFF793FF012010BD0020FE
:104F6000FCE71846FAE700002DE9FF419846036880
:104F700003920E465B6F0746984736F08F0403D1C5
:104F800016F00F0F039A06D1002320492048009302
:104F90001A4602F00FF8750005F01E0545EAD61511
:104FA0001823023D03FB057595F83030DB070AD462
:104FB0003846FFF7B7FD044688B11649164840F257
:104FC000AF5201F08FFDAB8D434505D9134914480D
:104FD000009423462246DCE795F8311039B13B684E
:104FE00038469B6F9847204604B0BDE8F081D7F85B
:104FF000EC0201680C6E3146A04704460028EED052
:1050000095F83130013385F83130E8E70756020072
:1050100004011580BC540200605602006E56020066
:1050200005011580036837B55B6F0D460446984748
:1050300015F0700F01D12A0706D100231549164833
:1050400000931A4601F0B6FF6B0003F01E0343EA1B
:10505000D513023B182202FB034393F83030DB07E1
:105060000AD42046FFF75EFD054660B10B490C48A7
:1050700040F2E95201F036FDD4F8EC02036829460B
:105080005B6E98470546236820469B6F98472846E5
:1050900003B030BD0756020004011580BC54020065
:1050A000605602002DE9FF419846036803920E46C0
:1050B0005B6F0746984736F08F0503D116F00F0F48
:1050C000039A06D100232249224800931A4601F090
:1050D00071FF740004F01E0444EAD6141823023C45
:1050E00003FB047494F83030DB070AD43846FFF72A
:1050F00019FD054688B11849184840F20A6201F0C6
:10510000F1FCA38D434505D21549164800952B4661
:105110002A46DCE794F831303BB13B6838469B6F58
:105120009847284604B0BDE8F081D7F8EC02036840
:1051300031469D6E4346A847054638B194F8313054
:10514000A4F82E80013384F83130E6E7E085E4E707
:10515000BF56020004011580BC54020060560200D4
:10516000DD56020005011580036837B55B6F0D46FB
:105170000446984715F0700F01D1290706D1002386
:105180001249134800931A4601F014FF6A0002F016
:105190001E0242EAD513023B182202FB034393F896
:1051A0003020D2070AD42046FFF7BCFC054630B1B8
:1051B0000849094840F2496201F094FCDD8D2368FA
:1051C00020469B6F9847284603B030BD0756020023
:1051D00004011580BC54020060560200036870B5DB
:1051E0000446DB6F0D46984794F81C2384F81C5343
:1051F000AA42D3B226D0032B09D9032D8CBF002697
:105200000126012B05D9012D03D88EB103E000261C
:10521000F7E786B100264FF43472002104F11C0038
:105220000CF076FA002384F81D3384F8F23216B1BC
:105230002046FFF71DFC2368294620461B6EBDE86B
:105240007040184770BD036810B50446DB6F98477F
:10525000D4F8EC0294F8F8120368DB6A9847B4F8C3
:10526000F8322BB902212046FFF7B8FF012010BD0C
:105270000321F8E7036810B50446DB6F984794F8FC
:10528000F81284F81D1351B9D4F8EC0203681B6AB4
:10529000984703212046FFF7A1FF012010BD0123FD
:1052A00084F8F232032384F80C3323682046DB6E43
:1052B0009847F2E7036810B50446DB6F984794F807
:1052C000F532C3BB94F8F7320B2B34D8DFE803F088
:1052D000060B331033151A331F24292E2046BDE840
:1052E0001040FFF779BA2046BDE81040FFF716BE20
:1052F0002046BDE81040FFF79DBD2046BDE81040A8
:10530000FFF7A1BF2046BDE81040FFF725B82046B3
:10531000BDE81040FFF702BA2046BDE81040FFF795
:10532000A9BF2046BDE81040FFF707BA2046BDE8F8
:105330001040FFF71BBA002010BD036810B5DB6FEB
:1053400004469847002084F80C0394F82D0394F841
:105350001033D4E9C52190B1012B0BD8022384F876
:105360000C33236804F53D7120469B6EBDE8104068
:10537000012218472046BDE81040FFF739BB042B37
:1053800012D12046FFF796FF30B9D4F8EC0203683B
:10539000BDE81040DB6C184794F80C3373B9204615
:1053A000BDE81040FFF7CABA032BEED00120C4E9D4
:1053B000C02184F80A0384F80833F0E710BD0368BD
:1053C00010B5DB6F0446984720460221FFF706FF21
:1053D000002384F81E332046FFF74AFB236820464B
:1053E000DB6DBDE810401847036810B504465B6FDD
:1053F000984794F8F1323BB1D4F8EC0203689B690A
:105400009847002384F8F13294F81C33012B03D918
:1054100001212046FFF7E2FE002384F81D3384F8C3
:105420001E33236820469B6FBDE810401847036871
:1054300010B504465B6F984794F8F03253B120469C
:10544000FFF7D2FFD4F8EC020368DB68984700232B
:1054500084F8F032236820469B6FBDE8104018475F
:105460000D4B70B5036090F8F03204462BB10B4938
:105470000B4840F2625201F035FBFFF7D8FF04F50C
:105480003B7504F11C06B54204D0183D2846FBF7D5
:105490007FFFF8E7204670BD14570200BC5402009D
:1054A000FE56020038B503680D46DB6F0446984788
:1054B00045B994F81C332BB129462046BDE8384045
:1054C000FFF78CBE38BD036870B50446DB6F9847A4
:1054D00094F82D3394F8106303B97EB92046FFF792
:1054E00021FB054650B901464FF4347204F11C000B
:1054F0000CF00EF984F81D5384F8F252002384F85E
:105500000C3394F82D3323B12046BDE87040FFF7EB
:105510006FBAD4F8EC02036856B1DB6998472046AD
:105520000421FFF75BFE2046BDE87040FFF706BA96
:10553000BDE87040DB6C1847036837B5DB6F0D467C
:105540000446984715F0700F01D12B0706D10023B0
:105550000F49104800931A4601F02CFD6B0003F030
:105560001E0343EAD5118B1E182505FB034393F850
:10557000312052B1481E05FB0040013A043083F847
:105580003120C3680BB1FDF715FB03B030BD00BF80
:105590000756020004011580036837B5DB6F0D461E
:1055A0000446984715F0700F01D12B0706D1002350
:1055B0000F49104800931A4601F0FCFC6B0003F001
:1055C0001E0343EAD5118B1E182505FB034393F8F0
:1055D000312052B1481E05FB0040013A043083F8E7
:1055E0003120C3680BB1FDF7E5FA03B030BD00BF51
:1055F000075602000401158038B500230446836570
:1056000019B90A4600F013F803E0002AFAD100F0B5
:1056100046F8204638BD10B5044600F053F804F1B2
:105620004C00FBF7B5FE204610BD00F055B903292C
:1056300038B5044607D9D31C23F003039A1A891AF4
:1056400021F003011A460023C4E90433E2600D4649
:1056500005BBC4E906512262256000F001FA00F0A2
:1056600001FAC4E90A556060258184F8245004F1E8
:10567000300000F017FA00280BDB04F1440000F0C2
:1056800009FA002805DB04F1480000F003FA00EAFB
:10569000E07038BD2369013323616D08D8E737B561
:1056A0000546084601910BF0E7FB044638B1024677
:1056B00001992846FFF7BBFF6C6103B030BD4FF086
:1056C000FF30FAE770B505680446B5B9A36A1BB1A7
:1056D000E06A4FF0FF31984704F1480000F0DCF930
:1056E00004F1440000F0D8F904F1300000F0E2F9D0
:1056F0006069BDE870400BF0C7BBEE6836B9EB6976
:1057000013B105F124009847AD68DEE7F36913B1E2
:1057100006F124009847F668F0E773B5064627318E
:105720004830019021F0030500F0B7F9B469019801
:1057300006F118035CB9F3699D4223D8346A5B1BF8
:10574000F3616219012332622560237107E0226848
:10575000954213D8E26872B11A60A368936000F0B2
:105760009EF900234FF0FF32C4E90532E36124348F
:10577000204602B070BDA2681A60F0E704F1080389
:10578000A468D7E700F08BF9F2E751F8083C73B54D
:1057900005460C460BB108469847EB6833B1A4F1B7
:1057A0002406B34202D82B6AB34204D2002304F881
:1057B000203C02B070BD05F14800019000F06DF989
:1057C000AB69019805F11802A3B11D6854F8241CB7
:1057D0008D420BD30ED144F8183C9B6844F81C3C16
:1057E000166002B0BDE8704000F059B903F108023C
:1057F0009B68E9E7002344F8183C1368EEE7F8B526
:105800004B699B1A1646002BA8BFD2184A61437AEF
:105810004B7100F14407054638460C4600F03DF94F
:10582000284603687BB359696269A1EB020CBCF19D
:10583000000F25DB914226D19B68A36013B104F1D0
:1058400008021A612246036842F80C3F0021996061
:105850001A61AB6A046020616BB195F8242052B1E3
:105860002A68A24207D1E2682AB96169E86A891BFD
:1058700021EAE17198473846BDE8F84000F00FB9D9
:1058800003F10800CDE7A36013B104F108021A6127
:105890000023E360DDE7F8B5144605460F46A2F1A4
:1058A000240600F0DFF854F8103C44F8047C03446C
:1058B000024644F8103C31462846FFF7A0FF29690C
:1058C00014F8204C8C40E968761A05F13000344316
:1058D00000F0F2F82046F8BD2DE9F74F04460F46D8
:1058E00000F0C0F84FF00008054607EB000984F807
:1058F000248004F14406304600F0CFF8637A013387
:10590000637263685B1B002B2368D8BF65600193DB
:1059100001A91BB15A69521B002A33DD236003B170
:105920001C613046C1F8008000F0B9F8019B01A865
:1059300063BB019D4FF0010A002D34D100F092F8B5
:10594000002F82465CDBA9EB0005002D5ADCA36A20
:105950009BB1304600F0A1F8A36A43B1226832B18E
:105960005169E06AA1EB0A0121EAE171984701233C
:1059700084F82430304600F092F80023237203B0FC
:10598000BDE8F08F03F108019B68C2E79D681A46E5
:10599000002191601146D268002AFAD1016003F11A
:1059A00008002B46C4E72B6AD5F808B013B105F1FF
:1059B00024009847AA69002A0BDB6B6913446B61CA
:1059C00000F050F8294602462046FFF718FF5D46D2
:1059D000B2E7E36873B1AB420CD8236AAB4209D398
:1059E0002B7922690133DBB213FA02F214BF2B7157
:1059F00085F804A005F124012046FFF7C6FEE6E77E
:105A00004FF0FF35304600F048F823683BB1596944
:105A1000A1EB0A0121EAE1718D4228BF0D46304613
:105A200000F03DF8294604F1300000F048F8237AF0
:105A30007BB1304600F031F8237A3BB10023304689
:105A4000237203B0BDE8F04F00F029B8304600F0F3
:105A500026F800F007F805464DE740F8081C7047A7
:105A600001F03EBB07B501F034F970B1084B684650
:105A7000196800F045FDDDE900014FF47A7200235A
:105A80000AF0B0F903B05DF804FB01F0DFFFF9E7BD
:105A9000C030002000207047704701F023B901F0AA
:105AA00037B9000008B5024901F0AAFF002008BD7F
:105AB000E457020001F0ADBF012101F0A7BF08B516
:105AC000012341EAE172194601F0BEFF431E58422C
:105AD000584108BD03680BB10846184770470000DD
