:020000021000EC
:1000000000000420C9A1010001A2010095600100C7
:1000100005A20100A1600100A7600100000000002E
:10002000000000000000000000000000F578010062
:100030000DA20100000000008D7901009D790100F2
:1000400069DE01007954010013A2010013A201002E
:1000500013A2010013A2010013A2010013A20100C8
:1000600013A2010013A2010013A2010013A20100B8
:1000700013A20100FDDF010013A201009154010051
:1000800013A2010013A2010013A2010013A2010098
:1000900013A2010013A2010013A2010013A2010088
:1000A00013A2010013A2010013A2010013A2010078
:1000B00013A2010013A201000000000000000000D4
:1000C00013A2010013A2010013A2010013A2010058
:1000D00013A2010013A2010013A2010013A2010048
:1000E00013A2010013A2010013A2010000000000EE
:1000F0000000000013A201000000000013A2010094
:1001000010B5054C237833B9044B13B10448AFF351
:1001100000800123237010BD0010002000000000AB
:100120002C65020008B5034B1BB103490348AFF32C
:10013000008008BD00000000041000202C650200B3
:10014000154B002B08BF134B9D46A3F5803A0021A9
:100150008B460F461348144A121A10F081FF0F4BBA
:10016000002B00D098470E4B002B00D09847002062
:10017000002104000D000D48002802D00C4806F0B4
:1001800075FD10F07DFA2000290007F02BFA06F02B
:100190006AFD00BF0000080000000420000000000D
:1001A000417501000010002060BB00206D6C010053
:1001B0000000000070B504460D46164601F0EAFF47
:1001C00020B132462946204601F036FC70BDA0F52C
:1001D0009760EFE7E4230370EB234370821C00F188
:1001E0001201002302F8013B8A42D373FAD10422A0
:1001F00080F822202E2280F8233080F8242080F8F6
:100200002530704770B501444FF6FF7341F2210568
:10021000884210D010F8012B082482EA132616F029
:10022000800F4FEA430318BF6B405200013C9BB262
:10023000D2B2F2D1ECE7184670BD10B526210446C3
:10024000FFF7E0FFC0F3072384F8263084F8270087
:1002500056212046FFF7D6FFC0F3072384F8563017
:1002600084F8570010BD00002DE9F041DFF82C8024
:1002700006460F460C4674B1102C254628BF1025A3
:1002800031462A464046FFF795FF0A202E44641B5C
:1002900002F068F8EFE73846BDE8F081281D00203D
:1002A00010B504468AB04A4800F0FAF8002800F079
:1002B000848003AB02AA01A9454800F047F90198E0
:1002C0000EF0E0FE3EA3D3E900230EF033FF0FF063
:1002D000E1F9C4F8320002980EF0D4FE38A3D3E955
:1002E00000230EF027FF0FF0D5F9C4F8360003986D
:1002F0000EF0C8FE32A3D3E900230EF01BFF0FF06F
:10030000C9F9C4F83A00324800F0DDF8002854D0AA
:1003100006AB05AA04A92E4800F060F904980EF077
:10032000B1FE29A3D3E900230EF004FF0FF0B2F9C8
:10033000C4F83E0005980EF0A5FE23A3D3E90023E0
:100340000EF0F8FE0FF0A6F9C4F8420006980EF081
:1003500099FE1DA3D3E900230EF0ECFE0FF09AF9ED
:10036000C4F846001A4800F0B6F830B309AB08AA42
:1003700007A9174800F07AF9079BC4F84A30089B90
:10038000C4F84E30099BC4F85230012384F8283059
:10039000002384F8293084F82A3084F82B3084F83C
:1003A0002C3084F82D3084F82E3084F82F3084F8E7
:1003B000303084F831300AB010BD0020FBE700BFB8
:1003C00005A3923A019D2340399D52A246DF913FF9
:1003D0007410002038B50C4C58252A4600212046C0
:1003E00010F03EFE2046FFF75BFF2046FFF7F2FECF
:1003F000FFF723FF29462046FFF736FF4FF47A60C8
:10040000BDE8384001F0AEBF1C10002010B54FF41D
:1004100016510748064C01F07DFD204601F0BAFE5A
:100420000028FAD00348BDE8104000F0A8B900BF8A
:10043000281D0020741000207047000000487047FD
:100440000000EE42004870470000A04110B50C21AA
:10045000044606F03BFE204610BD70B50446806899
:100460000368DB6A16460D469847A0680368314664
:100470001B689847A06803685B6B984768B9A068D9
:1004800003680122DB6B29469847012805D1A06843
:100490000368BDE870405B6918474FF0FF3070BDDE
:1004A00008B5037943B12F226B21FFF7D6FF10F077
:1004B0003F0018BF012008BD17226B21FFF7CDFFB9
:1004C00000F00100F7E708B517226B21FFF7C5FF21
:1004D000C0F3400008BD08B527221E21FFF7BDFF6D
:1004E000C0F3C00008BD2DE9F04105468068069EB6
:1004F0001F460368DB6A144688469847A868036865
:1005000044F080011B689847A868036800211B6BB2
:100510009847044690B9A86803683246DB6B4146A9
:100520009847B0420ED13C46E31B9E420CD9A868C6
:1005300003685B69984704F8010BF5E74FF0FF305B
:10054000BDE8F0812046FBE70120F9E77FB51C46B6
:1005500006230E4615460093282202AB6B21FFF7B7
:10056000C2FF28B91B4B33602B60236004B070BD01
:10057000BDF908000EF074FD0022174B0EF0DAFDF5
:1005800000224FF07C530EF0D5FD0FF083F8306061
:10059000BDF90A000EF064FD00220F4B0EF0CAFDFB
:1005A00000224FF07C530EF0C5FD0FF073F8286069
:1005B000BDF90C000EF054FD0022074B0EF0BAFD01
:1005C00000224FF07C530EF0B5FD0FF063F8206071
:1005D0000120CBE70000C07F000010407FB51C4623
:1005E00006230E4615460093182202AB6B21FFF737
:1005F0007AFF28B91B4B33602B60236004B070BDB9
:10060000BDF908000EF02CFD0022174B0EF092FDF4
:1006100000224FF07C530EF08DFD0FF03BF8306060
:10062000BDF90A000EF01CFD00220F4B0EF082FDFA
:1006300000224FF07C530EF07DFD0FF02BF8286068
:10064000BDF90C000EF00CFD0022074B0EF072FD00
:1006500000224FF07C530EF06DFD0FF01BF8206070
:100660000120CBE70000C07F00409F407FB51C46C3
:1006700006230E4615460093282202AB1E21FFF7E3
:1006800032FF28B9214B33602B60236004B070BD6A
:10069000BDF908000EF0E4FC00221D4B0EF04AFDEF
:1006A00000221C4B0EF046FD00224FF07C530EF052
:1006B00041FD0EF0EFFF3060BDF90A000EF0D0FCF6
:1006C0000022134B0EF036FD0022124B0EF032FDCD
:1006D00000224FF07C530EF02DFD0EF0DBFF286062
:1006E000BDF90C000EF0BCFC0022094B0EF022FDFF
:1006F0000022084B0EF01EFD00224FF07C530EF03E
:1007000019FD0EF0C7FF20600120BFE70000C07F89
:10071000000010400000594070B5044680681D4636
:100720000368DB6A16469847A068036831461B6871
:100730009847A068036829461A689047A06803682C
:100740005B6B9847B0FA80F0400970BD10B5032389
:10075000044622221E21FFF7DFFF002310226B2117
:100760002046FFF7D9FF0023204620226B21FFF708
:10077000D3FFA0680368BDE810405B6A184710B556
:10078000044680680368DB699847052322226B21B1
:100790002046FFF7C1FF0C2321221E212046FFF730
:1007A000BBFF0A2001F0DEFD0F226B212046FFF780
:1007B00054FE682804D02046FFF7C8FF002010BD73
:1007C0000F221E212046FFF748FE3D28F3D1782353
:1007D00010226B212046FFF79FFF702320226B2100
:1007E0002046FFF799FFB42320221E212046FFF761
:1007F00093FF002321221E212046FFF78DFF0023B7
:1008000022221E212046FFF787FF0120D7E70000A4
:100810000548064B036000230371054A054B064952
:10082000836006F01EBA00BF741000201846020054
:1008300000020020741300203904010070470020DA
:100840007047490000230162C0F82C3270470368EA
:1008500001211B6B184710B403689C6B0123A4464D
:100860005DF8044B6047D0F82C32B3F5807F1FBF92
:100870005A1CC0F82C22C01880F82C1114BF01207B
:10088000002070477047C0F830127047C0F834122B
:100890007047D0F82821D0F824319A421DBFD0F8F3
:1008A0002831C01890F824004FF0FF307047000046
:1008B00010B5044B0360044600F50E7009F03CF9D6
:1008C000204610BD5846020038B50446802006F088
:1008D000D7FB94F91C2094F91810054602F002FB8E
:1008E000656138BD7FB5044648200E4606F0C8FB5A
:1008F00094F91C2094F91810054602F02DFB7100A4
:100900002846256102F044FB094B0393094B0193F0
:100910006946002304F50E700293009409F086F8EE
:10092000039B13B19B686846984704B070BD00BF35
:1009300044460200D90A01000B6803604B6843601B
:100940008B688360704738B5D0F82C3214461A444F
:10095000B2F5807F88BFC3F58074054600F59670B8
:100960002246184410F07EFAD5F82C322344C5F8FC
:100970002C32204638BD10B50446406910B10368DA
:10098000DB689847206920B14821BDE8104006F097
:100990009DBB10BD38B5044640690D4608B102F054
:1009A000ABF9206920B12946BDE8384002F0EEBA23
:1009B00038BD07B581F001010091D0F82C32016AF1
:1009C00000F59672406902F0C5F9002814BF0220B4
:1009D000002003B05DF804FB70B5C2B083F00103E2
:1009E000009302AE0446154613464900324640695C
:1009F00002F0D1F9B0B9A84211D0D4F82431D4F81A
:100A000028210133DBB2934207D0D4F82421315C92
:100A1000224482F82410C4F824310130EBE7C0B23C
:100A200042B070BD0020FBE710B4D0E9013401688A
:100A30006210E40701EB020048BF8A585DF8044BDE
:100A400048BFD3581847000073B54FF47A73002598
:100A5000C0E90153174B03600446C0E906124FF486
:100A600080722946243010F0FBFA134BC4F8383258
:100A70002946C4F82451C4F82C52C4F82851C4F8AB
:100A80003052C4F83452C4F8485204F51E7006F0CF
:100A900027FD04F50E7604F5237006F0BFFC304602
:100AA00000952B464FF48052182108F0B3FF2046E2
:100AB00002B070BD58460200E45E0200D0F800317A
:100AC000D0F80401181A48BF00F58070704708B5C7
:100AD0002430FFF7F3FF08BDF0B5044685B000F100
:100AE00024050026206902F05AFA012821D0F9DBFA
:100AF0000328F7DCC4F82461C4F828611022694691
:100B0000206902F04EFA0022824221DAD4F8243120
:100B1000D4F828110133DBB28B4208D0D4F8241169
:100B20001DF80270214481F82470C4F82431013288
:100B3000EAE7D4F8343203B19847D4F82C2220697C
:100B400004F5967102F02FFA206902F034FAC9E731
:100B50001028D3D82846FFF7B1FF0028F4DDD4F8D9
:100B60003072002FF0D02846FFF7A8FFB847EBE718
:100B700010B504462430FFF7A1FF98B1D4F828211E
:100B8000D4F824319A421BBFD4F828311B194FF0F6
:100B9000FF3093F824001FBFD4F828310133DBB2B3
:100BA000C4F8283110BD000010B500F056F8122826
:100BB0008ABF1B4B4FF0FF3493F9204100F04DF8F2
:100BC000132888BF164B17488CBF93F930214FF07C
:100BD000FF322146FFF738FF134A1449114806F047
:100BE00040F800F03AF81E288ABF0D4B4FF0FF3452
:100BF00093F9E04100F031F81F2888BF084B0C48FA
:100C000088BF93F9F021214698BF4FF0FF32FFF7DC
:100C10001BFF054A05490648BDE8104006F021B80B
:100C2000040200208010002000020020B108010012
:100C30007413002030B5A1F11004002500F00F025C
:100C4000D3B2092ACCBF373330338B73CD7302391B
:100C50008C424FEA1010F1D130BD222070470000C5
:100C600030B5012185B0192001F0C0FB0121192008
:100C700001F0F8FB204A0023D3604FF080420121AD
:100C8000C2F85C3503F1804303F588334FF48032BA
:100C9000C3F848232120C3F8082301F0A7FB012152
:100CA000202001F0A3FB0121212001F0DBFB012129
:100CB000202001F0D7FB114B01221A60104A136863
:100CC000002BFCD00F4B0024C3F80045C3F80045AF
:100CD0000D4B0FCB6D4685E80F00234620464FF0A5
:100CE000FF3155F823200133042BC2F80005C2F868
:100CF0006015F6D105B030BDF0ED00E004200040F5
:100D00004421004000200040A446020038B54FF0C6
:100D1000805504462146D5F8A800FFF78BFFD5F88B
:100D2000A40004F11001FFF785FF202038BD00006A
:100D300072B64FF08043B022C3F81C25BFF34F8F2B
:100D40000549064BCA6802F4E0621343CB60BFF367
:100D50004F8F00BFFDE700BF00ED00E00400FA0583
:100D6000C3680BB19B681847704710B5044680698B
:100D700020B10368DB6898470023A36110BD70476A
:100D800001207047D0F82031D0F82401181A48BF4C
:100D900000F580707047D0F82421D0F820319A42B5
:100DA0001DBFD0F82431C01890F820004FF0FF305C
:100DB0007047D0F82421D0F820319A420CD0D0F8D6
:100DC0002431034493F82020D0F824310133DBB2DE
:100DD000C0F82431104670474FF0FF30704770B5AF
:100DE00003681446DB690546984704F47063B3F55D
:100DF000407F04F0F0030CBF0721082104F00F022C
:100E0000302B0CBF02230123012A07D0901E42423F
:100E10004241A869BDE8704002F00CBA0222F8E72E
:100E20007FB5836904460E4663B94FF4807006F0BF
:100E300027F93346054694F91D2094F91C1002F059
:100E400093FCA56194F91E20531C05D094F91F3022
:100E5000A069032102F098FCA06970B1084B0393CC
:100E60000022084B019369460094029202F01BFA9B
:100E7000039B13B19B686846984704B070BD00BFE0
:100E8000B4460200890E010013B50446A06902F0C1
:100E9000E8F9C0B1A069036801225B690DF107019F
:100EA0009847D4F82031D4F824210133DBB293429F
:100EB000ECD0D4F820219DF80710224482F82010AD
:100EC000C4F82031E2E702B010BD13B504468DF836
:100ED0000710A06902F0D6F90028FAD0A0690368CB
:100EE00001221B690DF107019847013018BF01204D
:100EF00002B010BD70B504460E461546A06902F05A
:100F0000C1F90028FAD0A069D0F8FC3001211B6B90
:100F1000FC309847A06903682A461B693146984708
:100F2000431C14BF2846002070BD10B4D0E9013422
:100F300001686210E40701EB020048BF8A585DF8BF
:100F4000044B48BFD358184770B5FFF786FE50B31F
:100F5000164B93F90060164CFFF77FFE012888BFFF
:100F6000124B4FF000054FF47A7288BF93F910309E
:100F70002677C4E901520F4A226098BF4FF0FF3331
:100F80002022C4E9052563774FF48072FF232946A8
:100F900004F12000A377E37710F062F8C4F8205141
:100FA000C4F8245170BD4FF0FF36D4E7040200208E
:100FB00068160020C846020000207047704770473E
:100FC00010B5D0F88C452CB1236820465B68984753
:100FD000A468F8E710BD38B5D0F88C450D4634B19B
:100FE000236820469B6829469847A468F7E738BDE0
:100FF000004870478847020010B5054B036004465F
:1010000003F0BDFE204603F0D3FE204610BD00BF16
:101010000847020010B50446FFF7EEFF20464FF4E4
:10102000B26106F053F8204610BDF7B5D0F88C45F4
:1010300005460E460023A4B123683146DF680DF152
:10104000030201AB2046B8479DF80310042903466C
:1010500005D0019A284603F0EFF803B0F0BDA4686C
:10106000E9E7019A9DF80310F4E770B505460E46CE
:1010700022B10021BDE8704002F0D4BED0F88C450A
:101080005CB1236800221B6931462046984710B1A5
:1010900001212846EEE7A468F2E72146F9E770B59A
:1010A000D0F88C450E46054600213CB123683146F8
:1010B00020465B699847A4680146F6E72846BDE8E4
:1010C000704002F0AFBFF8B5D0F88C4505460E462B
:1010D00017463CB1236820469B693A4631469847FB
:1010E000A468F6E728460121BDE8F84002F0F8BF01
:1010F00070B5002186B0044603F09AFA0023ADF8DB
:10110000063023898DF810301B0AA188E2888DF8FB
:1011100011304FF4897540F20123ADF80450ADF859
:101120001230022540F20313EF268DF807508DF898
:1011300009508DF80C100125090A8DF80E20ADF824
:101140001430120A04F10A038DF808608DF80A5071
:101150008DF80B008DF80D108DF80F2001AD05AE48
:101160001C462A4603CAB24218605960154603F16C
:101170000803F6D112881A80204606B070BDF8B573
:10118000002406460D462746304610F039FBA042A3
:1011900007D9335D05F8143005EB440301345F7063
:1011A000F2E7400000F0FE00F8BD38B5D0F88C55ED
:1011B000044635B12B6828461B6A984710B9AD68BC
:1011C000F7E7284640F20233A4F8483504F24A51C2
:1011D000FFF7D5FF94F84835184484F8480504F51E
:1011E000A96038BD40F2023310B500F20A5104463E
:1011F000A0F808350548FFF7C2FF94F808351844F1
:1012000084F8080504F5A16010BD00BFF446020093
:1012100040F2023310B50446A0F8C83400F2CA40C8
:10122000FFF774FD94F8C834184484F8C80404F532
:10123000996010BD2DE9FF4100238DF80A3090F828
:1012400088351B4A8DF80830012301928DF809304A
:101250003222C0238DF80B308DF80C2001AB0446F0
:1012600000F54E7803CBC4F83803C8F8041088F8AA
:101270000820D4F88C6509258EB1336800211B68DD
:1012800030469847478805F54E73093F00F109013C
:101290003A46E0180FF0E6FD3D44B668ECE784F806
:1012A0003A5340462D1284F83B5304B0BDE8F08118
:1012B0000902FFFF73B504460D46164608F034FEDA
:1012C0004FF480730093014633462A46204603F0CC
:1012D00077F9024B2360204602B070BD0847020038
:1012E000D0F88C356BB9C0F88C1590F888350B7137
:1012F00090F888354A79134480F888350120704782
:1013000013469A68002AFBD19960EEE71FB50446A0
:1013100003F050F90146684602F0F2FA40216846AF
:1013200002F05EFBD4F88C4534B123682046DB69BB
:1013300069469847A468F7E7684602F0E8FA04B0FF
:1013400010BD10B50446FFF7E1FF2046BDE8104090
:1013500003F0A0B810B50D4C2378BFF35B8FDB070B
:1013600012D4204605F090FC70B148F25A0242F2C5
:1013700041310748FFF79EFF204605F0A7FC054ACC
:101380000549034805F06DFC014810BD9417002085
:101390009817002000020020F90F010010B5FFF798
:1013A000D9FF0368BDE810405B6F184710B5FFF721
:1013B000D1FF0368BDE810409B6F184710B5FFF7D9
:1013C000C9FF0368BDE81040DB6F184702F056BC48
:1013D00002F018BC02F042BC704770477047436A85
:1013E00093F870007047D0F89C047047004870472D
:1013F000D44802002DE9F04F044697B00F464B2227
:10140000002103A80FF02CFED4F89C34267994F820
:101410000EA094F80C90002B06F10105637B01935C
:1014200014BF05200020EDB2002F40F0978040F25D
:101430000923ADF80C304FF48173ADF810308023E0
:101440008DF8133032238DF8143008238DF81530C1
:101450000B2301218DF816308DF8250040F2022370
:1014600042F205404FF0240C4FF0090E04274B22A6
:10147000ADF818308DF8211002238DF82410ADF846
:1014800026004FF0100805208DF82A108DF82D1039
:101490008DF82F104FF0030B06218DF80E208DF8DC
:1014A00017608DF81A308DF81DE08DF81F608DF8EB
:1014B00022308DF823308DF82B008DF82CC08DF85C
:1014C00031C08DF832308DF833108DF834008DF83E
:1014D00035C08DF81E708DF829808DF82EB08DF8EE
:1014E00030708DF8361007218DF839108DF84910BD
:1014F00044F20201ADF84C1040F20751ADF8501023
:101500001D349DF804108DF837608DF838508DF833
:101510003A008DF842508DF84A008DF852108DF83F
:10152000533044F20306402340F6022503A9204627
:101530008DF83BA0ADF83C608DF83F808DF840E021
:101540008DF84170ADF844508DF84B908DF85430C3
:101550000FF088FC204617B0BDE8F08F0020FAE7B6
:101560000A4B10B503600446FFF7F4FE03F007FCD6
:1015700004F5227002F0CEFA04F1740002F0CAFA07
:1015800004F1680002F0C6FA204610BD9848020037
:1015900010B50446FFF7E4FF20464FF4946105F0D0
:1015A00095FD204610BDFFF709BF000010B5034BA5
:1015B0000360044602F02CF9204610BDD04702001B
:1015C00010B50446FFF7F2FF2046282105F07EFD06
:1015D000204610BD10B5034B0360044602F018F915
:1015E000204610BDA047020010B50446FFF7F2FFE9
:1015F0002046342105F06AFD204610BD10B5034B8E
:101600000360044602F004F9204610BDB84702000A
:1016100010B50446FFF7F2FF2046382105F056FDCD
:10162000204610BD38B51D4B0D461968C0F80F1087
:1016300099889B7943750446A0F813104022022133
:10164000284602F0C3F9402220730221284602F006
:10165000C2F9402260730321284602F0B7F9A07353
:10166000284602F055F920B9B6220D490D4804F07C
:10167000E1FE04F17D020023C4F8802204F29122ED
:1016800084F8703084F87C30C4F8843284F8903266
:10169000C4F89424C4F8983438BD00BFEC47020065
:1016A000284802007E4802002DE9F34104460E4618
:1016B0001546FFF783FEF28823799A4237D1002D31
:1016C00035D17778012F2ED1F378202B27D132898D
:1016D000072A24D104F10F0804F1160529464046D3
:1016E0000FF08EFBD0B1D4F81630C4F80F30207C48
:1016F000E17B638BA4F8133001EB0021607CE57C77
:10170000237F009501EB00412568A07C637501EB08
:101710000061237D627D2D6B2046A8473D46F3780E
:10172000212B08BF0125284602B0BDE8F081002525
:10173000F9E710B50446FFF741FEFFF70BFE217BEA
:1017400003F0BAF904F17D03C4F880320023C4F831
:10175000843284F87C3004F1740002F090F994F83B
:101760007C302BB9236820469B6BBDE8104018479E
:1017700010BD000070B50446FFF720FED4F8985461
:101780002DB14FF4F1720F490F4804F053FE04F2EB
:101790009123C4F89434FFF7DDFD617B03F0EAF890
:1017A00084F89052C4F8980404F5227002F067F9A6
:1017B00094F890322BB9236820465B6BBDE87040EB
:1017C000184770BD28480200F847020010B4D0E95D
:1017D000013401686210E40701EB020048BF8A5837
:1017E0005DF8044B48BFD35818470000F0B50446D5
:1017F00087B002ADFFF7E2FD0026FFF7ABFDA17B4E
:10180000009503234022059602F05EFE2846FFF76E
:10181000A7FAFFF79FFD164B217B164F009540223C
:10182000CDE9033602230597029402F04DFE2846C7
:10183000FFF796FAFFF78EFD0F4B617B0095402274
:10184000CDE9033602230597029402F03DFE2846B7
:10185000FFF786FAFFF77EFD4FF40073D4F8942467
:10186000617B03F029F8012084F8900207B0F0BDF5
:1018700033170100E04702007517010038B5022355
:101880004371002383600C4B044640F8683B1546C7
:1018900002F0E8F804F1740002F0E4F804F52270B4
:1018A00002F0E0F8C4F89C54FFF754FD2146FFF71E
:1018B00017FD204638BD00BF9848020070B50446A9
:1018C0000D46FFF77BFD84F87050002D3ED194F853
:1018D0007C3033B1FFF73EFD217B02F0C5FE84F87A
:1018E0007C5004F17D0304F1740600253046C4F8F1
:1018F0008032C4F8845202F0C2F8304602F0B8F8E0
:1019000028B91549154840F2491204F093FD94F89E
:10191000903233B1FFF71EFD217B02F0A5FE84F863
:10192000905204F29123C4F8943404F522750023F4
:101930002846C4F8983402F0A2F8284602F098F835
:1019400020B940F2531204490548DEE704F168006B
:10195000BDE8704002F093B8284802000648020033
:101960001748020010B50446FFF728FD2046002165
:10197000BDE81040FFF7A2BF38B50D460446FFF79B
:101980001DFD042D05D020460021BDE83840FFF79D
:1019900095BF38BDF8B5154604460E461F46FFF7FD
:1019A0000DFD04232B70F28823799A421DD17178A2
:1019B00001291AD1F278212A08D0222A0BD0202A14
:1019C0004FF0000013D12870163401E029700F3455
:1019D0003C600720F8BDB38813F0010308BF194627
:1019E0002046FFF76BFF02232B700020F2E7032352
:1019F0002B70EFE710B58AB00446FFF7CFFC6846BE
:101A000001F0FAFE0A4B0093694604F1680009945C
:101A100002F04DF82046FFF7C9FC064B00211A687A
:101A2000684601F033FF6846FFF7C0FD0AB010BDFD
:101A3000D0470200F447020070B58EB01546044648
:101A40000E46FFF7ABFC01A801F0D6FE0E4B0C953D
:101A500001A9002504F174000193CDE90A468DF82F
:101A6000345002F024F82046FFF7A0FC074B29462B
:101A70001A6801A801F00AFF01A89DF83440FFF799
:101A8000A9FD20460EB070BDA0470200F447020039
:101A900010B50446FFF792FC94F87C307BB9D4F87B
:101AA000843263B1FFF756FCD4F88432217B04F111
:101AB0007D0202F09FFF10B1012384F87C3010BD3D
:101AC0002DE9F8431E460446894690469DF820704D
:101AD000FFF764FC0023336094F87030E3B194F8AE
:101AE0007C30CBB9D4F88452C5F50075454528BF84
:101AF0004546B8F1000F05D02A464946D4F8800281
:101B00000FF0B0F9D4F884322B44C4F88432356035
:101B100017B12046FFF7BCFF2046BDE8F843FFF7AA
:101B200045BCF0B50446406A90F8705085B0012677
:101B30002DB984F830503546284605B0F0BD04ABC9
:101B4000002743F8047DD4E90A120096FFF7B8FF96
:101B50000399E36AA26A5B1A0A44E362A26213B9B8
:101B600084F83060E8E7606AFFF792FF3D46E3E7FC
:101B70002DE9F0431C4691B0904606468946FFF792
:101B80000DFC002C08BF01AC4FF00005256002A839
:101B90000CBF0127002701F02FFE104B029302A972
:101BA00006F52270CDE90D84CDE90B698DF83C7006
:101BB0008DF83D5001F07BFF3046FFF7F7FB084BF7
:101BC00029461A6802A801F061FE02A89DF83D406E
:101BD000FFF714FD204611B0BDE8F083B8470200BE
:101BE000F447020010B5D0F89834044673B990F861
:101BF00090325BB9FFF7AEFB4FF4007304F2912211
:101C0000617B02F059FE012384F8903210BD70B55B
:101C10001E4604460023336094F870300846EBB14A
:101C200094F89032D3B9D4F89854D4F894149542D7
:101C300028BF15462A460FF015F93560D4F89434BC
:101C4000D4F898242B44551BC4F89434C4F8985401
:101C500025B92046BDE87040FFF7C4BF70BD37B559
:101C60000446406A90F870502DB984F8355001252B
:101C7000284603B030BD02AB002243F8042DD4E95E
:101C80000A12FFF7C4FF0199A26A0A44A262226BFA
:101C900013680B441360E36A01995B1A94F83410DB
:101CA000E36209B9126802B91BB9012384F835301F
:101CB000DEE7606AFFF796FF0025D9E76FF01500B1
:101CC000704700290CBF6FF01800002070470120FA
:101CD00070476FF0150070476FF0150070471120C6
:101CE000704770477047704703685B6C1847A0F5F2
:101CF0009760F9E7704770477047704790F8700039
:101D00007047A0F5976090F87000704770470368BF
:101D10001847000038B500F013FB094D044695F84C
:101D200070301BB1012000F01DFBF8E700F008FB4C
:101D3000001BC728F6D9BDE83840FEF7F9BF00BF41
:101D4000281D00204FF0FF3103F017B907B502AB93
:101D5000012243F8041D1946FFF76EFE18B10198E1
:101D600003B05DF804FB4FF0FF30F9E7A0F5946095
:101D7000FFF7ECBF07B502A9002301F8013D0122DE
:101D8000FFF7F6FE20B19DF8070003B05DF804FBF5
:101D90004FF0FF30F9E7A0F59460FFF7EBBF2DE9B6
:101DA000F04104460D4616461F46DDF81880FFF741
:101DB00005FBD4F88C463CB143463A4631462846AA
:101DC000A446BDE8F0416047BDE8F08170B5064625
:101DD000FFF7F4FA06F5D2640025D6F8D036AB4208
:101DE00008D92046103454F8043C1BB11B689847AE
:101DF0000135F2E770BD90F8703013B10368DB6B0A
:101E0000184718467047A0F59760F4E7B0F5966F4D
:101E100010B511D10421094803F027F9044658B13F
:101E2000074B0360074903F0C0FA224606490348FE
:101E3000BDE8104003F0D7B910BD00BFFC2300205F
:101E4000151D01000D1D01000F1D010010B4D0E98A
:101E5000013401686210E40701EB020048BF8A58B0
:101E60005DF8044B48BFD358184710B4D0E901348B
:101E700001686210E40701EB020048BF8A585DF870
:101E8000044B48BFD3581847134B03F1740270B585
:101E90000360C0F8A02403F1D402E4330446C0F880
:101EA000A424C0F8B83400F5D26600F5DA65AE4275
:101EB00004D0103D2846FEF753FFF8E704F5BA605A
:101EC00007F03AFE04F5946003F056FF2046FFF752
:101ED00047FB204670BD00BF0C490200A0F594608E
:101EE000FFF7D2BFA0F2A440FFF7CEBF10B5044663
:101EF000FFF7CAFF204640F2D46105F0E7F820461C
:101F000010BDA0F2A440FFF7F1BFA0F59460FFF769
:101F1000EDBF00007FB50446FFF740FA1F4BC4F841
:101F20008C362046FFF742FA1D4B03931D4B01935D
:101F30002046002300940293FFF730FAD4F8D056DD
:101F4000032D13D805F169066B1C04EB0616C4F8C3
:101F5000D0363046FEF704FF04EB0515039BC5F8A9
:101F60009C361BB15B686946304698472046FFF7B0
:101F70001DFA6846FEF7F4FE0B4B03930B4B0093E0
:101F80000B4B01936946002304F5BA60029307F0F6
:101F90004DFD6846FEF7E4FE04B070BD0D1E010065
:101FA000F8480200B1200100EC480200FC230020A8
:101FB000451D0100A0F59760FFF7ACBFF7B50446DB
:101FC0001F4615460E4607F0AFFFBDF824300193BB
:101FD000BDF8203000932A463B4601462046FFF7D5
:101FE0004DFC002104F5946003F09CFE4FF47A73DD
:101FF000C4F8C034224B236003F174020025C4F8F6
:10200000A02403F1D402E433C4F8A424C4F8B834FF
:102010004FF480722946C4F8BC5404F599600FF05F
:102020001FF8184BC4F8D0352946C4F8C855C4F871
:10203000E055C4F8CC5504F5C26005F051FA04F53A
:10204000BA6704F2246005F0E9F900952B464FF4D5
:1020500080521821384607F0DDFCC4F89C56C4F8BD
:10206000AC56C4F8BC56C4F8CC56C4F8D056C4F824
:102070008C5616B12046FFF7BDFC204603B0F0BDDC
:102080000C490200E45E020038B50546FFF786F908
:1020900095F8903253B9D5F89844FF2C28BFFF2407
:1020A000E4B22846FFF782F9204638BD0024F8E75D
:1020B00010B50446D4F8C825D4F8CC359A42ADBF43
:1020C000D4F8C835D4F8CC35D4F8C825D4F8CC2504
:1020D000ABBFC3F1FF039B1A9B1803F1FF33BBB1E6
:1020E0002046FFF7D1FF98B1236820461B6C984724
:1020F000D4F8C835D4F8CC250133DBB29342D9D01B
:10210000D4F8C825224482F8C804C4F8C835D1E7F9
:1021100010BD10B50446FFF7CBFFD4F8CC25D4F89A
:10212000C8359A421BBFD4F8CC35E4184FF0FF30C5
:1021300094F8C80410BDA0F59760EAE710B504460E
:10214000FFF7B6FFD4F8C805D4F8CC35C01A48BF9D
:1021500000F5807010BDA0F59760EFE710B504465C
:10216000FFF7A6FFD4F8CC25D4F8C8359A421BBF98
:10217000D4F8CC351B194FF0FF3093F8C8041FBFBB
:10218000D4F8CC350133DBB2C4F8CC3510BDA0F5A2
:102190009760E3E790F870007047000037B5104C87
:1021A000104D00226821204602F0CEFE2A460E493C
:1021B000204604F056FD0D4C42F212030122CDE9F7
:1021C0000032002211464FF4F8532046FFF7F6FE86
:1021D00007492A46204603B0BDE8304004F041BD1F
:1021E000FC23002000020020674F0100281D002072
:1021F000891E010008B50DF06DFC2DE9F843064677
:102200000D46071D00F10709002417F8011B0A22DB
:10221000284600F071F82E218046284600F03FF84D
:102220004F4540440444F0D10A22F179284600F099
:1022300063F82044BDE8F883024B034A1A60002289
:102240005A60704758240020244A02002DE9F041CA
:1022500006460D4601EB02080C464445A4EB050773
:1022600007D0336814F8011B1B68304698470028D4
:10227000F3D13846BDE8F08170B5044608460D46F6
:102280000FF0BEFA23680246294620465B68BDE887
:102290007040184709B1FFF7EFBF08467047036861
:1022A0001B68184770B58AB00D460AA9002301F8CB
:1022B000043D012A98BF0A22B5FBF2F402FB145632
:1022C000F3B2092E94BF30333733DBB2254601F821
:1022D000013D002CF0D1FFF7DDFF0AB070BD10B456
:1022E0002AB903685DF8044B1B68C9B21847D2B21B
:1022F0005DF8044BFFF7D6BFFFF7F1BF10B500F054
:1023000033F8FEF7ADFCFFF725F8FFF71AF84FF4A6
:10231000E1310648064CFFF7FDFDFEF777F8FEF7C2
:1023200059F8002CFBD0AFF30080F8E7281D0020FF
:102330000000000010B5044601F0DFF8204610BD93
:1023400007B50749684601F015F94FF47A72002382
:10235000DDE900010DF0EEF903B05DF804FB00BF0C
:102360006024002007F0F0BA014801F0D0B800BFA7
:102370006024002010B5054C204601F038F92046B5
:10238000034A0449BDE8104004F06BBC60240020FF
:10239000000200203523010008B590F900305A1CD6
:1023A00004D120220E490F4804F044F8012259B10B
:1023B0001F2B86BF03F01F030B494FF0A04102FA09
:1023C00003F3C1F8083508BD1F2B86BF03F01F03B8
:1023D00005494FF0A04102FA03F3C1F80C35F2E7CA
:1023E000284A0200A54A0200000300502DE9F041EE
:1023F0001B4D0601AB198046DC680F469CB9FEF701
:102400002CFC80454FF0010034BF15F906804FF0D9
:10241000FF3804F035FE354400230446037041467E
:1024200003F0A3F8EC60012F10D006D3022F12D0D6
:10243000204600F008FC012103E0204600F003FCE8
:1024400000212046BDE8F04100F00ABC2046BDE86E
:10245000F04100F0EBBB204600F0F5FB0321F0E774
:10246000040200202DE9F34107468846FEF7F5FBFC
:10247000874221D2124C3E01A319DD68ADB9FEF7A7
:10248000ECFB87424FF0010034BFA7574FF0FF37F6
:1024900004F0F6FD34440023054603700122CDF814
:1024A0000080394603F06BF8E5604146284602B0EB
:1024B000BDE8F041FFF770BF02B0BDE8F08100BF9A
:1024C00004020020064B10B504460360806A08B180
:1024D00003F0CEFA201DFEF743FC204610BD00BFDE
:1024E000144C020010B50446FFF7ECFF2046802193
:1024F00004F0ECFD204610BDCB68C3600BB15B68F7
:1025000018477047C36810B52BB9054905484FF403
:10251000FD7203F08FFFBDE810401B68184700BF35
:10252000BD4A0200DB4A0200F8B50546064655F8EA
:10253000044B8CB90D4F386818B14FF0FF3106F0DD
:102540002FFB346824B9284604F068FF2C46356018
:10255000386808B106F03CFBAC4204D00449054899
:102560008B2203F067FF2046F8BD00BF20AD00209E
:10257000E74A0200094B0200036801221B6900219F
:102580001847036800221B691146184780F84C134E
:102590000020704780F850120020704790F84C03DC
:1025A000704790F850027047002070470120704734
:1025B0006FF01C00704737B500F546750446284695
:1025C000019104F033FF0199204600F004FF2846F2
:1025D00004F04AFF002003B030BDA0F1FC00FFF77B
:1025E000EABF37B500F5467504462846019104F068
:1025F0001DFF0199204600F037FF284604F034FF04
:10260000002003B030BDA0F1FC00FFF7EABF10B41A
:10261000D0E901320168541001EB6200D20748BFD3
:102620000A595DF8044B48BFD3581847002070473B
:10263000012070476FF01C00704700000C4B10B574
:10264000036048330446C0F8FC30D0F8540310B19E
:1026500003685B68984704F54F70FEF781FB04F54B
:10266000467004F01BFF204600F068FE204610BDB7
:10267000404B0200A0F1FC00FFF7E0BF10B504469C
:10268000FFF7DCFF20464FF4567104F01FFD204693
:1026900010BDA0F1FC00FFF7F1BFD0F8540308B55E
:1026A00020B100F08AFC003818BF012008BD30B509
:1026B000002585B02A4669460446039500F0F3FDDF
:1026C0006846FEF74DFB84F84E5305B030BD30B57B
:1026D00085B00025012269460446039500F0E3FD1C
:1026E0006846FEF73DFB84F84D5305B030BD10B58C
:1026F000044603F09FFFD4E940239A420ABF94F8AE
:102700000841002484F0010403F0AAFF204610BD14
:1027100038B500F546750446284604F087FE04F5F2
:1027200003742046FFF7E3FF48B9284604F09CFEF7
:10273000012004F0E1FD284604F078FEF1E7284688
:1027400004F092FE002038BDA0F1FC00FFF7E0BFCE
:1027500038B5054600F58070FFF7C9FF80F0010429
:102760002846E4B2FFF799FF18B144F4005420461C
:1027700038BD03F05FFF95F8145303F071FF002D8F
:10278000F5D144F01004F2E7A0F1FC00FFF7E0BF40
:1027900070B504460D4603F04DFF03F04BFF94F86F
:1027A000086103F05DFF56B1D4F80431FF2B03F14B
:1027B00001020ABF0023C4F80421C4F80431D4F88C
:1027C0000021531CC4F800312978A154B3F5807F4F
:1027D00004BF0023C4F80031D4E940239A4204BF67
:1027E000012384F80831BDE8704003F039BF38B5E3
:1027F00004460D4603F01EFF2046FFF778FFB0B9F0
:10280000D4F804315A1CC4F80421E35C2B70D4F8CA
:102810000431B3F5807F4FF0000308BFC4F8040112
:1028200084F80831012403F01BFF204638BD002442
:10283000F9E7000010B586B00446684680E80C0051
:1028400006A800E90C00039110E90700034BE360C0
:1028500084E80700204606B010BD00BF2C4B0200E4
:1028600030B587B000250B4B009304462B4601463C
:10287000084A019502A8FFF7DDFF2A4602A9204673
:1028800000F011FD02A8FEF76BFA012384F84E3325
:1028900007B030BD8B29010038B5044600F086FC36
:1028A000114B002503F1080250332260C4F8FC30BC
:1028B000C4E98055C4E9C35584F8085284F8145318
:1028C00004F5467004F0AAFD084BC4F84C3301230C
:1028D0002046C4F8485384F85033C4F85453FFF7E3
:1028E000BFFF204638BD00BF384B02000100000189
:1028F00010B586B00B4B0093044600230146094AED
:10290000019302A8FFF796FF012202A9204600F0DA
:10291000CAFC02A8FEF724FA012384F84D3306B05E
:1029200010BD00BFA92A010070B504460D4604F58C
:102930004F7603F07FFEAE420AD03046FEF710FA23
:10294000EB68C4F848331BB15B68294630469847AA
:10295000D4F8483343B147F6FF712046FFF7F8FE3D
:1029600010B13046FFF7CEFDBDE8704003F078BEF1
:10297000A0F1FC00FFF7D8BF08B5D0F848331BB171
:1029800000F54F70FFF7BEFD08BDF7B500F5807587
:1029900004462846FFF7ABFE064603F04BFE94F8CC
:1029A000087203F05DFE77B9204600F05AFC50B182
:1029B000204600F0FDFC0DF107018DF807002846C8
:1029C000FFF7E6FEE9E794F84E334BB103F032FE31
:1029D00094F8087203F044FE17B12046FFF767FE33
:1029E0004EB12846FFF783FE28B9204603B0BDE864
:1029F000F040FFF7C1BF03B0F0BD2DE9F743064635
:102A000089461546002A49D000F54677384604F035
:102A10000DFD06F580784046FFF769FE044698B143
:102A200096F84C33384633B904F01EFD6FF00A00B7
:102A300003B0BDE8F08304F017FD012004F05CFC56
:102A4000384604F0F3FCE6E709EB04014046019147
:102A5000FFF74DFE30B9019940460134FFF7C7FE3C
:102A6000A542F1D103F0E6FD96F850337BB196F81C
:102A70004E3363B93046FFF788FF03F0DBFD96F86D
:102A8000085203F0EDFD15B93046FFF7E9FE03F0FB
:102A9000E7FD384604F0E8FC2046C9E71046C7E7E2
:102AA000A0F1FC00FFF7A9BF73B5044603F0C2FD17
:102AB00094F8145303F0D4FD04F50376204600F097
:102AC000E1FB58B10DF107013046FFF790FE28B148
:102AD0009DF80710204600F06EFCEFE794F84D33A8
:102AE0003BB104F50370FFF702FE10B12046FFF77B
:102AF000EEFD6DB103F09EFD94F8145303F0B0FDAC
:102B000035B92046FFF7C9FD10B92046FFF734FF5D
:102B100002B070BDF8B505460C46164600F50377C1
:102B20003846FFF7E4FD40B1A719BC4209D014F8BC
:102B3000011B284600F03FFCF7E72846FFF7B4FFEB
:102B4000EEE73046F8BD2DE9F84F05460F4616462C
:102B5000002A65D003F06BFD044630B13246394699
:102B60002846BDE8F84FFFF7D5BF05F5467948463A
:102B700004F05CFC05F5037A03F05CFD95F8148322
:102B800003F06EFDB8F1000F14D1A7EB0408A642C4
:102B900008EB040724D903F04DFD95F814B303F0B6
:102BA0005FFDBBF1000F1BD139465046FFF7F0FD2A
:102BB0000134ECE795F84C3343B3484604F054FC39
:102BC000012004F099FB484604F030FC03F032FD8C
:102BD00095F8148303F044FDB8F1000FEDD1D4E76C
:102BE00003F028FD95F84F3363B195F84D334BB999
:102BF0002846FFF759FF5046FFF779FD10B92846E0
:102C0000FFF776FE03F02CFDA642B5D8484604F047
:102C10002BFC002C14BF20466FF00A00BDE8F88F93
:102C20001046FBE7A0F1FC00FFF78DBF07B5019050
:102C300003F000FD0198012107F04CFE03B05DF8A0
:102C400004EB03F00DBD07B5019003F0F3FC019810
:102C5000002107F03FFE03B05DF804EB03F000BD78
:102C600007B5CDE9001003F0E5FCDDE9001007F041
:102C70000FFE03B05DF804EB03F0F2BC416830B422
:102C8000034671B1D0E9032000F0010402B944B158
:102C9000451001EB60000CB149598A58996830BC65
:102CA000104730BC7047000008B5431C04D10F49E1
:102CB0000F48202203F0BEFB012359B11F2886BF15
:102CC0000C4A00F01F004FF0A04203FA00F0C2F8D7
:102CD000080508BD1F2886BF064A00F01F004FF0F8
:102CE000A04203FA00F0C2F80C05F2E7D04B020054
:102CF000A54A020000030050036870B504460D4663
:102D00001B68984704F13000A567294607F0F4FED8
:102D1000034B1C60236820465B68BDE87040184781
:102D2000A0240020036870B5094D1B68044698472D
:102D30002B68A34205D0A16F04F1300007F0DCFE40
:102D40002C60236820465B68BDE87040184700BFD0
:102D5000A02400207FB51D4603680446CDE902216A
:102D60001B6898472046FFF7DDFF9DF8203083F071
:102D70000103DDE90221009304F130002B4607F046
:102D800017FF236806465B6820469847A81B18BFB4
:102D9000012004B070BD7FB51D4603680446CDE92F
:102DA00002211B6898472046FFF7BCFF9DF82030A2
:102DB00083F00103DDE90221009304F130002B468A
:102DC00007F0DAFE236806465B6820469847A81B92
:102DD00018BF012004B070BD7FB500240126154640
:102DE0002346224602A800968DF8084002F0C7FB51
:102DF00003A800962346224629468DF80C4002F08F
:102E0000BEFB03A807F016FD002853D002A807F068
:102E100011FDB04202D1002004B070BD214603A8CC
:102E2000FFF71EFF03A8FFF701FF0A24002103A8F4
:102E3000FFF716FF00219DF90C00FFF735FF052075
:102E400004F05CFA032103A8FFF70AFF9DF90C00C8
:102E50000121FFF729FF052004F050FA013CE5D1DC
:102E600002A8FFF7E3FE21469DF90800FFF71CFFCB
:102E7000052004F043FA01219DF90C00FFF714FF2F
:102E8000052004F03BFA01219DF90800FFF70CFF33
:102E9000052004F033FA02A8FFF7D5FE03A8FFF7D8
:102EA000D2FE03A807F0C6FC20B102A807F0C2FCBE
:102EB0000028B0D16FF00100AEE7000008B503486C
:102EC000FFF732FBBDE8084004F0B0BA78240020D8
:102ED00008B50348FFF728FBBDE8084004F0C4BA72
:102EE00078240020F8B5184B03600D46174B43615A
:102EF000002100F130070446C0E90711C0E90911BB
:102F00001646016181854822806138460EF0A8F896
:102F10000F4BA3672046FFF7D1FF3246294684F8BE
:102F20007C5084F87D602046FFF756FF94F97D20A1
:102F300094F97C10384607F099FD064B20461C603A
:102F4000FFF7C6FF2046F8BD144C02007D2C01009F
:102F5000A0860100A024002070B504460D46164648
:102F6000002148220EF07CF832462946204607F020
:102F70007DFD2046044907F0BFFD2046012107F0F2
:102F800039FE204670BD00BFA086010007F0B4BD29
:102F9000CAB2002342F00102194607F08FBE07F0C3
:102FA0003BBE07F04BBE10B5144607F067FE001B92
:102FB00018BF012010BD07F0B7BD043007F03ABCC0
:102FC0007047416830B4034671B1D0E9032000F086
:102FD000010402B944B1451001EB60000CB149593C
:102FE0008A58996830BC104730BC704770B500F102
:102FF0004C0690F9DF2090F9DE100446304608F0C8
:10300000D1F9D4E939530DB9DA070ED55A1004EBCA
:103010006300DB0748BFA35894F8EC1048BF5D5924
:1030200094F9ED2094F9EE30A847D4F8D810304642
:1030300008F0CEFA224630460249BDE8704008F05A
:103040009FBB00BFC533010070B5044600F14C05BD
:10305000D0F8E010284602F005FDD4F8F020A2B127
:10306000D4F8E4301BB9D4F8E830D8070DD5D4F83B
:10307000F810D4F8F4304E1004EB6100C90744BFD7
:10308000A159CB5894F8EC109847D4F8D81028469A
:1030900008F09EFA224628460249BDE8704008F032
:1030A0006FBB00BFC53301002DE9F0411F46D0F8CA
:1030B000E03004460D4616462BB11749174840F23A
:1030C000271203F0B7F9164AC0E9392303681B68D1
:1030D000984784F8EC5084F8ED6084F8EE70032D86
:1030E0000BD8DFE805F0150210154FF0FF3332461C
:1030F000012104F14C0008F01DFB236820465B68A9
:10310000BDE8F041184733464FF0FF320221F0E7A7
:103110003B4632462946ECE7244C02004C4C020068
:10312000A93001002DE9F04198461D4B03601D4B6D
:10313000436000251C4B85600446C0E90555C0E985
:1031400007550F461646C360858445634564A0F85D
:1031500048506C22294600614C300DF081FF40F24E
:103160000113A4F8DC304FF47F43A4F8EC30FF23C4
:103170002046C4E93558C4E93855C4E93C55C4F87B
:10318000C45084F8DE7084F8DF60C4F8E85084F836
:10319000EE30C4F8F850FFF729FF2046BDE8F08173
:1031A0006C4C0200ED2F0100C32F0100F8B51E4B3F
:1031B00003601E4B436000251D4B856004460E4690
:1031C000C0E90555C0E907551746C36085844563C6
:1031D0004564A0F848506C22294600614C300DF03F
:1031E0003FFFC4E93557C4F8C45040F20113A4F8B6
:1031F000DC30337984F8DE30337B84F8DF304FF411
:103200007F43A4F8EC30FF232046C4E93865C4E9C5
:103210003C55C4F8E85084F8EE30C4F8F850FFF795
:1032200013FF2046F8BD00BF6C4C0200493001007E
:10323000C32F01007FB50546044655F84C6B01933A
:10324000CDE902213668B047DDE90132284603990D
:1032500008F038FA23685B68204604B0BDE8704087
:10326000184738B50546044655F84C3B1B68984747
:10327000284608F039FB236805465B6820469847D6
:10328000284638BD38B50546044655F84C3B1B6802
:103290009847284608F048FB236805465B682046A7
:1032A0009847284638BD03682DE9F34105461B6859
:1032B00016460F46984795F8DC30340103B1B6B195
:1032C00095F8DD300BB1012E11D0B8342819B84271
:1032D00006D00190FDF744FD01983946FFF70CF93F
:1032E0002B685B68284602B0BDE8F0411847B83447
:1032F00003F0A0F92C44FA68E36805F14C089AB190
:103300000BB903F033FCA74206D02046FDF728FD99
:1033100039462046FFF7F0F801223146404608F0D2
:103320003FFA03F09DF9DBE70BB103F035FC2046D3
:10333000FDF716FD0022E260EFE7000030B5164B06
:10334000036085B000252A46694604460395FFF7C9
:10335000AAFF6846FDF704FD012269462046039551
:10336000FFF7A1FF6846FDF7FBFC04F1C800FDF77D
:10337000F7FC04F1B800FDF7F3FC04F13800FDF7A9
:10338000EFFC04F12800FDF7EBFC206A08B102F025
:103390006FFB204605B030BD6C4C020010B50446F2
:1033A000FFF7CCFF2046FC2103F090FE204610BD25
:1033B0004C3008F021BA10B54C300C4608F05EFADB
:1033C000204610BD00EB0110B83008B5C3680BB142
:1033D000FFF798F808BD036870B504461B680D46F2
:1033E000984794F8DC30AB422BD065B194F8DD30CF
:1033F0004BB9A2686368511004EB6200D20744BF66
:103400006258D358984703F015F905B3D4F8C4307F
:103410005BB104F1B800FFF775F803F0A7FB0122D8
:10342000002104F14C0008F0BBF903F019F984F80D
:10343000DC5035B994F8DD301BB904F14C0008F0CC
:1034400091F8236820465B68BDE8704018472A461B
:10345000294604F14C0008F0A3F9D4F8C430002B3D
:10346000E3D003F099FBE0E7036870B504461B68FE
:103470000D46984794F8DD30AB422BD065B194F8F7
:10348000DC304BB9A2686368511004EB6200D207CC
:1034900044BF6258D358984703F0CCF805B3D4F82A
:1034A000D4305BB104F1C800FFF72CF803F05EFBE9
:1034B0000122114604F14C0008F072F903F0D0F833
:1034C00084F8DD5035B994F8DC301BB904F14C00B8
:1034D00008F048F8236820465B68BDE8704018474C
:1034E0002A46012104F14C0008F05AF9D4F8D430EE
:1034F000002BE3D003F050FBE0E7437D10B504461A
:103500001BB1037D0BB103F047FB204610BD13B583
:10351000044601A802F0B4FA637D53B9237D0BB1D0
:1035200003F024FB206902F064FAC4E900010123DE
:10353000637501A802F0ACFA02B010BD37B50446BD
:103540000D4601A802F09CFA00230022C4E90023E2
:103550006B7D4BB1286902F04CFAD5E90032C01AF4
:1035600061EB0201C4E9000101A802F091FA2046D2
:1035700003B030BD30B585B004460D4603A802F057
:103580007FFA29466846FFF7D9FFD5E90210009B6C
:10359000019A5B1842EB0002C4E9003203A802F072
:1035A00077FA204605B030BD13B5044601A802F0F5
:1035B00067FA206902F01DFA00220023C4E9000125
:1035C000C4E9022301A802F063FA02B010BDD0B52D
:1035D000002300260027C0E90067C0E9026704460F
:1035E000016102754375FFF7DFFF2046D0BD10B5BE
:1035F000044601F0E1FF002201462046FFF7E7FF05
:10360000204610BD03681B681847000010B504462B
:10361000074B236000220023C4E90223002308464D
:10362000A161C4E90433034902F05CF9204610BDEE
:10363000844C02000536010007B5009000F1080136
:10364000806902F08EF903B05DF804FB00F1080117
:10365000806902F0B3B9002070476FF01C0070471A
:103660006FF01C0070476FF0150070476FF0150089
:1036700070470120704701207047002070470020EC
:10368000704770B511F0010405468EB204D0FFF703
:10369000E8FD041E18BF0124F30605D52846FFF7F0
:1036A000F1FD08B144F01004204670BDA0F1FC000B
:1036B000FFF7E7BF10B5034B03600446FFF73EFE7C
:1036C000204610BD904C0200A0F1FC00F2E700BFC4
:1036D00010B50446FFF7EEFF20464FF4807103F06B
:1036E000F5FC204610BDA0F1FC00F1E72DE9F0410A
:1036F00006460D461746C2B102F099FF80F001035D
:1037000013F0FF0403D0336830461B68984705EB7D
:10371000070815F8011B3046FFF74DFEA845F8D104
:103720001CB1336830465B6898473846BDE8F08185
:10373000A0F1FC00FFF7DABF38B504460D4662B1D0
:1037400003681B6898472046FFF732FE28702368FD
:1037500020465B689847012038BD1046FCE7A0F181
:10376000FC00FFF7E9BF000010B50446FFF7DAFCE4
:10377000044B03F108023C332260C4F8FC302046BD
:1037800010BD00BF884C020030B5056885B0044606
:10379000CDE9022101932D68A847DDE901322046D9
:1037A0000399FFF781FC23685B68204605B0BDE8FC
:1037B0003040184730B5044685B004F1080502F0E2
:1037C00039FF29466846FEF797FE2846FDF7C8FAF6
:1037D000E0690023C4E9053308B103F0A7FE02F055
:1037E0003FFF039B13B11B68684698476846FDF787
:1037F000B7FA05B030BD0000002204494260C0E9BC
:1038000005220160C2610284704700BF5C4D020066
:10381000074B10B503608369044623B10549064888
:10382000262202F007FE0830FDF79AFA204610BD66
:103830005C4D02000C4D0200354D020070B504468F
:103840000E4602F0F7FEA56965B104F10800FDF728
:1038500087FA00230122636184F82020E36184F861
:103860002160A36102F0FCFE2DB121462846BDE88F
:10387000704000F02EB970BD08B103F0D7BD02F062
:10388000D9BE08B103F0F0BD02F0EABE2DE9F04167
:10389000044686B00E46174602F0CCFEA56902F03B
:1038A000DFFE35B301AD0021284603F019FE02F01A
:1038B000C1FED4E9068323B10F491048392202F032
:1038C000B9FDE56102F0CCFEB8F1000F0ED039462B
:1038D000284603F00DFE48B93046FFF7CDFF2046DD
:1038E0000121FFF7ABFF3046FFF7CBFF284603F07F
:1038F00020FE06B0BDE8F0810C4D0200434D0200F1
:103900000022C0E901220122016002737047704762
:103910000346007B30B1D3E90020136898428CBF86
:103920000020012070472DE9F0410468012606FAC5
:1039300001F10023271D82EA060E17F813400C42FE
:1039400004D004F030043AB1102C07D10233202BFC
:10395000F3D14FF0FF300DE0002CF7D0D0F808C0C5
:1039600042EA030506FA05F818EA0C0FEED1202CFE
:1039700002D02846BDE8F0814EEA030406FA04F4BA
:1039800014EA0C0FF5D0E1E770B50D4611462A4652
:1039900004461E46FFF7C7FF002802DA0020207306
:1039A00070BD25686368420805EB8205E988194403
:1039B0006B7906FB03136360012303FA00F1A3682C
:1039C00042EAC0100B43A360C0B2E9E713460A46BF
:1039D0000121FFF7D9BF13460A460021FFF7D4BFE4
:1039E00013B50A46019100210446FFF7EFFF019A43
:1039F0000021204602B0BDE81040FFF7ECBF0022D6
:103A0000C0E90022704770470068704700230B60D0
:103A1000436813B90160416070471960FBE70368B0
:103A20002BB11A6802B94260026000221A6018467F
:103A3000704710B50468002223468B4203D083B13F
:103A40001A461B68F9E70AB10B6813608C4204BF81
:103A50000B68036043688B424FF0000308BF42606D
:103A60000B6010BD10B50446FFF7C9FF204610BD1E
:103A700008B5FFF7C9FFB0FA80F0400908BD70B57E
:103A800005462846FFF7C0FF044678B150F8043CCD
:103A9000061F9B683046984740B12846FFF7BFFF96
:103AA00054F8043C3046DB689847EAE770BD70B5CF
:103AB00004460D46FFF7A8FFAC610646291D2046C7
:103AC000FFF7A4FF26B92046BDE87040FFF7D7BF37
:103AD00070BD70B505460C46FFF796FF064604B16B
:103AE000043421462846FFF7A4FFA64204D1284605
:103AF000BDE87040FFF7C3BF70BD10B50446204657
:103B0000FFF782FF28B150F8043C0438DB6898477F
:103B1000F5E710BD10B50446FFF7EFFF2046FFF7AD
:103B200072FF204610BD7047704703689B6D1847B1
:103B300070B586B00023CDF806308DF80A300389C1
:103B40008188C2888DF810301B0A12248DF811303C
:103B50000323022590F820638DF804408DF80C10A3
:103B60000124090A8DF80E208DF81430120A00F194
:103B70000A038DF805408DF807508DF80B608DF81D
:103B800012408DF813508DF815408DF80D108DF8FA
:103B90000F2001AC05AE1D46224603CAB242186092
:103BA0005960144603F10803F6D112881A8028469A
:103BB00006B070BD0048704744500200004870478E
:103BC0007C5002000048704748500200004870478F
:103BD0008E50020000487047745002000048704741
:103BE0005E500200036810B504465B6F9847D4F836
:103BF000EC0203681B6F9847236820469B6FBDE863
:103C00001040184738B5D0F83433012B044610D192
:103C10000025D4E9C93000F0010203B94AB14110CE
:103C2000C4E9C95504EB60000AB16258D3589847FB
:103C3000EFE7D4F834332BB90649074840F2C6629F
:103C400002F0F8FB013BC4F83433BDE8384002F021
:103C500007BD00BF6C4D0200974D020008B5D0F8BB
:103C600034332BB90349044840F2CD6202F0E2FB41
:103C700008BD00BF6C4D0200974D020010B5044610
:103C800002F0D8FCD4F834330133C4F834332BB900
:103C9000034904484FF4D76202F0CCFB10BD00BFCB
:103CA0006C4D0200974D0200036873B50446DB6F4C
:103CB0009847B4F8F8120B0A022B25D0032B56D0E4
:103CC000012B04D1236820461B6B984708B90020BC
:103CD00018E0236820461B6B98470678122EF6D111
:103CE000236820461B6B98474578012DEFD1236848
:103CF000C4F804631B6B2046984784F80853C4F843
:103D00000003284602B070BD2368C9B25B6B019105
:103D1000204698470028DAD0236801995B6B20463B
:103D2000984703780199092BD1D1236820465B6B12
:103D3000984743780199022BC9D1236820465B6BD1
:103D40009847236885785B6B019920469847C3782C
:103D5000019945EA03252368C4F804535B6B2046A8
:103D60009847C4F80003012084F80803CAE7C9B2E1
:103D70000529ACD8DFE801F0030F19232D3723689C
:103D800020469B6B98470378C4F8043323689B6BE9
:103D900020469847E5E723682046DB6B9847037881
:103DA000C4F804332368DB6BF2E7236820461B6CFE
:103DB00098470378C4F8043323681B6CE8E723684A
:103DC00020465B6C98470378C4F8043323685B6C27
:103DD000DEE7236820469B6C98470378C4F80433D9
:103DE00023689B6CD4E723682046DB6C98470378F4
:103DF000C4F804332368DB6CCAE70B78DB09137063
:103E00000B78C3F3411353700B7803F01F039370C7
:103E10004B78D3704B8893808B88D380CB88138169
:103E200070470000036870B504465B6F0D46984705
:103E300094F80C33022B05D009490A4840F23D1290
:103E400002F0F8FA084BC4F824330023C4F82833EE
:103E5000236884F8105320469B6FBDE870401847D4
:103E60006C4D0200A34D02005943010038B50368B0
:103E70000446DB6F984794F8083313B100252846B1
:103E800038BDD4F8EC0203685B6C9847D4F804237F
:103E90009042F3D8D4F80013121A0144C4F8001366
:103EA000C4F80423A2B994F80A53022384F80C330B
:103EB00045B1236884F80A239B6E04F53D712046C2
:103EC0009847DCE701212046FFF7ACFF0125D6E744
:103ED000D4F8EC02D4F820430368A2421B6C28BF3C
:103EE00022469847F2E70000036813B50446DB6FEB
:103EF000984794F81C33012B06D800230F490093F0
:103F00001A460F4802F0FEFC94F80C3323B100234C
:103F10000C4900931A46F4E794F80B33032B0BD0AB
:103F20002046FFF7A3FF38B9D4F8EC020368DB6C36
:103F300002B0BDE81040184702B010BDCE4D0200DF
:103F40000E011580F64D020038B503680446DB6F9C
:103F5000984794F80833012B3BD1D4F8045335B972
:103F600094F809330BB901252CE084F80953D4F8EF
:103F70002023D4F8EC02D4F800130368954228BF3C
:103F800015462A469B6C9847D4F80033D4F804238E
:103F90002B44551BC4F80033C4F80453002DE2D160
:103FA00094F80923002ADED194F80A53022384F8F6
:103FB0000C334DB1236884F80A239B6E04F53D71E0
:103FC00020469847284638BD01212046FFF72AFFA2
:103FD000C9E70025F6E70000036813B50446DB6F68
:103FE000984794F81C33012B06D800230B490C4842
:103FF00000931A4602F086FC94F80B33032B0BD087
:104000002046FFF7A1FF38B9D4F8EC020368DB6C57
:1040100002B0BDE81040184702B010BDCE4D0200FE
:104020000E011580036870B504465B6F0D46984716
:1040300094F80C33032B05D009490A484FF4C37296
:1040400002F0F8F9084BC4F824330023C4F82833ED
:10405000236884F8105320469B6FBDE870401847D2
:104060006C4D0200404E0200174E010010B503686F
:104070000446DB6F9847012004F21D33C4F8003377
:10408000C4F8040384F8080310BD036810B504469F
:10409000DB6F984794F81C33042B01BFB4F82E3320
:1040A000A4F8FA32012004F54C7303BFC4F80033BE
:1040B000C4F8040384F80803002010BD036810B599
:1040C000DB6F04469847042384F80C33236894F884
:1040D000F8221B6FB4F8FA1220469847012010BD51
:1040E000036870B504465B6F0D46984794F80C332F
:1040F000042B05D009490A484FF4EB7202F09AF9F3
:10410000084BC4F824330023C4F82833236884F808
:10411000105320469B6FBDE8704018476C4D02005D
:104120006C4E0200E9430100036810B50446DB6FE2
:10413000984794F81C33042B02D0B4F8FA328BBBA6
:1041400094F8F632012B0FD0022B10D053BB164B34
:1041500001221A80144BC4F8003301200223C4F852
:10416000043384F8080310BD0F4B0022F1E7B4F8C4
:10417000FA2222F08F03ABB912F00F0F0A4902D1D5
:1041800000230B80E6E7530003F01E0343EAD2133B
:10419000023B182202FB034393F830309B07EFD514
:1041A0000123EEE70020DEE7A424002010B5036819
:1041B000044690B0DB6F9847D4F8EC02D4F8202383
:1041C00003686946DB6B984704F53D7269462046F3
:1041D000FFF713FE0023C4F80833C4E9C0330123FA
:1041E00084F80C33236811465B6E984710B010BDFD
:1041F000036813B50446DB6F984794F81C33012B12
:1042000006D800230A490B4800931A4602F07AFBAD
:1042100094F80C23012384F82C332AB9204602B0E9
:10422000BDE81040FFF7C2BF84F82D3302B010BDC7
:10423000CE4D02000E0115802DE9F0411D460368A8
:1042400004465B6F0F461646984794F80C33012BD3
:1042500005D00B490B4840F2BA2202F0EBF80A4BAA
:10426000C4F824330023C4F82833236884F8107377
:10427000C4E9C56520469B6FBDE8F041184700BF03
:104280006C4D0200944E02008B4C0100036870B527
:104290000446DB6F9847B4F8FC2292B394F8F4120A
:1042A00094F80833012925D1012B06D0D4F8EC026B
:1042B0000368DB6CBDE870401847D4F804339342C0
:1042C00001D9C4F804230129D4F8043326D19A4231
:1042D00008D9D4F82023B3FBF2F002FB10330BB95A
:1042E00084F80913022384F80B332046BDE870409C
:1042F000FFF72ABE002BD9D1D4F804339342E2D081
:10430000D4E7D4F8EC02D4F804230368002AD0D10F
:10431000032184F80B139B6C11460EE0D4F8EC02D9
:104320000122016884F80B23D4F820230D6CD4F803
:1043300000139A4228BF1A462B46BDE87040184722
:1043400010B503680446DB6F9847002384F82D33CB
:10435000032384F80B3310BD036810B5DB6F0446EC
:104360009847002284F80C2394F82D2394F81033F6
:1043700022B12046BDE81040FFF7E2BF33B9D4F8C0
:10438000EC020368BDE81040DB6C184794F80B336F
:10439000012B0AD1D4F8EC02032384F80B33036811
:1043A0009B6CBDE8104011461847022B07D1D4F88A
:1043B000EC02032384F80B3303681B6CF1E710BD98
:1043C000036810B5DB6F04469847002384F82C334C
:1043D00094F80C3323B92046BDE81040FFF7B0BF76
:1043E000012384F82D3310BD036810B5DB6F04463C
:1043F0009847002284F80C2394F82D2394F8103366
:1044000022B12046BDE81040FFF79ABF63B1B4F86F
:10441000FA32A4F82E33B4F8F83284F83033204658
:10442000BDE81040FFF732BFD4F8EC020368BDE8E6
:104430001040DB6C1847036810B504465B6F984763
:1044400094F8F03283B9D4F8EC02036821469B68F3
:104450009847D4F8EC02036840219B6B98470123EE
:10446000C4F8200384F8F032236820469B6FBDE82F
:104470001040184738B5036804465B6F984794F8B6
:104480001C53236820469B6FEDB298472B1F584260
:10449000584138BD036810B55B6F04469847204605
:1044A000FFF7C9FF94F8F1323BB9D4F8EC02036886
:1044B0005B699847012384F8F132236820469B6F9B
:1044C000BDE81040184700002DE9F04F904685B038
:1044D00002680391526F0293DDF8389005469047C9
:1044E000039911F0700F03D111F00F0F029B06D149
:1044F00000232B492B4800931A4602F003FA95F843
:10450000F2723FB92B6828469B6F9847384605B032
:10451000BDE8F08F4C0004F01E0444EAD114A61E3E
:104520004FF0180B0BFB065A9AF83020D20705D52E
:104530001D491E484FF48E6201F07CFFB8F5806F74
:1045400004D919491A4840F27142F5E7D5F8EC024E
:104550000268176D4246B84707460028D2D0601E51
:104560000BFB0050043048450BD00290FCF7F8FBE1
:10457000D9F80C30CAF828301BB15B68029849465C
:104580009847182303FB065696F83030A6F82C807F
:1045900043F0010386F83030002386F83130B1E76C
:1045A000B74E0200040115806C4D0200D64E020089
:1045B000F84E0200D0F8EC0203685B6B184700006D
:1045C000F8B50F461949044640F81C1B002506465D
:1045D00004F53B71F5601836B142FBD1E380BDF8BC
:1045E00018302381A28000214FF434720CF038FD82
:1045F0002822002104F53D700CF032FD0123C4E9AE
:10460000C855C4E9CA55C4F8EC72A4F8F05284F84D
:10461000F252C4F8345384F8305384F81C3384F8CD
:104620001D5384F81E532046F8BD00BFC44F02003E
:1046300038B503685B6F0D46044698472B071FBFCC
:104640006A0002F01E0242EAD513023B1BBF182289
:1046500002FB0343D4F820539D8D236820469B6FB3
:104660009847284638BD00000368F7B55B6F0E46D3
:104670000546984736F08F0701D1320706D100234F
:104680001749184800931A4602F03CF9740004F0E8
:104690001E0444EAD6141823023C03FB045494F885
:1046A0003030DB0709D42846FFF7E4FE80B10E491D
:1046B0000E4840F28C5201F0BDFE94F831303BB10F
:1046C000D5F8EC0203683146DB6E984784F8317008
:1046D0002B689B6F284603B0BDE8F040184700BF29
:1046E000B74E0200040115806C4D0200104F02000D
:1046F000036873B55B6F0E460446984716F0700F5B
:1047000001D1310706D100231A491B4800931A46EC
:1047100002F0F8F8750005F01E0545EAD6151823D5
:10472000023D03FB054595F83030DA0709D42046F1
:10473000FFF7A0FEB0B11149114840F2CC4201F0A0
:1047400079FE43F0020385F83030D4F8EC020368B8
:1047500031469B6D984795F831301BB13146204664
:10476000FFF782FF23689B6F204602B0BDE87040D0
:10477000184700BFB74E0200040115806C4D0200BF
:10478000104F0200036810B50446DB6F984794F899
:104790001C33042B02D0B4F8FA32A3B994F8F632E1
:1047A000022B10D1B4F8FA1231F08F000BD111F0B6
:1047B0000F030AD0B4F8F83223B92046C9B2FFF784
:1047C00097FF012010BD0020FCE71846FAE7000023
:1047D000036873B55B6F0E460446984716F0700F7A
:1047E00001D1310706D100231C491D4800931A4608
:1047F00002F088F8750005F01E0545EAD615023D61
:10480000182303FB054393F83020D20709D4204630
:10481000FFF730FED8B11349134840F2F14201F0DE
:1048200009FE93F831301BB131462046FFF71CFFDB
:10483000182303FB0545314695F8303023F0020379
:1048400085F83030D4F8EC020368DB6D98472368B4
:104850009B6F204602B0BDE870401847B74E02007B
:10486000040115806C4D0200104F0200036810B562
:104870000446DB6F984794F81C33042B02D0B4F83D
:10488000FA32A3B994F8F632022B10D1B4F8FA1226
:1048900031F08F000BD111F00F030AD0B4F8F832C9
:1048A00023B92046C9B2FFF793FF012010BD0020B5
:1048B000FCE71846FAE700002DE9FF419846036837
:1048C00003920E465B6F0746984736F08F0403D17C
:1048D00016F00F0F039A06D10023204920480093B9
:1048E0001A4602F00FF8750005F01E0545EAD615C8
:1048F0001823023D03FB057595F83030DB070AD419
:104900003846FFF7B7FD044688B11649164840F20D
:10491000AF5201F08FFDAB8D434505D913491448C3
:10492000009423462246DCE795F8311039B13B6804
:1049300038469B6F9847204604B0BDE8F081D7F811
:10494000EC0201680C6E3146A04704460028EED008
:1049500095F83130013385F83130E8E7B74E020081
:10496000040115806C4D0200104F02001E4F020022
:1049700005011580036837B55B6F0D4604469847FF
:1049800015F0700F01D12A0706D1002315491648EA
:1049900000931A4601F0B6FF6B0003F01E0343EAD2
:1049A000D513023B182202FB034393F83030DB0798
:1049B0000AD42046FFF75EFD054660B10B490C485E
:1049C00040F2E95201F036FDD4F8EC0203682946C2
:1049D0005B6E98470546236820469B6F984728469C
:1049E00003B030BDB74E0200040115806C4D0200CB
:1049F000104F02002DE9FF419846036803920E46CE
:104A00005B6F0746984736F08F0503D116F00F0FFE
:104A1000039A06D100232249224800931A4601F046
:104A200071FF740004F01E0444EAD6141823023CFB
:104A300003FB047494F83030DB070AD43846FFF7E0
:104A400019FD054688B11849184840F20A6201F07C
:104A5000F1FCA38D434505D21549164800952B4618
:104A60002A46DCE794F831303BB13B6838469B6F0F
:104A70009847284604B0BDE8F081D7F8EC020368F7
:104A800031469D6E4346A847054638B194F831300B
:104A9000A4F82E80013384F83130E6E7E085E4E7BE
:104AA0006F4F0200040115806C4D0200104F020090
:104AB0008D4F020005011580036837B55B6F0D4609
:104AC0000446984715F0700F01D1290706D100233D
:104AD0001249134800931A4601F014FF6A0002F0CD
:104AE0001E0242EAD513023B182202FB034393F84D
:104AF0003020D2070AD42046FFF7BCFC054630B16F
:104B00000849094840F2496201F094FCDD8D2368B0
:104B100020469B6F9847284603B030BDB74E020031
:104B2000040115806C4D0200104F0200036870B53F
:104B30000446DB6F0D46984794F81C2384F81C53F9
:104B4000AA42D3B226D0032B09D9032D8CBF00264D
:104B50000126012B05D9012D03D88EB103E00026D3
:104B6000F7E786B100264FF43472002104F11C00EF
:104B70000CF076FA002384F81D3384F8F23216B173
:104B80002046FFF71DFC2368294620461B6EBDE822
:104B90007040184770BD036810B50446DB6F984736
:104BA000D4F8EC0294F8F8120368DB6A9847B4F87A
:104BB000F8322BB902212046FFF7B8FF012010BDC3
:104BC0000321F8E7036810B50446DB6F984794F8B3
:104BD000F81284F81D1351B9D4F8EC0203681B6A6B
:104BE000984703212046FFF7A1FF012010BD0123B4
:104BF00084F8F232032384F80C3323682046DB6EFA
:104C00009847F2E7036810B50446DB6F984794F8BD
:104C1000F532C3BB94F8F7320B2B34D8DFE803F03E
:104C2000060B331033151A331F24292E2046BDE8F6
:104C30001040FFF779BA2046BDE81040FFF716BED6
:104C40002046BDE81040FFF79DBD2046BDE810405E
:104C5000FFF7A1BF2046BDE81040FFF725B820466A
:104C6000BDE81040FFF702BA2046BDE81040FFF74C
:104C7000A9BF2046BDE81040FFF707BA2046BDE8AF
:104C80001040FFF71BBA002010BD036810B5DB6FA2
:104C900004469847002084F80C0394F82D0394F8F8
:104CA0001033D4E9C52190B1012B0BD8022384F82D
:104CB0000C33236804F53D7120469B6EBDE810401F
:104CC000012218472046BDE81040FFF739BB042BEE
:104CD00012D12046FFF796FF30B9D4F8EC020368F2
:104CE000BDE81040DB6C184794F80C3373B92046CC
:104CF000BDE81040FFF7CABA032BEED00120C4E98B
:104D0000C02184F80A0384F80833F0E710BD036873
:104D100010B5DB6F0446984720460221FFF706FFD7
:104D2000002384F81E332046FFF74AFB2368204601
:104D3000DB6DBDE810401847036810B504465B6F93
:104D4000984794F8F1323BB1D4F8EC0203689B69C0
:104D50009847002384F8F13294F81C33012B03D9CF
:104D600001212046FFF7E2FE002384F81D3384F87A
:104D70001E33236820469B6FBDE810401847036828
:104D800010B504465B6F984794F8F03253B1204653
:104D9000FFF7D2FFD4F8EC020368DB6898470023E2
:104DA00084F8F032236820469B6FBDE81040184716
:104DB0000D4B70B5036090F8F03204462BB10B49EF
:104DC0000B4840F2625201F035FBFFF7D8FF04F5C3
:104DD0003B7504F11C06B54204D0183D2846FBF78C
:104DE000BFFFF8E7204670BDC44F02006C4D0200C3
:104DF000AE4F020038B503680D46DB6F0446984796
:104E000045B994F81C332BB129462046BDE83840FB
:104E1000FFF78CBE38BD036870B50446DB6F98475A
:104E200094F82D3394F8106303B97EB92046FFF748
:104E300021FB054650B901464FF4347204F11C00C1
:104E40000CF00EF984F81D5384F8F252002384F814
:104E50000C3394F82D3323B12046BDE87040FFF7A2
:104E60006FBAD4F8EC02036856B1DB699847204664
:104E70000421FFF75BFE2046BDE87040FFF706BA4D
:104E8000BDE87040DB6C1847036837B5DB6F0D4633
:104E90000446984715F0700F01D12B0706D1002367
:104EA0000F49104800931A4601F02CFD6B0003F0E7
:104EB0001E0343EAD5118B1E182505FB034393F807
:104EC000312052B1481E05FB0040013A043083F8FE
:104ED0003120C3680BB1FDF715FB03B030BD00BF37
:104EE000B74E020004011580036837B5DB6F0D462D
:104EF0000446984715F0700F01D12B0706D1002307
:104F00000F49104800931A4601F0FCFC6B0003F0B7
:104F10001E0343EAD5118B1E182505FB034393F8A6
:104F2000312052B1481E05FB0040013A043083F89D
:104F30003120C3680BB1FDF7E5FA03B030BD00BF07
:104F4000B74E02000401158038B50023044683657E
:104F500019B90A4600F013F803E0002AFAD100F06C
:104F600046F8204638BD10B5044600F053F804F169
:104F70004C00FBF7F5FE204610BD00F055B90329A3
:104F800038B5044607D9D31C23F003039A1A891AAB
:104F900021F003011A460023C4E90433E2600D4600
:104FA00005BBC4E906512262256000F001FA00F059
:104FB00001FAC4E90A556060258184F8245004F19F
:104FC000300000F017FA00280BDB04F1440000F079
:104FD00009FA002805DB04F1480000F003FA00EAB2
:104FE000E07038BD2369013323616D08D8E737B518
:104FF0000546084601910BF0E7FB044638B102462E
:1050000001992846FFF7BBFF6C6103B030BD4FF03C
:10501000FF30FAE770B505680446B5B9A36A1BB15D
:10502000E06A4FF0FF31984704F1480000F0DCF9E6
:1050300004F1440000F0D8F904F1300000F0E2F986
:105040006069BDE870400BF0C7BBEE6836B9EB692C
:1050500013B105F124009847AD68DEE7F36913B199
:1050600006F124009847F668F0E773B50646273145
:105070004830019021F0030500F0B7F9B4690198B8
:1050800006F118035CB9F3699D4223D8346A5B1BAF
:10509000F3616219012332622560237107E02268FF
:1050A000954213D8E26872B11A60A368936000F069
:1050B0009EF900234FF0FF32C4E90532E361243446
:1050C000204602B070BDA2681A60F0E704F1080340
:1050D000A468D7E700F08BF9F2E751F8083C73B504
:1050E00005460C460BB108469847EB6833B1A4F16E
:1050F0002406B34202D82B6AB34204D2002304F838
:10510000203C02B070BD05F14800019000F06DF93F
:10511000AB69019805F11802A3B11D6854F8241C6D
:105120008D420BD30ED144F8183C9B6844F81C3CCC
:10513000166002B0BDE8704000F059B903F10802F2
:105140009B68E9E7002344F8183C1368EEE7F8B5DC
:105150004B699B1A1646002BA8BFD2184A61437AA6
:105160004B7100F14407054638460C4600F03DF906
:10517000284603687BB359696269A1EB020CBCF154
:10518000000F25DB914226D19B68A36013B104F187
:1051900008021A612246036842F80C3F0021996018
:1051A0001A61AB6A046020616BB195F8242052B19A
:1051B0002A68A24207D1E2682AB96169E86A891BB4
:1051C00021EAE17198473846BDE8F84000F00FB990
:1051D00003F10800CDE7A36013B104F108021A61DE
:1051E0000023E360DDE7F8B5144605460F46A2F15B
:1051F000240600F0DFF854F8103C44F8047C034423
:10520000024644F8103C31462846FFF7A0FF2969C2
:1052100014F8204C8C40E968761A05F130003443CC
:1052200000F0F2F82046F8BD2DE9F74F04460F468E
:1052300000F0C0F84FF00008054607EB000984F8BD
:10524000248004F14406304600F0CFF8637A01333D
:10525000637263685B1B002B2368D8BF6560019392
:1052600001A91BB15A69521B002A33DD236003B127
:105270001C613046C1F8008000F0B9F8019B01A81C
:1052800063BB019D4FF0010A002D34D100F092F86C
:10529000002F82465CDBA9EB0005002D5ADCA36AD7
:1052A0009BB1304600F0A1F8A36A43B1226832B145
:1052B0005169E06AA1EB0A0121EAE17198470123F3
:1052C00084F82430304600F092F80023237203B0B3
:1052D000BDE8F08F03F108019B68C2E79D681A469C
:1052E000002191601146D268002AFAD1016003F1D1
:1052F00008002B46C4E72B6AD5F808B013B105F1B6
:1053000024009847AA69002A0BDB6B6913446B6180
:1053100000F050F8294602462046FFF718FF5D4688
:10532000B2E7E36873B1AB420CD8236AAB4209D34E
:105330002B7922690133DBB213FA02F214BF2B710D
:1053400085F804A005F124012046FFF7C6FEE6E734
:105350004FF0FF35304600F048F823683BB15969FB
:10536000A1EB0A0121EAE1718D4228BF0D463046CA
:1053700000F03DF8294604F1300000F048F8237AA7
:105380007BB1304600F031F8237A3BB10023304640
:10539000237203B0BDE8F04F00F029B8304600F0AA
:1053A00026F800F007F805464DE740F8081C70475E
:1053B00001F03EBB07B501F034F970B1084B684607
:1053C000196800F045FDDDE900014FF47A72002311
:1053D0000AF0B0F903B05DF804FB01F0DFFFF9E774
:1053E0003028002000207047704701F023B901F0F9
:1053F00037B9000008B5024901F0AAFF002008BD36
:105400009450020001F0ADBF012101F0A7BF08B523
:10541000012341EAE172194601F0BEFF431E5842E2
:10542000584108BD03680BB1084618477047000093
:10543000044B0022C3E900229A601A61024ADA6032
:10544000704700BFA82400202554010038B5044649
:105450000D46002100F8011B10220BF001FE6582B1
:10546000204638BD08B542F602110248FFF7EEFFAC
:1054700008BD00BFBC240020034B1A78034B53F82F
:10548000223003B11847704724040020D0240020A4
:10549000074B1B785BB1074B0122C3F80823064B6F
:1054A0005A78FF2A00D1FEE7044A12885A707047E2
:1054B000E825002000F00040E4240020EA25002038
:1054C00070B50E460446154605F090F9013609D030
:1054D0002046002105F0FEF929462046BDE870402F
:1054E00005F0D6B970BD000008B5431C04D10F49C2
:1054F0000F48202200F09EFF012359B11F2886BFCC
:105500000C4A00F01F004FF0A04203FA00F0C2F86E
:10551000080508BD1F2886BF064A00F01F004FF08F
:10552000A04203FA00F0C2F80C05F2E7D04B0200EB
:10553000A54A020000030050F8B50F460446154680
:105540001E4605F053F901370ED094F9000031469C
:10555000FFF7CAFF2046012105F0BCF92946204685
:10556000BDE8F84005F094B9F8BD0322FFF7A8BFE5
:1055700013460022FFF7E0BF0022FFF7F9BF73B523
:10558000164604461A460D46069B6EB90193FFF770
:1055900097FF01350DD0019B94F90000194602B028
:1055A000BDE87040FFF7A0BF02B0BDE87040FFF754
:1055B000C3BF02B070BD0000004870479C5002009D
:1055C000024B1B680BB102481847704728040020A3
:1055D0009C5002002DE9F843456895F83A6004466E
:1055E000002E49D103685B68984763681B6A834251
:1055F00042D02C6AAF682862041B3048EB688742AF
:1056000004EA030431D095F83B20D5E90A98A4FBBD
:105610000001D2B3C2F1200620FA02F401FA06F624
:10562000A2F1200321FA03F334431C4321FA02F6CA
:1056300019EB0000A2F1200C48EB0101C2F120039C
:1056400006FA02F804FA0CFC24FA03F348EA0C0800
:1056500004FA02F248EA0308821A61EB0801BA422E
:1056600071F100030AD2C5E90A21D5E90C23121908
:1056700046EB0306C5E90C26BDE8F883013446F184
:105680000006D21B61F10001EDE733463A460AF00D
:10569000A1F812EB090248EB0303BA42044673F186
:1056A00000000E4602D2C5E90A23DEE7013441F1CB
:1056B0000006D21B63F10003F5E700BF40420F0074
:1056C000824206D98A420BD9884294BF0020012029
:1056D0007047884206D98A428CBF0020012070475B
:1056E0000120704700207047F7B5466896F83A30B9
:1056F0000546002B67D196F83930002B63D1FFF7B0
:1057000069FF6F687A68002A5FD0D7E90C01D2E997
:105710000032984271EB020405D32B685B6903B039
:10572000BDE8F04018471B1A62EB0101D7E90602F9
:1057300098428A413C6906D3BA68294882420FD10F
:105740009C4228BF1C463A6AFB6822441A40336ACE
:10575000934229D12349244840F21B1200F06AFEEB
:1057600097F83B00C8B1A0F1200CC0F120028140A5
:1057700003FA0CFC23FA02F203FA00F01B4B41EA95
:105780000C011143C01841F10001154A00230AF031
:1057900021F8844228BF0446D5E7A2FB033002FB70
:1057A000010112481818EEE72B68019210461B6998
:1057B00098472B685B689847019A0146306AFFF763
:1057C0007FFF0028A9D103B0F0BD3369306AF268C9
:1057D00018442B681B69104003B0BDE8F04018471F
:1057E00040420F00C8500200E85002003F420F0044
:1057F0002DE9F04F436893F8382085B00446002A1D
:1058000062D193F83A30002B5ED103681B68984749
:105810002368DB699847066836B92D492D480096FC
:105820003346324601F06EF81F23012202FA03F1DB
:105830008E425FFA83FA02D0013BF7D19A46D0F844
:105840000480A8F104031C2B4FF0000705D922495E
:10585000224800973B463A46E4E7701E204D4FF041
:10586000070947F1FF3109FA03F932463B46C9FB04
:10587000050109F0AFFF656823680390C5E900776B
:105880005B688B4698470121039A286201FA08F861
:10589000656808F1FF33C5E90339C5E9062B002324
:1058A00000222046C5E90A23C5E90C23AE6085F82D
:1058B0003BA0298785F83A70FFF78CFE204605B09B
:1058C000BDE8F04FFFF710BF05B0BDE8F08F00BF97
:1058D0000C5102000E0104802551020005010480D4
:1058E00040420F0038B505460C46FFF781FF00F037
:1058F000A1FE6B681C60BDE8384000F0B1BE70B519
:10590000044600F097FE2368DB689847636893F8C5
:105910003A201AB1BDE8704000F0A2BE012283F81F
:10592000392063685B68A3B12046FFF753FE6368C4
:105930005A68D3E90C60D2E90051AE4270EB010124
:1059400007D3D16859601B68002BEAD0906898474C
:10595000E7E76368002283F839202046FFF7C4FE9A
:10596000D8E7F7B5089F01900C4616461D4600F093
:1059700061FE0198FFF72EFE0198A7604368C4E915
:1059800000655968002229B9E16062B95C60FFF7DF
:10599000ABFE0EE00F68BE424F6875EB0707F3D30E
:1059A0000A46C968EFE7D460D3E90C23B242AB41A1
:1059B000EDD203B0BDE8F04000F052BE38B5054668
:1059C0000C4600F037FE6A685368A34209D1DB68D1
:1059D00053602846FFF788FEBDE8384000F040BE1F
:1059E0001346002BF8D0DA68A242F9D1E268DA60F7
:1059F000F2E713B50446FFF7FBFE00F01BFE20465E
:105A0000FFF7E8FD6368D3E90C01CDE9000100F080
:105A100027FEDDE9000102B010BD08B5FFF7E9FF80
:105A200008BD0000024B00221A7006F06FB800BFDC
:105A30003026002008B505F0D7FF024B01221A706E
:105A400008BD00BF302600200048704764510200A6
:105A5000024B1B680BB10248184770472C0400200A
:105A60006451020091F90C2091F9041005F09ABCE0
:105A7000024B1B6803B11847704700BF782600200F
:105A800007B5019000F0D6FD019803B05DF804FB66
:105A900007B5019000F0E4FD019803B05DF804FB48
:105AA000007B704738B50D4B03600023C0E901311E
:105AB000027304460A480D46FCF736FD01F0B6FCB9
:105AC00055B1084B1A6862601C600548FCF72CFD54
:105AD00001F0CAFC204638BD6560F6E7A05102001F
