:020000021000EC
:1000000000000420259A01005D9A0100F1580100CA
:10001000619A0100FD580100035901000000000031
:10002000000000000000000000000000517101000D
:10003000699A010000000000E9710100F9710100F6
:100040003DD20100D54C01006F9A01006F9A01006A
:100050006F9A01006F9A01006F9A01006F9A010078
:100060006F9A01006F9A01006F9A01006F9A010068
:100070006F9A0100D1D301006F9A0100ED4C01008D
:100080006F9A01006F9A01006F9A01006F9A010048
:100090006F9A01006F9A01006F9A01006F9A010038
:1000A0006F9A01006F9A01006F9A01006F9A010028
:1000B0006F9A010029060100000000000000000006
:1000C0006F9A01006F9A01006F9A01006F9A010008
:1000D0006F9A01006F9A01006F9A01006F9A0100F8
:1000E0006F9A01006F9A01006F9A010000000000F2
:1000F000000000006F9A0100000000006F9A0100EC
:1001000010B5054C237833B9044B13B10448AFF351
:1001100000800123237010BDE80F002000000000C4
:100120005C4A020008B5034B1BB103490348AFF317
:10013000008008BD00000000EC0F00205C4A0200B7
:10014000154B002B08BF134B9D46A3F5803A0021A9
:100150008B460F461348144A121A0FF091FA0F4BB0
:10016000002B00D098470E4B002B00D09847002062
:10017000002104000D000D48002802D00C4806F0B4
:10018000A3F90EF089FD2000290006F059FE06F0C3
:1001900098F900BF000008000000042000000000E3
:1001A0009D6D0100E80F002068B40220C9640100C1
:1001B0000000000070B504460D46164601F0AEFD85
:1001C00020B132462946204601F0FAF970BDA0F56B
:1001D0009760EFE700F5803300214FF48032C3E9E8
:1001E00000119A600FF04CBA20B100F58030D0E9D0
:1001F0000030181A704748B100F58030D0E900325D
:1002000080689B1A834234BF00200120704710B5DC
:10021000044670B1FFF7EFFF01280AD004F58030E3
:1002200083680268013B13400132E15402600120FF
:1002300010BD0020FCE713B54368C4685A1C019246
:10024000019A9442DCBF00220192019A8468944290
:100250001FBF0268D154019B43600CBF4FF0FF30B9
:10026000002002B010BDD0E90132934210B50AD08F
:10027000C468531C9C42D8BF00230468A25C0A7067
:100280008360002010BD4FF0FF30FBE703460022E3
:1002900004481860C3E901224FF48032DA60AA21D1
:1002A0000FF0EEB91810002073B5194919481A4E0D
:1002B000184C1A4D01F0A1FD194B1868FFF794FF77
:1002C0000A220146134801F0EEFD1649114801F0DB
:1002D00094FD3146204601F090FD0A2269682046CF
:1002E00001F0E1FD1049204601F087FDA9680A22CE
:1002F000204601F0D8FD0DF107010848FFF7B3FFD4
:100300000028E6D0642001F013FE02B070BD00BFEB
:10031000502C0200D81B02205A2C0200081000208A
:10032000040200209C3E0200612C020010B514481B
:10033000144CFFF7ABFF4FF41651124801F0AEFB1F
:10034000204601F0EBFC0028FAD04FF480610E4803
:1003500000F01EF90D490C4800F018F94FF47A52DC
:100360000121094800F07CF820B90949094801F049
:1003700051FDFEE7084BBDE810401868FFF72ABFA3
:100380000810002020170220241002209D030100E5
:10039000DD3F0200D81B0220040200202DE9F041BD
:1003A0001348144F144EADF5806D00F035F86946D2
:1003B000024605460E4800F041F8002440F2FF389E
:1003C000AC420DDA44450BDC1DF804103868FFF729
:1003D0001EFF1DF804103046FFF72DFF0134EFE734
:1003E000064B01221A600DF5806DBDE8F08100BF5B
:1003F0002410022004020020081000200410002015
:1004000000F1804000F5E830002382B0036003680B
:100410000193019B02B0704738B5074C4FF000556F
:10042000C4F88050BFF34F8FBFF36F8F143000F0CC
:10043000A2F9256038BD00BF00E100E038B5074CE7
:100440004FF00055C4F88050BFF34F8FBFF36F8F4C
:10045000143000F067F9256038BD00BF00E100E00E
:100460004FF0804370B504460161D3F8000128B90C
:1004700001201860D3F800010028FBD0B2F57A5FA4
:1004800005D04AF2C3239A4272D0002070BD3C4B83
:100490000122C3F820254FF020620129C3F804256A
:1004A0006AD00229F1D1364B0022C3F80825344B1B
:1004B000207A1422C3F818250121C3F81C2501F065
:1004C0007BFD0021207A01F0B3FD0021207901F0AD
:1004D00073FDA56800F07CF985423CBFA368294AFA
:1004E000666836BF1B014FF0FF35D55600F070F936
:1004F00086423DBF6368234A1B014FF0FF3338BF7C
:10050000D3561F4A4FF48070C2F84055C2F84435A4
:10051000FFF776FF4FF48470FFF772FF4FF482709D
:10052000FFF76EFFE06803230028C2F8043307DBFF
:100530000121C0B201F040FD0121207B01F078FDD6
:1005400004F1140000F0B6F80F4BE02283F81D23ED
:100550004FF00052C3F880211A60094901224FF47C
:100560008070C1F80025FFF74BFF0A6010468DE749
:10057000034B4FF0A85290E7014BC3F8081596E7DC
:1005800000D001400802002000E100E081637047D4
:10059000143000F08DB800001F4B1B6870B5054685
:1005A00053B34FF4807005F11404FFF729FF204680
:1005B00000F0E1F8D8B9204600F0D8F80646204609
:1005C00000F0A4F82B69154A5B00C2F86065B0FB27
:1005D000F3F32046C2F8643500F098F8014620464F
:1005E00000F0D3F8AB6B33B1BDE8704018470B4B4C
:1005F0000022C3F8002570BD094B1B682BB14FF4D6
:100600008270BDE87040FFF7FBBE064B1B68002BF5
:10061000F1D04FF48470F4E700D1014000D00140E4
:1006200004D1014008D1014001210148FFF7B4BFC6
:100630002410022010B50B4C0B4B23601D221C23F1
:10064000C4E9012304F114001B23E36000F050F817
:100650000023A3632046054A0549BDE8104005F084
:100660002EBF00BF24100220742C020000020020C4
:100670007506010010B5044B044640F8143B00F029
:100680000FF8204610BD00BF742C020010B50446C0
:10069000FFF7F0FF20463C2106F046F9204610BD4A
:1006A000704710B52421044606F03EF9204610BDDF
:1006B000C160704710B5C168044640680FF040F84B
:1006C0006060D4E902010FF03BF8E268A06000210D
:1006D00060680EF0D5FFE268A06800210EF0D0FF40
:1006E0000023236223616361A361E36110BD000005
:1006F00010B5054B03604FF400730446C360FFF769
:10070000D9FF204610BD00BF8C2C0200036A0433C1
:1007100050F82330026A063250F82220C0689B1A33
:10072000C01A704738B504460846236A043354F8A3
:100730002350236A063354F82330ED1A954228BF1C
:1007400015468DB1236A226A04EB830306325B6887
:1007500054F822102A4619440EF094FE236A04EB42
:100760008304A3692B44A361284638BD036A00EBC8
:10077000830040687047036A043350F82320036AFB
:10078000063350F82300101A7047036A5BB901233F
:100790000362036A0433002240F82310036A06331D
:1007A00040F8232070470023F2E730B5A1F1100490
:1007B000002500F00F02D3B2092ACCBF3733303303
:1007C0008B73CD7302398C424FEA1010F1D130BDDA
:1007D0002220704730B5012185B0192001F0ECFBD3
:1007E0000121192001F024FC204A0023D3604FF09E
:1007F00080420121C2F85C3503F1804303F5883360
:100800004FF48032C3F848232120C3F8082301F0B5
:10081000D3FB0121202001F0CFFB0121212001F099
:1008200007FC0121202001F003FC114B01221A607A
:10083000104A1368002BFCD00F4B0024C3F800456E
:10084000C3F800450D4B0FCB6D4685E80F002346DE
:1008500020464FF0FF3155F823200133042BC2F816
:100860000005C2F86015F6D105B030BDF0ED00E02E
:10087000042000404421004000200040942C02004D
:1008800038B54FF0805504462146D5F8A800FFF74B
:100890008CFFD5F8A40004F11001FFF786FF20209B
:1008A00038BD000072B64FF08043B022C3F81C255B
:1008B000BFF34F8F0549064BCA6802F4E062134349
:1008C000CB60BFF34F8F00BFFDE700BF00ED00E03E
:1008D0000400FA0570470B6803604B6843608B683F
:1008E00083607047C3680BB19B681847704700204E
:1008F000704710B50446806920B10368DB689847EB
:100900000023A36110BD704701207047D0F820314B
:10091000D0F82401181A48BF00F580707047D0F84D
:100920002421D0F820319A421DBFD0F82431C018BC
:1009300090F820004FF0FF307047D0F82421D0F815
:1009400020319A420CD0D0F82431034493F820206F
:10095000D0F824310133DBB2C0F82431104670479F
:100960004FF0FF30704770B503681446DB690546E9
:10097000984704F47063B3F5407F04F0F0030CBFB4
:100980000721082104F00F02302B0CBF02230123A2
:10099000012A07D0901E42424241A869BDE870403A
:1009A00002F076B80222F8E77FB5836904460E4666
:1009B00063B94FF4807005F091FF3346054694F912
:1009C0001D2094F91C1002F0FDFAA56194F91E2077
:1009D000531C05D094F91F30A069032102F002FBDB
:1009E000A06970B1084B03930022084B019369463C
:1009F0000094029202F085F8039B13B19B6868464D
:100A0000984704B070BD00BFA42C0200110A010079
:100A100013B50446A06902F052F8C0B1A06903689A
:100A200001225B690DF107019847D4F82031D4F811
:100A300024210133DBB29342ECD0D4F820219DF87D
:100A40000710224482F82010C4F82031E2E702B0F7
:100A500010BD13B504468DF80710A06902F040F8E8
:100A60000028FAD0A069036801221B690DF1070173
:100A70009847013018BF012002B010BD70B5044680
:100A80000E461546A06902F02BF80028FAD0A0699E
:100A9000D0F8FC3001211B6BFC309847A06903683B
:100AA0002A461B6931469847431C14BF284600203C
:100AB00070BD10B4D0E9013401686210E40701EBA5
:100AC000020048BF8A585DF8044B48BFD358184706
:100AD00070B5FFF77DFE50B3164B93F90060164CCE
:100AE000FFF776FE012888BF124B4FF000054FF448
:100AF0007A7288BF93F910302677C4E901520F4A01
:100B0000226098BF4FF0FF332022C4E905256377A8
:100B10004FF48072FF23294604F12000A377E37786
:100B20000EF0AEFDC4F82051C4F8245170BD4FF052
:100B3000FF36D4E70802002060100220B82C020023
:100B4000002070477047704710B5D0F88C452CB125
:100B5000236820465B689847A468F8E710BD38B55D
:100B6000D0F88C450D4634B1236820469B68294651
:100B70009847A468F7E738BD00487047782D020011
:100B800010B5054B0360044603F027FD204603F033
:100B90003DFD204610BD00BFF82C020010B50446F4
:100BA000FFF7EEFF20464FF4B26105F0BDFE204690
:100BB00010BDF7B5D0F88C4505460E460023A4B10C
:100BC00023683146DF680DF1030201AB2046B847C8
:100BD0009DF803100429034605D0019A284602F027
:100BE00059FF03B0F0BDA468E9E7019A9DF803102E
:100BF000F4E770B505460E4622B10021BDE870400D
:100C000002F03EBDD0F88C455CB1236800221B6920
:100C100031462046984710B101212846EEE7A468E6
:100C2000F2E72146F9E770B5D0F88C450E46054647
:100C300000213CB12368314620465B699847A4688F
:100C40000146F6E72846BDE8704002F019BEF8B547
:100C5000D0F88C4505460E4617463CB12368204621
:100C60009B693A4631469847A468F6E72846012131
:100C7000BDE8F84002F062BE70B5002186B00446BF
:100C800003F004F90023ADF8063023898DF8103005
:100C90001B0AA188E2888DF811304FF4897540F263
:100CA0000123ADF80450ADF81230022540F20313D1
:100CB000EF268DF807508DF809508DF80C1001259E
:100CC000090A8DF80E20ADF81430120A04F10A0357
:100CD0008DF808608DF80A508DF80B008DF80D1016
:100CE0008DF80F2001AD05AE1C462A4603CAB2425C
:100CF00018605960154603F10803F6D112881A806E
:100D0000204606B070BDF8B5002406460D462746BD
:100D100030460FF095F8A04207D9335D05F814303E
:100D200005EB440301345F70F2E7400000F0FE0081
:100D3000F8BD38B5D0F88C55044635B12B68284637
:100D40001B6A984710B9AD68F7E7284640F20233AE
:100D5000A4F8483504F24A51FFF7D5FF94F8483516
:100D6000184484F8480504F5A96038BD40F2023300
:100D700010B500F20A510446A0F808350548FFF7FF
:100D8000C2FF94F80835184484F8080504F5A160FA
:100D900010BD00BFE42C020040F2023310B504463F
:100DA000A0F8C83400F2CA40FFF76AFD94F8C834CE
:100DB000184484F8C80404F5996010BD2DE9FF417A
:100DC00000238DF80A3090F888351B4A8DF80830DA
:100DD000012301928DF809303222C0238DF80B30A7
:100DE0008DF80C2001AB044600F54E7803CBC4F817
:100DF0003803C8F8041088F80820D4F88C65092551
:100E00008EB1336800211B6830469847478805F546
:100E10004E73093F00F109013A46E0180EF032FB2B
:100E20003D44B668ECE784F83A5340462D1284F806
:100E30003B5304B0BDE8F0810902FFFF73B50446DF
:100E40000D46164608F09EFC4FF480730093014651
:100E500033462A46204602F0E1FF024B236020463B
:100E600002B070BDF82C0200D0F88C356BB9C0F818
:100E70008C1590F888350B7190F888354A791344B1
:100E800080F888350120704713469A68002AFBD104
:100E90009960EEE71FB5044602F0BAFF01466846C6
:100EA00002F05CF94021684602F0C8F9D4F88C459C
:100EB00034B123682046DB6969469847A468F7E7A0
:100EC000684602F052F904B010BD10B50446FFF7B1
:100ED000E1FF2046BDE8104002F00ABF10B50D4CFE
:100EE0002378BFF35B8FDB0712D4204605F0FAFAB4
:100EF00070B148F25A0242F241310748FFF79EFFB3
:100F0000204605F011FB054A0549034805F0D7FACC
:100F1000014810BD8C110220901102200002002017
:100F2000810B010010B5FFF7D9FF0368BDE8104041
:100F30005B6F184710B5FFF7D1FF0368BDE810409D
:100F40009B6F184710B5FFF7C9FF0368BDE8104055
:100F5000DB6F184702F0C0BA02F082BA02F0ACBAF6
:100F6000704770477047436A93F870007047D0F835
:100F70009C04704700487047C42E02002DE9F04FD2
:100F8000044697B00F464B22002103A80EF078FBD1
:100F9000D4F89C34267994F80EA094F80C90002B89
:100FA00006F10105637B019314BF05200020EDB21B
:100FB000002F40F0978040F20923ADF80C304FF439
:100FC0008173ADF8103080238DF8133032238DF803
:100FD000143008238DF815300B2301218DF81630BD
:100FE0008DF8250040F2022342F205404FF0240C18
:100FF0004FF0090E04274B22ADF818308DF8211060
:1010000002238DF82410ADF826004FF010080520BB
:101010008DF82A108DF82D108DF82F104FF0030B3E
:1010200006218DF80E208DF817608DF81A308DF896
:101030001DE08DF81F608DF822308DF823308DF87B
:101040002B008DF82CC08DF831C08DF832308DF822
:1010500033108DF834008DF835C08DF81E708DF882
:1010600029808DF82EB08DF830708DF8361007215C
:101070008DF839108DF8491044F20201ADF84C108A
:1010800040F20751ADF850101D349DF804108DF852
:1010900037608DF838508DF83A008DF842508DF851
:1010A0004A008DF852108DF8533044F20306402365
:1010B00040F6022503A920468DF83BA0ADF83C6020
:1010C0008DF83F808DF840E08DF84170ADF84450C8
:1010D0008DF84B908DF854300EF0D4F9204617B0AF
:1010E000BDE8F08F0020FAE70A4B10B50360044614
:1010F000FFF7F4FE03F071FA04F5227002F038F9FC
:1011000004F1740002F034F904F1680002F030F9DF
:10111000204610BD882E020010B50446FFF7E4FFFC
:1011200020464FF4946105F0FFFB204610BDFFF709
:1011300009BF000010B5034B0360044601F096FFA1
:10114000204610BDC02D020010B50446FFF7F2FF87
:101150002046282105F0E8FB204610BD10B5034BC2
:101160000360044601F082FF204610BD902D02006E
:1011700010B50446FFF7F2FF2046342105F0D4FBFA
:10118000204610BD10B5034B0360044601F06EFF0E
:10119000204610BDA82D020010B50446FFF7F2FF4F
:1011A0002046382105F0C0FB204610BD38B51D4B48
:1011B0000D461968C0F80F1099889B79437504464D
:1011C000A0F8131040220221284602F02DF84022F8
:1011D00020730221284602F02CF84022607303217C
:1011E000284602F021F8A073284601F0BFFF20B97D
:1011F000B6220D490D4804F04BFD04F17D02002399
:10120000C4F8802204F2912284F8703084F87C3093
:10121000C4F8843284F89032C4F89424C4F8983422
:1012200038BD00BFDC2D0200182E02006E2E020019
:101230002DE9F34104460E461546FFF783FEF2887A
:1012400023799A4237D1002D35D17778012F2ED1CD
:10125000F378202B27D13289072A24D104F10F08F3
:1012600004F11605294640460EF0DAF8D0B1D4F85C
:101270001630C4F80F30207CE17B638BA4F8133068
:1012800001EB0021607CE57C237F009501EB0041B0
:101290002568A07C637501EB0061237D627D2D6B69
:1012A0002046A8473D46F378212B08BF0125284654
:1012B00002B0BDE8F0810025F9E710B50446FFF75C
:1012C00041FEFFF70BFE217B03F024F804F17D03C0
:1012D000C4F880320023C4F8843284F87C3004F1EE
:1012E000740001F0FAFF94F87C302BB92368204693
:1012F0009B6BBDE81040184710BD000070B5044658
:10130000FFF720FED4F898542DB14FF4F1720F4935
:101310000F4804F0BDFC04F29123C4F89434FFF7A5
:10132000DDFD617B02F054FF84F89052C4F898040C
:1013300004F5227001F0D1FF94F890322BB92368A4
:1013400020465B6BBDE87040184770BD182E020048
:10135000E82D020010B4D0E9013401686210E407FE
:1013600001EB020048BF8A585DF8044B48BFD358D0
:1013700018470000F0B5044687B002ADFFF7E2FD64
:101380000026FFF7ABFDA17B0095032340220596C5
:1013900002F0C8FC2846FFF7A5FAFFF79FFD164BA1
:1013A000217B164F00954022CDE903360223059795
:1013B000029402F0B7FC2846FFF794FAFFF78EFD7F
:1013C0000F4B617B00954022CDE903360223059740
:1013D000029402F0A7FC2846FFF784FAFFF77EFD8F
:1013E0004FF40073D4F89424617B02F093FE012043
:1013F00084F8900207B0F0BDBB120100D02D0200AE
:10140000FD12010038B502234371002383600C4BA9
:10141000044640F8683B154601F052FF04F17400A1
:1014200001F04EFF04F5227001F04AFFC4F89C540D
:10143000FFF754FD2146FFF717FD204638BD00BFDA
:10144000882E020070B504460D46FFF77BFD84F838
:101450007050002D3ED194F87C3033B1FFF73EFD43
:10146000217B02F02FFD84F87C5004F17D0304F110
:10147000740600253046C4F88032C4F8845201F066
:101480002CFF304601F022FF28B91549154840F2DB
:10149000491204F0FDFB94F8903233B1FFF71EFDC2
:1014A000217B02F00FFD84F8905204F29123C4F8DE
:1014B000943404F5227500232846C4F8983401F0CA
:1014C0000CFF284601F002FF20B940F253120449F4
:1014D0000548DEE704F16800BDE8704001F0FDBE9C
:1014E000182E0200F62D0200072E020010B5044649
:1014F000FFF728FD20460021BDE81040FFF7A2BFFE
:1015000038B50D460446FFF71DFD042D05D02046D5
:101510000021BDE83840FFF795BF38BDF8B5154646
:1015200004460E461F46FFF70DFD04232B70F2887C
:1015300023799A421DD1717801291AD1F278212A92
:1015400008D0222A0BD0202A4FF0000013D1287097
:10155000163401E029700F343C600720F8BDB388D1
:1015600013F0010308BF19462046FFF76BFF022363
:101570002B700020F2E703232B70EFE710B58AB041
:101580000446FFF7CFFC684601F064FD0A4B009368
:10159000694604F16800099401F0B7FE2046FFF7A0
:1015A000C9FC064B00211A68684601F09DFD68469B
:1015B000FFF7C0FD0AB010BDC02D0200E42D0200EF
:1015C00070B58EB0154604460E46FFF7ABFC01A879
:1015D00001F040FD0E4B0C9501A9002504F17400AB
:1015E0000193CDE90A468DF8345001F08EFE204675
:1015F000FFF7A0FC074B29461A6801A801F074FD0B
:1016000001A89DF83440FFF7A9FD20460EB070BD3B
:10161000902D0200E42D020010B50446FFF792FC65
:1016200094F87C307BB9D4F8843263B1FFF756FC70
:10163000D4F88432217B04F17D0202F009FE10B15E
:10164000012384F87C3010BD2DE9F8431E46044682
:10165000894690469DF82070FFF764FC00233360B4
:1016600094F87030E3B194F87C30CBB9D4F884525C
:10167000C5F50075454528BF4546B8F1000F05D0B2
:101680002A464946D4F880020DF0FCFED4F8843294
:101690002B44C4F88432356017B12046FFF7BCFFF5
:1016A0002046BDE8F843FFF745BCF0B50446406A64
:1016B00090F8705085B001262DB984F83050354629
:1016C000284605B0F0BD04AB002743F8047DD4E9FB
:1016D0000A120096FFF7B8FF0399E36AA26A5B1A41
:1016E0000A44E362A26213B984F83060E8E7606AF2
:1016F000FFF792FF3D46E3E72DE9F0431C4691B02A
:10170000904606468946FFF70DFC002C08BF01AC49
:101710004FF00005256002A80CBF0127002701F04B
:1017200099FC104B029302A906F52270CDE90D84B5
:10173000CDE90B698DF83C708DF83D5001F0E5FD69
:101740003046FFF7F7FB084B29461A6802A801F05C
:10175000CBFC02A89DF83D40FFF714FD204611B0D8
:10176000BDE8F083A82D0200E42D020010B5D0F8EA
:101770009834044673B990F890325BB9FFF7AEFB2A
:101780004FF4007304F29122617B02F0C3FC012349
:1017900084F8903210BD70B51E46044600233360B5
:1017A00094F870300846EBB194F89032D3B9D4F87D
:1017B0009854D4F89414954228BF15462A460DF043
:1017C00061FE3560D4F89434D4F898242B44551B2A
:1017D000C4F89434C4F8985425B92046BDE8704044
:1017E000FFF7C4BF70BD37B50446406A90F870502B
:1017F0002DB984F835500125284603B030BD02AB21
:10180000002243F8042DD4E90A12FFF7C4FF01991E
:10181000A26A0A44A262226B13680B441360E36A53
:1018200001995B1A94F83410E36209B9126802B99D
:101830001BB9012384F83530DEE7606AFFF796FFB5
:101840000025D9E76FF01500704700290CBF6FF035
:10185000180000207047012070476FF01500704796
:101860006FF0150070471120704770477047704740
:1018700003685B6C1847A0F59760F9E770477047FD
:101880007047704790F870007047A0F5976090F827
:1018900070007047704703681847000038B500F0C3
:1018A00035FB094D044695F870301BB1012000F05E
:1018B0003FFBF8E700F02AFB001BC728F6D9BDE87C
:1018C0003840FEF7EFBF00BF201702204FF0FF3176
:1018D00002F081BF07B502AB012243F8041D19468F
:1018E000FFF76EFE18B1019803B05DF804FB4FF0EE
:1018F000FF30F9E7A0F59460FFF7ECBF07B502A948
:10190000002301F8013D0122FFF7F6FE20B19DF80A
:10191000070003B05DF804FB4FF0FF30F9E7A0F5D6
:101920009460FFF7EBBF2DE9F04104460D461646E3
:101930001F46DDF81880FFF705FBD4F88C463CB154
:1019400043463A4631462846A446BDE8F041604742
:10195000BDE8F08170B50646FFF7F4FA06F5D264EB
:101960000025D6F8D036AB4208D92046103454F8BA
:10197000043C1BB11B6898470135F2E770BD90F835
:10198000703013B10368DB6B184718467047A0F539
:101990009760F4E7B0F5966F10B511D104210948AE
:1019A00002F091FF044658B1074B0360074903F06A
:1019B0002AF9224606490348BDE8104003F041B821
:1019C00010BD00BFF41D02209D18010095180100F4
:1019D0009718010010B4D0E9013401686210E407DF
:1019E00001EB020048BF8A585DF8044B48BFD3584A
:1019F000184710B4D0E9013401686210E40701EB24
:101A0000020048BF8A585DF8044B48BFD3581847B6
:101A1000134B03F1740270B50360C0F8A02403F106
:101A2000D402E4330446C0F8A424C0F8B83400F566
:101A3000D26600F5DA65AE4204D0103D2846FEF7C6
:101A400051FFF8E704F5BA6007F0A4FC04F59460D0
:101A500003F0C0FD2046FFF747FB204670BD00BFE6
:101A6000FC2E0200A0F59460FFF7D2BFA0F2A440C4
:101A7000FFF7CEBF10B50446FFF7CAFF204640F27D
:101A8000D46104F051FF204610BDA0F2A440FFF73E
:101A9000F1BFA0F59460FFF7EDBF00007FB50446ED
:101AA000FFF740FA1F4BC4F88C362046FFF742FA86
:101AB0001D4B03931D4B019320460023009402937A
:101AC000FFF730FAD4F8D056032D13D805F1690684
:101AD0006B1C04EB0616C4F8D0363046FEF702FF46
:101AE00004EB0515039BC5F89C361BB15B68694682
:101AF000304698472046FFF71DFA6846FEF7F2FE8B
:101B00000B4B03930B4B00930B4B01936946002344
:101B100004F5BA60029307F0B7FB6846FEF7E2FEF1
:101B200004B070BD95190100E82E0200391C0100B7
:101B3000DC2E0200F41D0220CD180100A0F59760F4
:101B4000FFF7ACBFF7B504461F4615460E4607F033
:101B500019FEBDF824300193BDF8203000932A46C9
:101B60003B4601462046FFF74DFC002104F59460FA
:101B700003F006FD4FF47A73C4F8C034224B23609F
:101B800003F174020025C4F8A02403F1D402E43365
:101B9000C4F8A424C4F8B8344FF480722946C4F8B9
:101BA000BC5404F599600DF06BFD184BC4F8D035AA
:101BB0002946C4F8C855C4F8E055C4F8CC5504F516
:101BC000C26005F0BBF804F5BA6704F2246005F0C2
:101BD00053F800952B464FF480521821384607F0F1
:101BE00047FBC4F89C56C4F8AC56C4F8BC56C4F8BD
:101BF000CC56C4F8D056C4F88C5616B12046FFF720
:101C0000BDFC204603B0F0BDFC2E0200BC44020027
:101C100038B50546FFF786F995F8903253B9D5F8EF
:101C20009844FF2C28BFFF24E4B22846FFF782F92E
:101C3000204638BD0024F8E710B50446D4F8C8257E
:101C4000D4F8CC359A42ADBFD4F8C835D4F8CC35E9
:101C5000D4F8C825D4F8CC25ABBFC3F1FF039B1A39
:101C60009B1803F1FF33BBB12046FFF7D1FF98B1BA
:101C7000236820461B6C9847D4F8C835D4F8CC2587
:101C80000133DBB29342D9D0D4F8C825224482F87C
:101C9000C804C4F8C835D1E710BD10B50446FFF735
:101CA000CBFFD4F8CC25D4F8C8359A421BBFD4F862
:101CB000CC35E4184FF0FF3094F8C80410BDA0F5FF
:101CC0009760EAE710B50446FFF7B6FFD4F8C805F9
:101CD000D4F8CC35C01A48BF00F5807010BDA0F50F
:101CE0009760EFE710B50446FFF7A6FFD4F8CC25C0
:101CF000D4F8C8359A421BBFD4F8CC351B194FF025
:101D0000FF3093F8C8041FBFD4F8CC350133DBB2E1
:101D1000C4F8CC3510BDA0F59760E3E790F87000EB
:101D20007047000037B5104C104D00226821204646
:101D300002F038FD2A460E49204604F0C0FB0D4C47
:101D400042F212030122CDE90032002211464FF483
:101D5000F8532046FFF7F6FE07492A46204603B00F
:101D6000BDE8304004F0ABBBF41D022000020020AF
:101D7000C347010020170220111A010008B50CF01A
:101D8000B5F92DE9F84306460D46071D00F1070990
:101D9000002417F8011B0A22284600F093F82E2190
:101DA0008046284600F02DF84F4540440444F0D1C9
:101DB0000A22F179284600F085F82044BDE8F8832E
:101DC000024B034A1A6000225A607047501E0220DC
:101DD0001430020070B5044608460D460EF030F887
:101DE00023680246294620465B68BDE870401847D4
:101DF00009B1FFF7EFBF0846704708B5FFF7F8FFD6
:101E000008BD03681B6818470149FFF7E3BF00BF1F
:101E10009C3E020038B50546FFF7EAFF0446284617
:101E2000FFF7F2FF204438BD70B58AB00D460AA90D
:101E3000002301F8043D012A98BF0A22B5FBF2F401
:101E400002FB1456F3B2092E94BF30333733DBB2A2
:101E5000254601F8013D002CF0D1FFF7C9FF0AB07B
:101E600070BD2DE9F04107460E4615462AB90368B4
:101E7000C9B21B68BDE8F04118470A2A05D10029FC
:101E800005DBBDE8F041FFF7CFBFD2B2F9E72D2166
:101E9000FFF7B7FF2A46044671423846FFF7C4FFF2
:101EA0002044BDE8F081FFF7DCBF10B42AB9036815
:101EB0005DF8044B1B68C9B21847D2B25DF8044BF9
:101EC000FFF7B2BFFFF7F1BF10B500F033F8FEF730
:101ED00081FCFFF703F8FEF7F8FF4FF4E131064805
:101EE000064CFFF7DBFDFEF721FAFEF7DDF9002CCB
:101EF000FBD0AFF30080F8E72017022000000000BD
:101F000010B5044600F027FF204610BD07B507496D
:101F1000684600F05DFF4FF47A720023DDE90001AE
:101F20000BF014FF03B05DF804FB00BF581E022045
:101F300007F038B9014800F018BF00BF581E022052
:101F400010B5054C204600F080FF2046034A0449A6
:101F5000BDE8104004F0B3BA581E02200002002071
:101F6000011F010008B590F900305A1C04D120224D
:101F70000E490F4803F08CFE012259B11F2B86BF7A
:101F800003F01F030B494FF0A04102FA03F3C1F81D
:101F9000083508BD1F2B86BF03F01F0305494FF00E
:101FA000A04102FA03F3C1F80C35F2E71830020041
:101FB00095300200000300502DE9F0411B4D060151
:101FC000AB198046DC680F469CB9FEF701FC8045E2
:101FD0004FF0010034BF15F906804FF0FF3804F0D0
:101FE0007DFC3544002304460370414602F0EBFEBD
:101FF000EC60012F10D006D3022F12D0204600F043
:10200000EEFB012103E0204600F0E9FB0021204621
:10201000BDE8F04100F0F0BB2046BDE8F04100F023
:10202000D1BB204600F0DBFB0321F0E708020020D3
:102030002DE9F34107468846FEF7CAFB874221D2C5
:10204000124C3E01A319DD68ADB9FEF7C1FB874212
:102050004FF0010034BFA7574FF0FF3704F03EFCAC
:1020600034440023054603700122CDF80080394630
:1020700002F0B3FEE5604146284602B0BDE8F041FB
:10208000FFF770BF02B0BDE8F08100BF080200207A
:10209000CB68C3600BB15B6818477047C36810B565
:1020A0002BB9054905484FF4FD7203F0F1FDBDE879
:1020B00010401B68184700BFAD300200CB30020053
:1020C000F8B50546064655F8044B8CB90D4F3868EF
:1020D00018B14FF0FF3106F091F9346824B9284661
:1020E00004F0CAFD2C463560386808B106F09EF948
:1020F000AC4204D0044905488B2203F0C9FD2046B8
:10210000F8BD00BFE8A60220D7300200F930020077
:10211000036801221B6900211847036800221B691C
:102120001146184780F84C130020704780F8501271
:102130000020704790F84C03704790F850027047A9
:1021400000207047012070476FF01C00704737B5C2
:1021500000F5467504462846019104F095FD019965
:10216000204600F066FD284604F0ACFD002003B0D8
:1021700030BDA0F1FC00FFF7EABF37B500F54675AA
:1021800004462846019104F07FFD0199204600F0A5
:1021900099FD284604F096FD002003B030BDA0F163
:1021A000FC00FFF7EABF10B4D0E901320168541017
:1021B00001EB6200D20748BF0A595DF8044B48BFE3
:1021C000D358184700207047012070476FF01C005B
:1021D000704700000C4B10B5036048330446C0F84C
:1021E000FC30D0F8540310B103685B68984704F5DD
:1021F0004F70FEF777FB04F5467004F07DFD204636
:1022000000F0CAFC204610BD30310200A0F1FC00F5
:10221000FFF7E0BF10B50446FFF7DCFF20464FF4A0
:10222000567104F081FB204610BDA0F1FC00FFF7C1
:10223000F1BFD0F8540308B520B100F0EBFA003834
:1022400018BF012008BD30B5002585B02A46694673
:102250000446039500F055FC6846FEF743FB84F8FE
:102260004E5305B030BD30B585B00025012269461A
:102270000446039500F045FC6846FEF733FB84F8FE
:102280004D5305B030BD10B5044603F001FED4E94E
:1022900040239A420ABF94F80841002484F00104C4
:1022A00003F00CFE204610BD38B500F54675044617
:1022B000284604F0E9FC04F503742046FFF7E3FF29
:1022C00048B9284604F0FEFC012004F043FC2846EF
:1022D00004F0DAFCF1E7284604F0F4FC002038BDF5
:1022E000A0F1FC00FFF7E0BF38B5054600F58070AF
:1022F000FFF7C9FF80F001042846E4B2FFF799FF19
:1023000018B144F40054204638BD03F0C1FD95F8DF
:10231000145303F0D3FD002DF5D144F01004F2E77F
:10232000A0F1FC00FFF7E0BF70B504460D4603F0D6
:10233000AFFD03F0ADFD94F8086103F0BFFD56B1A9
:10234000D4F80431FF2B03F101020ABF0023C4F8C3
:102350000421C4F80431D4F80021531CC4F800311E
:102360002978A154B3F5807F04BF0023C4F800315D
:10237000D4E940239A4204BF012384F80831BDE820
:10238000704003F09BBD38B504460D4603F080FD58
:102390002046FFF778FFB0B9D4F804315A1CC4F8CE
:1023A0000421E35C2B70D4F80431B3F5807F4FF047
:1023B000000308BFC4F8040184F80831012403F0C5
:1023C0007DFD204638BD0024F9E7000010B586B039
:1023D0000446684680E80C0006A800E90C0003915A
:1023E00010E90700034BE36084E80700204606B0CD
:1023F00010BD00BF1C31020030B587B000250B4B6B
:10240000009304462B460146084A019502A8FFF7AF
:10241000DDFF2A4602A9204600F073FB02A8FEF762
:1024200061FA012384F84E3307B030BD2325010043
:1024300038B5044600F0E8FA114B002503F1080214
:1024400050332260C4F8FC30C4E98055C4E9C35558
:1024500084F8085284F8145304F5467004F00CFC18
:10246000084BC4F84C3301232046C4F8485384F881
:102470005033C4F85453FFF7BFFF204638BD00BFA8
:10248000283102000100000110B586B00B4B00930B
:10249000044600230146094A019302A8FFF796FF6C
:1024A000012202A9204600F02CFB02A8FEF71AFA2E
:1024B000012384F84D3306B010BD00BF4126010052
:1024C00070B504460D4604F54F7603F0E1FCAE42CC
:1024D0000AD03046FEF706FAEB68C4F848331BB161
:1024E0005B68294630469847D4F8483343B147F6ED
:1024F000FF712046FFF7F8FE10B13046FFF7CEFD22
:10250000BDE8704003F0DABCA0F1FC00FFF7D8BFD3
:1025100008B5D0F848331BB100F54F70FFF7BEFD8A
:1025200008BDF7B500F5807504462846FFF7ABFEF9
:10253000064603F0ADFC94F8087203F0BFFC77B9CF
:10254000204600F0BCFA50B1204600F05FFB0DF1D0
:1025500007018DF807002846FFF7E6FEE9E794F843
:102560004E334BB103F094FC94F8087203F0A6FCD0
:1025700017B12046FFF767FE4EB12846FFF783FEEE
:1025800028B9204603B0BDE8F040FFF7C1BF03B053
:10259000F0BD2DE9F743064689461546002A49D085
:1025A00000F54677384604F06FFB06F58078404624
:1025B000FFF769FE044698B196F84C33384633B9B4
:1025C00004F080FB6FF00A0003B0BDE8F08304F074
:1025D00079FB012004F0BEFA384604F055FBE6E72B
:1025E00009EB040140460191FFF74DFE30B9019916
:1025F00040460134FFF7C7FEA542F1D103F048FC85
:1026000096F850337BB196F84E3363B93046FFF7F6
:1026100088FF03F03DFC96F8085203F04FFC15B913
:102620003046FFF7E9FE03F049FC384604F04AFB68
:102630002046C9E71046C7E7A0F1FC00FFF7A9BF95
:1026400073B5044603F024FC94F8145303F036FCED
:1026500004F50376204600F043FA58B10DF1070166
:102660003046FFF790FE28B19DF80710204600F095
:10267000D0FAEFE794F84D333BB104F50370FFF760
:1026800002FE10B12046FFF7EEFD6DB103F000FC35
:1026900094F8145303F012FC35B92046FFF7C9FD36
:1026A00010B92046FFF734FF02B070BDF8B50546FB
:1026B0000C46164600F503773846FFF7E4FD40B1B7
:1026C000A719BC4209D014F8011B284600F0A1FA52
:1026D000F7E72846FFF7B4FFEEE73046F8BD2DE9EF
:1026E000F84F05460F461646002A65D003F0CDFB8D
:1026F000044630B1324639462846BDE8F84FFFF768
:10270000D5BF05F54679484604F0BEFA05F5037ACB
:1027100003F0BEFB95F8148303F0D0FBB8F1000F73
:1027200014D1A7EB0408A64208EB040724D903F050
:10273000AFFB95F814B303F0C1FBBBF1000F1BD145
:1027400039465046FFF7F0FD0134ECE795F84C337D
:1027500043B3484604F0B6FA012004F0FBF94846BA
:1027600004F092FA03F094FB95F8148303F0A6FBAF
:10277000B8F1000FEDD1D4E703F08AFB95F84F33A1
:1027800063B195F84D334BB92846FFF759FF5046D2
:10279000FFF779FD10B92846FFF776FE03F08EFBB0
:1027A000A642B5D8484604F08DFA002C14BF204646
:1027B0006FF00A00BDE8F88F1046FBE7A0F1FC00BF
:1027C000FFF78DBF07B5019003F062FB019801216F
:1027D00007F0AEFC03B05DF804EB03F06FBB07B588
:1027E000019003F055FB0198002107F0A1FC03B014
:1027F0005DF804EB03F062BB07B5CDE9001003F010
:1028000047FBDDE9001007F071FC03B05DF804EB55
:1028100003F054BB043007F03BBC7047416830B450
:10282000034671B1D0E9032000F0010402B944B1BC
:10283000451001EB60000CB149598A58996830BCC9
:10284000104730BC7047000070B500F14C0690F99D
:10285000DF2090F9DE100446304607F08DFFD4E902
:1028600039530DB9DA070ED55A1004EB6300DB07B4
:1028700048BFA35894F8EC1048BF5D5994F9ED2077
:1028800094F9EE30A847D4F8D810304608F08AF80A
:10289000224630460249BDE8704008F05BB900BFEF
:1028A000212C010070B5044600F14C05D0F8E01071
:1028B000284602F005FDD4F8F020A2B1D4F8E430A7
:1028C0001BB9D4F8E830D8070DD5D4F8F810D4F8EF
:1028D000F4304E1004EB6100C90744BFA159CB5836
:1028E00094F8EC109847D4F8D810284608F05AF815
:1028F000224628460249BDE8704008F02BB900BFC7
:10290000212C01002DE9F0411F46D0F8E0300446AB
:102910000D4616462BB11749174840F2271203F00F
:10292000B7F9164AC0E9392303681B68984784F849
:10293000EC5084F8ED6084F8EE70032D0BD8DFE8DE
:1029400005F0150210154FF0FF333246012104F156
:102950004C0008F0D9F8236820465B68BDE8F041D8
:10296000184733464FF0FF320221F0E73B4632462C
:102970002946ECE7C0310200E831020005290100D8
:102980002DE9F04198461D4B03601D4B4360002527
:102990001C4B85600446C0E90555C0E907550F4644
:1029A0001646C360858445634564A0F848506C2290
:1029B000294600614C300CF063FE40F20113A4F88C
:1029C000DC304FF47F43A4F8EC30FF232046C4E909
:1029D0003558C4E93855C4E93C55C4F8C45084F8A6
:1029E000DE7084F8DF60C4F8E85084F8EE30C4F894
:1029F000F850FFF729FF2046BDE8F08108320200B9
:102A0000492801001D280100F8B51E4B03601E4B2C
:102A1000436000251D4B856004460E46C0E9055500
:102A2000C0E907551746C360858445634564A0F82F
:102A300048506C22294600614C300CF021FEC4E95C
:102A40003557C4F8C45040F20113A4F8DC30337990
:102A500084F8DE30337B84F8DF304FF47F43A4F812
:102A6000EC30FF232046C4E93865C4E93C55C4F87E
:102A7000E85084F8EE30C4F8F850FFF713FF204612
:102A8000F8BD00BF08320200A52801001D28010082
:102A90007FB50546044655F84C6B0193CDE90221FC
:102AA0003668B047DDE901322846039907F0F4FFA4
:102AB00023685B68204604B0BDE87040184738B50D
:102AC0000546044655F84C3B1B689847284608F0D5
:102AD000F5F8236805465B6820469847284638BDC8
:102AE00038B50546044655F84C3B1B6898472846C0
:102AF00008F004F9236805465B6820469847284695
:102B000038BD03682DE9F34105461B6816460F469C
:102B1000984795F8DC30340103B1B6B195F8DD3053
:102B20000BB1012E11D0B8342819B84206D001904B
:102B3000FDF7D8FE01983946FFF7AAFA2B685B68C3
:102B4000284602B0BDE8F0411847B83403F0A0F9B8
:102B50002C44FA68E36805F14C089AB10BB903F00C
:102B600033FCA74206D02046FDF7BCFE394620467E
:102B7000FFF78EFA01223146404607F0FBFF03F0D3
:102B80009DF9DBE70BB103F035FC2046FDF7AAFE0B
:102B90000022E260EFE7000030B5164B036085B01D
:102BA00000252A46694604460395FFF7AAFF6846B2
:102BB000FDF798FE0122694620460395FFF7A1FF25
:102BC0006846FDF78FFE04F1C800FDF78BFE04F1A7
:102BD000B800FDF787FE04F13800FDF783FE04F12D
:102BE0002800FDF77FFE206A08B102F06FFB204647
:102BF00005B030BD0832020010B50446FFF7CCFF27
:102C00002046FC2103F090FE204610BD4C3007F01A
:102C1000DDBF10B54C300C4608F01AF8204610BD48
:102C200000EB0110B83008B5C3680BB1FFF736FAF6
:102C300008BD036870B504461B680D46984794F8B4
:102C4000DC30AB422BD065B194F8DD304BB9A268D3
:102C50006368511004EB6200D20744BF6258D35836
:102C6000984703F015F905B3D4F8C4305BB104F10B
:102C7000B800FFF713FA03F0A7FB0122002104F1CB
:102C80004C0007F077FF03F019F984F8DC5035B9F0
:102C900094F8DD301BB904F14C0007F04DFE2368B9
:102CA00020465B68BDE8704018472A46294604F173
:102CB0004C0007F05FFFD4F8C430002BE3D003F0E2
:102CC00099FBE0E7036870B504461B680D4698471A
:102CD00094F8DD30AB422BD065B194F8DC304BB9C1
:102CE000A2686368511004EB6200D20744BF6258C7
:102CF000D358984703F0CCF805B3D4F8D4305BB17F
:102D000004F1C800FFF7CAF903F05EFB0122114687
:102D100004F14C0007F02EFF03F0D0F884F8DD50EA
:102D200035B994F8DC301BB904F14C0007F004FE0F
:102D3000236820465B68BDE8704018472A46012199
:102D400004F14C0007F016FFD4F8D430002BE3D088
:102D500003F050FBE0E7437D10B504461BB1037D53
:102D60000BB103F047FB204610BD13B5044601A884
:102D700002F0B4FA637D53B9237D0BB103F024FB59
:102D8000206902F064FAC4E900010123637501A817
:102D900002F0ACFA02B010BD37B504460D4601A8EA
:102DA00002F09CFA00230022C4E900236B7D4BB1A2
:102DB000286902F04CFAD5E90032C01A61EB020131
:102DC000C4E9000101A802F091FA204603B030BD29
:102DD00030B585B004460D4603A802F07FFA2946B7
:102DE0006846FFF7D9FFD5E90210009B019A5B18EE
:102DF00042EB0002C4E9003203A802F077FA204651
:102E000005B030BD13B5044601A802F067FA206989
:102E100002F01DFA00220023C4E90001C4E90223E4
:102E200001A802F063FA02B010BDD0B5002300265D
:102E30000027C0E90067C0E9026704460161027526
:102E40004375FFF7DFFF2046D0BD10B5044601F003
:102E5000E1FF002201462046FFF7E7FF204610BDB4
:102E600003681B681847000010B50446074B236031
:102E700000220023C4E9022300230846A161C4E91B
:102E80000433034902F05CF9204610BD20320200F1
:102E9000612E010007B5009000F10801806902F081
:102EA0008EF903B05DF804FB00F10801806902F0BF
:102EB000B3B9002070476FF01C0070476FF01C0022
:102EC00070476FF0150070476FF0150070470120D4
:102ED000704701207047002070470020704770B590
:102EE00011F0010405468EB204D0FFF7E8FD041E80
:102EF00018BF0124F30605D52846FFF7F1FD08B1F8
:102F000044F01004204670BDA0F1FC00FFF7E7BFBD
:102F100010B5034B03600446FFF73EFE204610BD8C
:102F20002C320200A0F1FC00F2E700BF10B504460D
:102F3000FFF7EEFF20464FF4807103F0F5FC2046CA
:102F400010BDA0F1FC00F1E72DE9F04106460D4669
:102F50001746C2B102F099FF80F0010313F0FF049D
:102F600003D0336830461B68984705EB070815F80F
:102F7000011B3046FFF74DFEA845F8D11CB1336860
:102F800030465B6898473846BDE8F081A0F1FC0008
:102F9000FFF7DABF38B504460D4662B103681B6817
:102FA00098472046FFF732FE2870236820465B686A
:102FB0009847012038BD1046FCE7A0F1FC00FFF760
:102FC000E9BF000010B50446FFF7DAFC044B03F13B
:102FD00008023C332260C4F8FC30204610BD00BF1C
:102FE0002432020030B5056885B00446CDE90221DF
:102FF00001932D68A847DDE9013220460399FFF7C8
:1030000081FC23685B68204605B0BDE83040184766
:1030100030B5044685B004F1080502F039FF2946B1
:103020006846FFF735F82846FDF75CFCE0690023A9
:10303000C4E9053308B103F0A7FE02F03FFF039B8C
:1030400013B11B68684698476846FDF74BFC05B00E
:1030500030BD0000002204494260C0E90522016041
:10306000C2610284704700BFF8320200074B10B5FE
:1030700003608369044623B105490648262202F00D
:1030800007FE0830FDF72EFC204610BDF832020086
:10309000A8320200D132020070B504460E4602F09A
:1030A000F7FEA56965B104F10800FDF71BFC0023DC
:1030B0000122636184F82020E36184F82160A36128
:1030C00002F0FCFE2DB121462846BDE8704000F01C
:1030D0002EB970BD08B103F0D7BD02F0D9BE08B15A
:1030E00003F0F0BD02F0EABE2DE9F041044686B0DF
:1030F0000E46174602F0CCFEA56902F0DFFE35B39E
:1031000001AD0021284603F019FE02F0C1FED4E90A
:10311000068323B10F491048392202F0B9FDE56159
:1031200002F0CCFEB8F1000F0ED03946284603F06D
:103130000DFE48B93046FFF7CDFF20460121FFF7CD
:10314000ABFF3046FFF7CBFF284603F020FE06B06A
:10315000BDE8F081A8320200DF3202000022C0E99F
:103160000122012201600273704770470346007B11
:1031700030B1D3E90020136898428CBF00200120B1
:1031800070472DE9F0410468012606FA01F1002399
:10319000271D82EA060E17F813400C4204D004F0F3
:1031A00030043AB1102C07D10233202BF3D14FF069
:1031B000FF300DE0002CF7D0D0F808C042EA03053C
:1031C00006FA05F818EA0C0FEED1202C02D028469A
:1031D000BDE8F0814EEA030406FA04F414EA0C0F89
:1031E000F5D0E1E770B50D4611462A4604461E4665
:1031F000FFF7C7FF002802DA0020207370BD2568A2
:103200006368420805EB8205E98819446B7906FB7F
:1032100003136360012303FA00F1A36842EAC010BC
:103220000B43A360C0B2E9E713460A460121FFF74A
:10323000D9BF13460A460021FFF7D4BF13B50A468B
:10324000019100210446FFF7EFFF019A002120467B
:1032500002B0BDE81040FFF7ECBF0022C0E9002239
:10326000704770470068704700230B60436813B9CC
:103270000160416070471960FBE703682BB11A6871
:1032800002B94260026000221A601846704710B509
:103290000468002223468B4203D083B11A461B6880
:1032A000F9E70AB10B6813608C4204BF0B68036036
:1032B00043688B424FF0000308BF42600B6010BDB3
:1032C00010B50446FFF7C9FF204610BD08B5FFF74B
:1032D000C9FFB0FA80F0400908BD70B50546284620
:1032E000FFF7C0FF044678B150F8043C061F9B6806
:1032F0003046984740B12846FFF7BFFF54F8043CDA
:103300003046DB689847EAE770BD70B504460D4665
:10331000FFF7A8FFAC610646291D2046FFF7A4FF72
:1033200026B92046BDE87040FFF7D7BF70BD70B525
:1033300005460C46FFF796FF064604B104342146C5
:103340002846FFF7A4FFA64204D12846BDE87040F6
:10335000FFF7C3BF70BD10B504462046FFF782FFDC
:1033600028B150F8043C0438DB689847F5E710BDF5
:1033700010B50446FFF7EFFF2046FFF772FF204627
:1033800010BD7047704703689B6D184770B586B0D5
:103390000023CDF806308DF80A3003898188C28871
:1033A0008DF810301B0A12248DF8113003230225EA
:1033B00090F820638DF804408DF80C100124090A60
:1033C0008DF80E208DF81430120A00F10A038DF8E2
:1033D00005408DF807508DF80B608DF812408DF880
:1033E00013508DF815408DF80D108DF80F2001AC9D
:1033F00005AE1D46224603CAB24218605960144603
:1034000003F10803F6D112881A80284606B070BD71
:1034100000487047E0350200004870471836020047
:1034200000487047E4350200004870472A36020021
:10343000004870471036020000487047FA35020015
:10344000036810B504465B6F9847D4F8EC02036834
:103450001B6F9847236820469B6FBDE810401847B4
:1034600038B5D0F83433012B044610D10025D4E907
:10347000C93000F0010203B94AB14110C4E9C9558D
:1034800004EB60000AB16258D3589847EFE7D4F8CC
:1034900034332BB90649074840F2C66202F0F8FB04
:1034A000013BC4F83433BDE8384002F007BD00BF2B
:1034B000083302003333020008B5D0F834332BB997
:1034C0000349044840F2CD6202F0E2FB08BD00BFB0
:1034D000083302003333020010B5044602F0D8FC72
:1034E000D4F834330133C4F834332BB903490448D6
:1034F0004FF4D76202F0CCFB10BD00BF08330200CE
:1035000033330200036873B50446DB6F9847B4F8A1
:10351000F8120B0A022B25D0032B56D0012B04D115
:10352000236820461B6B984708B9002018E02368E1
:1035300020461B6B98470678122EF6D1236820464A
:103540001B6B98474578012DEFD12368C4F80463BD
:103550001B6B2046984784F80853C4F8000328469C
:1035600002B070BD2368C9B25B6B019120469847D9
:103570000028DAD0236801995B6B204698470378CE
:103580000199092BD1D1236820465B6B984743787A
:103590000199022BC9D1236820465B6B98472368A9
:1035A00085785B6B019920469847C378019945EA75
:1035B00003252368C4F804535B6B20469847C4F87E
:1035C0000003012084F80803CAE7C9B20529ACD872
:1035D000DFE801F0030F19232D37236820469B6B8A
:1035E00098470378C4F8043323689B6B20469847B8
:1035F000E5E723682046DB6B98470378C4F804337B
:103600002368DB6BF2E7236820461B6C984703783E
:10361000C4F8043323681B6CE8E7236820465B6C1E
:1036200098470378C4F8043323685B6CDEE72368AB
:1036300020469B6C98470378C4F8043323689B6C3E
:10364000D4E723682046DB6C98470378C4F804333A
:103650002368DB6CCAE70B78DB0913700B78C3F3C4
:10366000411353700B7803F01F0393704B78D370A2
:103670004B8893808B88D380CB8813817047000060
:10368000036870B504465B6F0D46984794F80C3399
:10369000022B05D009490A4840F23D1202F0F8FA1F
:1036A000084BC4F824330023C4F82833236884F873
:1036B000105320469B6FBDE8704018470833020046
:1036C0003F330200B53B010038B503680446DB6FA9
:1036D000984794F8083313B10025284638BDD4F82C
:1036E000EC0203685B6C9847D4F804239042F3D84B
:1036F000D4F80013121A0144C4F80013C4F80423C8
:10370000A2B994F80A53022384F80C3345B1236814
:1037100084F80A239B6E04F53D7120469847DCE748
:1037200001212046FFF7ACFF0125D6E7D4F8EC02D3
:10373000D4F820430368A2421B6C28BF2246984756
:10374000F2E70000036813B50446DB6F984794F86E
:103750001C33012B06D800230F4900931A460F484B
:1037600002F0FEFC94F80C3323B100230C490093C3
:103770001A46F4E794F80B33032B0BD02046FFF7DF
:10378000A3FF38B9D4F8EC020368DB6C02B0BDE8E3
:103790001040184702B010BD6A3302000E011580B8
:1037A0009233020038B503680446DB6F984794F8FB
:1037B0000833012B3BD1D4F8045335B994F80933BD
:1037C0000BB901252CE084F80953D4F82023D4F850
:1037D000EC02D4F800130368954228BF15462A4628
:1037E0009B6C9847D4F80033D4F804232B44551B22
:1037F000C4F80033C4F80453002DE2D194F809232F
:10380000002ADED194F80A53022384F80C334DB118
:10381000236884F80A239B6E04F53D71204698477F
:10382000284638BD01212046FFF72AFFC9E70025B9
:10383000F6E70000036813B50446DB6F984794F879
:103840001C33012B06D800230B490C4800931A4661
:1038500002F086FC94F80B33032B0BD02046FFF7C5
:10386000A1FF38B9D4F8EC020368DB6C02B0BDE804
:103870001040184702B010BD6A3302000E011580D7
:10388000036870B504465B6F0D46984794F80C3397
:10389000032B05D009490A484FF4C37202F0F8F926
:1038A000084BC4F824330023C4F82833236884F871
:1038B000105320469B6FBDE8704018470833020044
:1038C000DC3302007346010010B503680446DB6F69
:1038D0009847012004F21D33C4F80033C4F80403F0
:1038E00084F8080310BD036810B50446DB6F9847E1
:1038F00094F81C33042B01BFB4F82E33A4F8FA3229
:10390000012004F54C7303BFC4F80033C4F804036A
:1039100084F80803002010BD036810B5DB6F04466F
:103920009847042384F80C33236894F8F8221B6F1B
:10393000B4F8FA1220469847012010BD036870B50C
:1039400004465B6F0D46984794F80C33042B05D062
:1039500009490A484FF4EB7202F09AF9084BC4F88F
:1039600024330023C4F82833236884F810532046F6
:103970009B6FBDE87040184708330200083402000E
:10398000453C0100036810B50446DB6F984794F886
:103990001C33042B02D0B4F8FA328BBB94F8F63205
:1039A000012B0FD0022B10D053BB164B01221A80D3
:1039B000144BC4F8003301200223C4F8043384F804
:1039C000080310BD0F4B0022F1E7B4F8FA2222F0F1
:1039D0008F03ABB912F00F0F0A4902D100230B80FD
:1039E000E6E7530003F01E0343EAD213023B18221A
:1039F00002FB034393F830309B07EFD50123EEE73A
:103A00000020DEE7701E022010B50368044690B067
:103A1000DB6F9847D4F8EC02D4F82023036869469A
:103A2000DB6B984704F53D7269462046FFF713FEAD
:103A30000023C4F80833C4E9C033012384F80C33ED
:103A4000236811465B6E984710B010BD036813B52C
:103A50000446DB6F984794F81C33012B06D80023EB
:103A60000A490B4800931A4602F07AFB94F80C239B
:103A7000012384F82C332AB9204602B0BDE8104057
:103A8000FFF7C2BF84F82D3302B010BD6A330200C5
:103A90000E0115802DE9F0411D46036804465B6F59
:103AA0000F461646984794F80C33012B05D00B4966
:103AB0000B4840F2BA2202F0EBF80A4BC4F8243368
:103AC0000023C4F82833236884F81073C4E9C5655B
:103AD00020469B6FBDE8F041184700BF0833020045
:103AE00030340200E7440100036870B50446DB6F20
:103AF0009847B4F8FC2292B394F8F41294F808337F
:103B0000012925D1012B06D0D4F8EC020368DB6C27
:103B1000BDE870401847D4F80433934201D9C4F883
:103B200004230129D4F8043326D19A4208D9D4F8C1
:103B30002023B3FBF2F002FB10330BB984F8091316
:103B4000022384F80B332046BDE87040FFF72ABEFD
:103B5000002BD9D1D4F804339342E2D0D4E7D4F87F
:103B6000EC02D4F804230368002AD0D1032184F89E
:103B70000B139B6C11460EE0D4F8EC020122016895
:103B800084F80B23D4F820230D6CD4F800139A4248
:103B900028BF1A462B46BDE87040184710B5036889
:103BA0000446DB6F9847002384F82D33032384F801
:103BB0000B3310BD036810B5DB6F04469847002235
:103BC00084F80C2394F82D2394F8103322B1204666
:103BD000BDE81040FFF7E2BF33B9D4F8EC02036848
:103BE000BDE81040DB6C184794F80B33012B0AD169
:103BF000D4F8EC02032384F80B3303689B6CBDE814
:103C0000104011461847022B07D1D4F8EC020323C9
:103C100084F80B3303681B6CF1E710BD036810B523
:103C2000DB6F04469847002384F82C3394F80C3358
:103C300023B92046BDE81040FFF7B0BF012384F848
:103C40002D3310BD036810B5DB6F04469847002282
:103C500084F80C2394F82D2394F8103322B12046D5
:103C6000BDE81040FFF79ABF63B1B4F8FA32A4F888
:103C70002E33B4F8F83284F830332046BDE81040D3
:103C8000FFF732BFD4F8EC020368BDE81040DB6CEC
:103C90001847036810B504465B6F984794F8F032F4
:103CA00083B9D4F8EC02036821469B689847D4F89E
:103CB000EC02036840219B6B98470123C4F8200362
:103CC00084F8F032236820469B6FBDE81040184707
:103CD00038B5036804465B6F984794F81C53236813
:103CE00020469B6FEDB298472B1F5842584138BD74
:103CF000036810B55B6F044698472046FFF7C9FF7D
:103D000094F8F1323BB9D4F8EC0203685B69984748
:103D1000012384F8F132236820469B6FBDE81040F0
:103D2000184700002DE9F04F904685B002680391D6
:103D3000526F0293DDF8389005469047039911F0D1
:103D4000700F03D111F00F0F029B06D100232B49F6
:103D50002B4800931A4602F003FA95F8F2723FB925
:103D60002B6828469B6F9847384605B0BDE8F08F12
:103D70004C0004F01E0444EAD114A61E4FF0180BA8
:103D80000BFB065A9AF83020D20705D51D491E486C
:103D90004FF48E6201F07CFFB8F5806F04D91949A9
:103DA0001A4840F27142F5E7D5F8EC020268176D47
:103DB0004246B84707460028D2D0601E0BFB005091
:103DC000043048450BD00290FCF78CFDD9F80C303C
:103DD000CAF828301BB15B680298494698471823F7
:103DE00003FB065696F83030A6F82C8043F001030A
:103DF00086F83030002386F83130B1E753340200C2
:103E00000401158008330200723402009434020069
:103E1000D0F8EC0203685B6B18470000F8B50F465A
:103E20001949044640F81C1B0025064604F53B7161
:103E3000F5601836B142FBD1E380BDF8183023811C
:103E4000A28000214FF434720BF01AFC28220021CA
:103E500004F53D700BF014FC0123C4E9C855C4E916
:103E6000CA55C4F8EC72A4F8F05284F8F252C4F8BF
:103E7000345384F8305384F81C3384F81D5384F889
:103E80001E532046F8BD00BF6035020038B50368F8
:103E90005B6F0D46044698472B071FBF6A0002F070
:103EA0001E0242EAD513023B1BBF182202FB03434A
:103EB000D4F820539D8D236820469B6F9847284651
:103EC00038BD00000368F7B55B6F0E46054698479E
:103ED00036F08F0701D1320706D100231749184861
:103EE00000931A4602F03CF9740004F01E0444EA00
:103EF000D6141823023C03FB045494F83030DB073B
:103F000009D42846FFF7E4FE80B10E490E4840F27E
:103F10008C5201F0BDFE94F831303BB1D5F8EC0283
:103F200003683146DB6E984784F831702B689B6FCD
:103F3000284603B0BDE8F040184700BF53340200E4
:103F40000401158008330200AC340200036873B525
:103F50005B6F0E460446984716F0700F01D131078B
:103F600006D100231A491B4800931A4602F0F8F8BC
:103F7000750005F01E0545EAD6151823023D03FB22
:103F8000054595F83030DA0709D42046FFF7A0FE42
:103F9000B0B11149114840F2CC4201F079FE43F032
:103FA000020385F83030D4F8EC02036831469B6D8B
:103FB000984795F831301BB131462046FFF782FF14
:103FC00023689B6F204602B0BDE87040184700BFD1
:103FD000533402000401158008330200AC3402009F
:103FE000036810B50446DB6F984794F81C33042B24
:103FF00002D0B4F8FA32A3B994F8F632022B10D1F9
:10400000B4F8FA1231F08F000BD111F00F030AD07F
:10401000B4F8F83223B92046C9B2FFF797FF012060
:1040200010BD0020FCE71846FAE70000036873B5EE
:104030005B6F0E460446984716F0700F01D13107AA
:1040400006D100231C491D4800931A4602F088F847
:10405000750005F01E0545EAD615023D182303FB41
:10406000054393F83020D20709D42046FFF730FEED
:10407000D8B11349134840F2F14201F009FE93F818
:1040800031301BB131462046FFF71CFF182303FBDC
:104090000545314695F8303023F0020385F830307D
:1040A000D4F8EC020368DB6D984723689B6F2046C9
:1040B00002B0BDE870401847533402000401158077
:1040C00008330200AC340200036810B50446DB6F0D
:1040D000984794F81C33042B02D0B4F8FA32A3B9F1
:1040E00094F8F632022B10D1B4F8FA1231F08F00A6
:1040F0000BD111F00F030AD0B4F8F83223B92046DF
:10410000C9B2FFF793FF012010BD0020FCE718465D
:10411000FAE700002DE9FF419846036803920E4636
:104120005B6F0746984736F08F0403D116F00F0FE8
:10413000039A06D100232049204800931A4602F032
:104140000FF8750005F01E0545EAD6151823023D47
:1041500003FB057595F83030DB070AD43846FFF7C6
:10416000B7FD044688B11649164840F2AF5201F037
:104170008FFDAB8D434505D9134914480094234660
:104180002246DCE795F8311039B13B6838469B6F21
:104190009847204604B0BDE8F081D7F8EC020168EA
:1041A0000C6E3146A04704460028EED095F8313019
:1041B000013385F83130E8E75334020004011580FB
:1041C00008330200AC340200BA3402000501158045
:1041D000036837B55B6F0D460446984715F0700FBE
:1041E00001D12A0706D100231549164800931A4623
:1041F00001F0B6FF6B0003F01E0343EAD513023B48
:10420000182202FB034393F83030DB070AD4204620
:10421000FFF75EFD054660B10B490C4840F2E952DC
:1042200001F036FDD4F8EC02036829465B6E98472E
:104230000546236820469B6F9847284603B030BD4B
:10424000533402000401158008330200AC3402002C
:104250002DE9FF419846036803920E465B6F0746BF
:10426000984736F08F0503D116F00F0F039A06D149
:1042700000232249224800931A4601F071FF74007E
:1042800004F01E0444EAD6141823023C03FB047411
:1042900094F83030DB070AD43846FFF719FD05469D
:1042A00088B11849184840F20A6201F0F1FCA38D68
:1042B000434505D21549164800952B462A46DCE7AA
:1042C00094F831303BB13B6838469B6F984728469D
:1042D00004B0BDE8F081D7F8EC02036831469D6E6A
:1042E0004346A847054638B194F83130A4F82E80EB
:1042F000013384F83130E6E7E085E4E70B3502006E
:104300000401158008330200AC3402002935020094
:1043100005011580036837B55B6F0D460446984765
:1043200015F0700F01D1290706D100231249134857
:1043300000931A4601F014FF6A0002F01E0242EADE
:10434000D513023B182202FB034393F83020D20717
:104350000AD42046FFF7BCFC054630B1084909489D
:1043600040F2496201F094FCDD8D236820469B6F8A
:104370009847284603B030BD53340200040115802D
:1043800008330200AC340200036870B50446DB6FEA
:104390000D46984794F81C2384F81C53AA42D3B2C4
:1043A00026D0032B09D9032D8CBF00260126012B13
:1043B00005D9012D03D88EB103E00026F7E786B1B9
:1043C00000264FF43472002104F11C000BF058F960
:1043D000002384F81D3384F8F23216B12046FFF72B
:1043E0001DFC2368294620461B6EBDE87040184717
:1043F00070BD036810B50446DB6F9847D4F8EC0233
:1044000094F8F8120368DB6A9847B4F8F8322BB9CD
:1044100002212046FFF7B8FF012010BD0321F8E775
:10442000036810B50446DB6F984794F8F81284F8D7
:104430001D1351B9D4F8EC0203681B6A9847032195
:104440002046FFF7A1FF012010BD012384F8F232BE
:10445000032384F80C3323682046DB6E9847F2E789
:10446000036810B50446DB6F984794F8F532C3BB78
:1044700094F8F7320B2B34D8DFE803F0060B331037
:1044800033151A331F24292E2046BDE81040FFF7AC
:1044900079BA2046BDE81040FFF716BE2046BDE8B9
:1044A0001040FFF79DBD2046BDE81040FFF7A1BFBB
:1044B0002046BDE81040FFF725B82046BDE8104073
:1044C000FFF702BA2046BDE81040FFF7A9BF20461B
:1044D000BDE81040FFF707BA2046BDE81040FFF7DF
:1044E0001BBA002010BD036810B5DB6F0446984767
:1044F000002084F80C0394F82D0394F81033D4E9C9
:10450000C52190B1012B0BD8022384F80C3323680A
:1045100004F53D7120469B6EBDE81040012218470E
:104520002046BDE81040FFF739BB042B12D12046CE
:10453000FFF796FF30B9D4F8EC020368BDE81040ED
:10454000DB6C184794F80C3373B92046BDE8104073
:10455000FFF7CABA032BEED00120C4E9C02184F8CA
:104560000A0384F80833F0E710BD036810B5DB6F69
:104570000446984720460221FFF706FF002384F8EF
:104580001E332046FFF74AFB23682046DB6DBDE85B
:1045900010401847036810B504465B6F984794F8BD
:1045A000F1323BB1D4F8EC0203689B6998470023D1
:1045B00084F8F13294F81C33012B03D901212046F1
:1045C000FFF7E2FE002384F81D3384F81E332368CE
:1045D00020469B6FBDE810401847036810B504469D
:1045E0005B6F984794F8F03253B12046FFF7D2FF43
:1045F000D4F8EC020368DB689847002384F8F032B3
:10460000236820469B6FBDE8104018470D4B70B5DE
:10461000036090F8F03204462BB10B490B4840F28E
:10462000625201F035FBFFF7D8FF04F53B7504F14A
:104630001C06B54204D0183D2846FCF753F9F8E7AC
:10464000204670BD60350200083302004A35020082
:1046500038B503680D46DB6F0446984745B994F8B2
:104660001C332BB129462046BDE83840FFF78CBEED
:1046700038BD036870B50446DB6F984794F82D3356
:1046800094F8106303B97EB92046FFF721FB054675
:1046900050B901464FF4347204F11C000AF0F0FFE7
:1046A00084F81D5384F8F252002384F80C3394F8F4
:1046B0002D3323B12046BDE87040FFF76FBAD4F820
:1046C000EC02036856B1DB69984720460421FFF7E6
:1046D0005BFE2046BDE87040FFF706BABDE87040BB
:1046E000DB6C1847036837B5DB6F0D460446984707
:1046F00015F0700F01D12B0706D100230F49104888
:1047000000931A4601F02CFD6B0003F01E0343EAF0
:10471000D5118B1E182505FB034393F8312052B1A8
:10472000481E05FB0040013A043083F83120C3687D
:104730000BB1FDF7B3FC03B030BD00BF5334020032
:1047400004011580036837B5DB6F0D4604469847B2
:1047500015F0700F01D12B0706D100230F49104827
:1047600000931A4601F0FCFC6B0003F01E0343EAC1
:10477000D5118B1E182505FB034393F8312052B148
:10478000481E05FB0040013A043083F83120C3681D
:104790000BB1FDF783FC03B030BD00BF5334020002
:1047A0000401158038B500230446836519B90A460B
:1047B00000F013F803E0002AFAD100F046F8204692
:1047C00038BD10B5044600F053F804F14C00FCF776
:1047D00089F8204610BD00F055B9032938B50446C4
:1047E00007D9D31C23F003039A1A891A21F0030175
:1047F0001A460023C4E90433E2600D4605BBC4E950
:1048000006512262256000F001FA00F001FAC4E9C5
:104810000A556060258184F8245004F1300000F0CE
:1048200017FA00280BDB04F1440000F009FA002815
:1048300005DB04F1480000F003FA00EAE07038BD3F
:104840002369013323616D08D8E737B5054608466B
:1048500001910AF0C5FA044638B10246019928468A
:10486000FFF7BBFF6C6103B030BD4FF0FF30FAE7DC
:1048700070B505680446B5B9A36A1BB1E06A4FF08C
:10488000FF31984704F1480000F0DCF904F14400DE
:1048900000F0D8F904F1300000F0E2F96069BDE8F9
:1048A00070400AF0A5BAEE6836B9EB6913B105F1AC
:1048B00024009847AD68DEE7F36913B106F12400E0
:1048C0009847F668F0E773B50646273148300190FF
:1048D00021F0030500F0B7F9B469019806F1180357
:1048E0005CB9F3699D4223D8346A5B1BF36162199A
:1048F000012332622560237107E02268954213D8B4
:10490000E26872B11A60A368936000F09EF9002318
:104910004FF0FF32C4E90532E3612434204602B08F
:1049200070BDA2681A60F0E704F10803A468D7E735
:1049300000F08BF9F2E751F8083C73B505460C46D8
:104940000BB108469847EB6833B1A4F12406B34293
:1049500002D82B6AB34204D2002304F8203C02B0F0
:1049600070BD05F14800019000F06DF9AB69019848
:1049700005F11802A3B11D6854F8241C8D420BD315
:104980000ED144F8183C9B6844F81C3C166002B0F9
:10499000BDE8704000F059B903F108029B68E9E7EF
:1049A000002344F8183C1368EEE7F8B54B699B1AEE
:1049B0001646002BA8BFD2184A61437A4B7100F10A
:1049C0004407054638460C4600F03DF92846036882
:1049D0007BB359696269A1EB020CBCF1000F25DBC6
:1049E000914226D19B68A36013B104F108021A61B9
:1049F0002246036842F80C3F002199601A61AB6AB5
:104A0000046020616BB195F8242052B12A68A2425B
:104A100007D1E2682AB96169E86A891B21EAE17174
:104A200098473846BDE8F84000F00FB903F1080098
:104A3000CDE7A36013B104F108021A610023E3601B
:104A4000DDE7F8B5144605460F46A2F1240600F04E
:104A5000DFF854F8103C44F8047C0344024644F860
:104A6000103C31462846FFF7A0FF296914F8204C76
:104A70008C40E968761A05F13000344300F0F2F812
:104A80002046F8BD2DE9F74F04460F4600F0C0F868
:104A90004FF00008054607EB000984F8248004F174
:104AA0004406304600F0CFF8637A013363726368DE
:104AB0005B1B002B2368D8BF6560019301A91BB164
:104AC0005A69521B002A33DD236003B11C61304652
:104AD000C1F8008000F0B9F8019B01A863BB019DFB
:104AE0004FF0010A002D34D100F092F8002F8246D9
:104AF0005CDBA9EB0005002D5ADCA36A9BB13046B4
:104B000000F0A1F8A36A43B1226832B15169E06AAA
:104B1000A1EB0A0121EAE1719847012384F82430CE
:104B2000304600F092F80023237203B0BDE8F08F06
:104B300003F108019B68C2E79D681A460021916055
:104B40001146D268002AFAD1016003F108002B4611
:104B5000C4E72B6AD5F808B013B105F124009847D3
:104B6000AA69002A0BDB6B6913446B6100F050F8F3
:104B7000294602462046FFF718FF5D46B2E7E36884
:104B800073B1AB420CD8236AAB4209D32B792269AB
:104B90000133DBB213FA02F214BF2B7185F804A0C3
:104BA00005F124012046FFF7C6FEE6E74FF0FF358A
:104BB000304600F048F823683BB15969A1EB0A017F
:104BC00021EAE1718D4228BF0D46304600F03DF8E4
:104BD000294604F1300000F048F8237A7BB13046D2
:104BE00000F031F8237A3BB100233046237203B042
:104BF000BDE8F04F00F029B8304600F026F800F08C
:104C000007F805464DE740F8081C704701F03EBB29
:104C100007B501F034F970B1084B6846196800F027
:104C200045FDDDE900014FF47A72002309F08EF8AA
:104C300003B05DF804FB01F0DFFFF9E7F821022083
:104C400000207047704701F023B901F037B9000028
:104C500008B5024901F0AAFF002008BD3036020065
:104C600001F0ADBF012101F0A7BF08B5012341EA62
:104C7000E172194601F0BEFF431E5842584108BD7B
:104C800003680BB10846184770470000044B002228
:104C9000C3E900229A601A61024ADA60704700BFD5
:104CA000741E0220814C010038B504460D460021D7
:104CB00000F8011B10220AF0E3FC6582204638BD93
:104CC00008B542F602110248FFF7EEFF08BD00BF2B
:104CD000881E0220034B1A78034B53F8223003B18D
:104CE00018477047280400209C1E0220074B1B78A1
:104CF0005BB1074B0122C3F80823064B5A78FF2A01
:104D000000D1FEE7044A12885A707047B41F02208F
:104D100000F00040B01E0220B61F022070B50E4603
:104D20000446154605F090F9013609D020460021C9
:104D300005F0FEF929462046BDE8704005F0D6B9D9
:104D400070BD000008B5431C04D10F490F48202254
:104D500000F09EFF012359B11F2886BF0C4A00F0C6
:104D60001F004FF0A04203FA00F0C2F8080508BD8A
:104D70001F2886BF064A00F01F004FF0A04203FA2A
:104D800000F0C2F80C05F2E7373602009530020059
:104D900000030050F8B50F46044615461E4605F0C0
:104DA00053F901370ED094F900003146FFF7CAFFDE
:104DB0002046012105F0BCF929462046BDE8F8400F
:104DC00005F094B9F8BD0322FFF7A8BF13460022EF
:104DD000FFF7E0BF0022FFF7F9BF73B516460446A0
:104DE0001A460D46069B6EB90193FFF797FF0135F2
:104DF0000DD0019B94F90000194602B0BDE8704047
:104E0000FFF7A0BF02B0BDE87040FFF7C3BF02B01C
:104E100070BD00000048704774360200024B1B68EA
:104E20000BB10248184770472C040020743602006A
:104E30002DE9F843456895F83A600446002E49D1BB
:104E400003685B68984763681B6A834242D02C6A98
:104E5000AF682862041B3048EB68874204EA030409
:104E600031D095F83B20D5E90A98A4FB0001D2B3D4
:104E7000C2F1200620FA02F401FA06F6A2F120039C
:104E800021FA03F334431C4321FA02F619EB000024
:104E9000A2F1200C48EB0101C2F1200306FA02F84E
:104EA00004FA0CFC24FA03F348EA0C0804FA02F2B0
:104EB00048EA0308821A61EB0801BA4271F1000363
:104EC0000AD2C5E90A21D5E90C23121946EB0306DB
:104ED000C5E90C26BDE8F883013446F10006D21B73
:104EE00061F10001EDE733463A4608F07FFF12EB2F
:104EF000090248EB0303BA42044673F100000E4670
:104F000002D2C5E90A23DEE7013441F10006D21BD3
:104F100063F10003F5E700BF40420F00824206D96B
:104F20008A420BD9884294BF0020012070478842F2
:104F300006D98A428CBF00200120704701207047AB
:104F400000207047F7B5466896F83A300546002BC2
:104F500067D196F83930002B63D1FFF769FF6F688E
:104F60007A68002A5FD0D7E90C01D2E90032984272
:104F700071EB020405D32B685B6903B0BDE8F04018
:104F800018471B1A62EB0101D7E9060298428A41D1
:104F90003C6906D3BA68294882420FD19C4228BF97
:104FA0001C463A6AFB6822441A40336A934229D16C
:104FB0002349244840F21B1200F06AFE97F83B0098
:104FC000C8B1A0F1200CC0F12002814003FA0CFC12
:104FD00023FA02F203FA00F01B4B41EA0C011143E1
:104FE000C01841F10001154A002308F0FFFE844279
:104FF00028BF0446D5E7A2FB033002FB010112489B
:105000001818EEE72B68019210461B6998472B6829
:105010005B689847019A0146306AFFF77FFF0028D6
:10502000A9D103B0F0BD3369306AF26818442B6827
:105030001B69104003B0BDE8F040184740420F0024
:10504000A0360200C03602003F420F002DE9F04FAB
:10505000436893F8382085B00446002A62D193F85B
:105060003A30002B5ED103681B6898472368DB69E0
:105070009847066836B92D492D4800963346324682
:1050800001F06EF81F23012202FA03F18E425FFA4B
:1050900083FA02D0013BF7D19A46D0F80480A8F1F8
:1050A00004031C2B4FF0000705D922492248009722
:1050B0003B463A46E4E7701E204D4FF0070947F1A2
:1050C000FF3109FA03F932463B46C9FB050108F0F6
:1050D0008DFE656823680390C5E900775B688B46A1
:1050E00098470121039A286201FA08F8656808F1D7
:1050F000FF33C5E90339C5E9062B0023002220460A
:10510000C5E90A23C5E90C23AE6085F83BA02987D1
:1051100085F83A70FFF78CFE204605B0BDE8F04FE9
:10512000FFF710BF05B0BDE8F08F00BFE436020006
:105130000E010480FD3602000501048040420F008C
:1051400038B505460C46FFF781FF00F0A1FE6B68FD
:105150001C60BDE8384000F0B1BE70B5044600F0F8
:1051600097FE2368DB689847636893F83A201AB182
:10517000BDE8704000F0A2BE012283F839206368C8
:105180005B68A3B12046FFF753FE63685A68D3E912
:105190000C60D2E90051AE4270EB010107D3D16837
:1051A00059601B68002BEAD090689847E7E763686E
:1051B000002283F839202046FFF7C4FED8E7F7B570
:1051C000089F01900C4616461D4600F061FE0198AE
:1051D000FFF72EFE0198A7604368C4E9006559688F
:1051E000002229B9E16062B95C60FFF7ABFE0EE016
:1051F0000F68BE424F6875EB0707F3D30A46C968CC
:10520000EFE7D460D3E90C23B242AB41EDD203B057
:10521000BDE8F04000F052BE38B505460C4600F03F
:1052200037FE6A685368A34209D1DB685360284699
:10523000FFF788FEBDE8384000F040BE1346002B63
:10524000F8D0DA68A242F9D1E268DA60F2E713B581
:105250000446FFF7FBFE00F01BFE2046FFF7E8FDCB
:105260006368D3E90C01CDE9000100F027FEDDE918
:10527000000102B010BD08B5FFF7E9FF08BD00004E
:10528000024B00221A7005F02BBE00BFF81F02204F
:1052900008B505F093FD024B01221A7008BD00BF4E
:1052A000F81F0220004870473C370200024B1B6881
:1052B0000BB1024818477047300400203C37020009
:1052C00091F90C2091F9041005F056BA024B1B68B5
:1052D00003B11847704700BF4020022007B5019076
:1052E00000F0D6FD019803B05DF804FB07B501900E
:1052F00000F0E4FD019803B05DF804FB007B70470B
:1053000038B50D4B03600023C0E901310273044638
:105310000A480D46FCF7D4FE01F0B6FC55B1084B27
:105320001A6862601C600548FCF7CAFE01F0CAFCFE
:10533000204638BD6560F6E7783702004820022035
:1053400044200220144B10B5036004461348FCF7B8
:10535000B7FE01F099FCA3682BB1114962680B6894
:10536000A34212D10A600F4B0C481A68A24204BF34
:1053700000221A60FCF7A4FE01F0A4FC237B13B901
:10538000201F01F0DFFA204610BD19465B68A342DA
:10539000FBD14A60E7E700BF7837020048200220CF
:1053A000442002207020022010B50446FFF7CAFFF7
:1053B0002046102101F0B8FA204610BDF8B5064687
:1053C00017480D46FCF77CFE01F05EFC154B1C688F
:1053D000A4B1A76887B138460AF032FDA8420BD1C4
:1053E0002A46314638460AF01BF828B90C48FCF723
:1053F00067FE01F067FC11E06468E9E7072DF5D16D
:1054000009482A4631460AF00BF80028EED1044834
:10541000FCF756FE01F056FC044B1C682046F8BD14
:105420004820022044200220683702007020022019
:1054300000207047036870B51B69012200210446F3
:105440009847051E0DDB236802221B6900212046B8
:1054500098472368064629461B690022204698473C
:105460003546284670BD000070B50E460025C0E9DF
:1054700000550F49044630460AF050FD3044206084
:10548000294623681A782F2A07D10133236051B99E
:10549000084909482A2200F0FBFB002AF7D0013313
:1054A00001312360EDE7FFF789FF6060204670BDA2
:1054B000D0370200D2370200F93702000068704787
:1054C000406808B520B1FFF719FF431E5842584104
:1054D00008BD10B50446FFF7F3FF10B1606800B1D6
:1054E000043810BD406808B520B1FFF707FFB0FAD7
:1054F00080F0400908BD10B50446FFF7F3FF10B176
:10550000606800B1043810BD4068003818BF012041
:10551000704700207047F8B503681B6D0D460446C0
:105520008F1898472E46BE42236806D09B6C16F80B
:10553000011B204698470130F5D1236820465B6D5A
:105540009847701BF8BDF8B503681B6D0D460446FF
:105550008F1898472E46BE42236807D0DB6C204642
:105560009847431C02D006F8010BF4E72368204655
:105570005B6D9847701BF8BD0020704770470000B6
:105580000F4B13B50022044640F8043BFFF7B8FE6A
:105590000C4B236060336360002363610A4920463B
:1055A00001F02EFA0346606128B9009002460749CF
:1055B000074800F0D5FD00F089FF204602B010BD7D
:1055C00088370200803802000238020005380200E5
:1055D000190101800A4B03F10802683310B5044633
:1055E00002604360406908F0F7FD064B23602046E7
:1055F000503340F8043FFFF7A5FE204610BD00BF22
:10560000783802002038020008B5024902488E228C
:1056100000F03EFBE83802000F39020010B50446E6
:105620000846FFF714FEC4E90001204610BD000043
:1056300010B50446FDF718FC2046094B40F8203B06
:10564000A169FFF7EBFFD4E90823C4E90A2300228C
:105650000023C4E90C230023A363A387204610BDC5
:10566000403902004FF0FF30704738B590F83C5099
:1056700004460DB1FFF7C8FFFDF716FC94F83D3066
:1056800084F8395084F83A502BB184F83D50BDE885
:10569000384000F0AFBE38BD10B5044601F130000F
:1056A00000F02BFBC4E90001204610BD10B589694C
:1056B0000446FFF7B3FF204610BDD0E90C3201339A
:1056C00042F10002C0E90C32D0E90A3213F57A73D4
:1056D00042F10002C0E90A327047D0E90A2312F50C
:1056E0007A7243F10003FDF7D5BB37B50D4604468A
:1056F00089696846FFF792FFD5E90A320098019957
:10570000C01A61EB0201B0F57A7F71F1000306D295
:1057100000220023C4E90023204603B030BDB0F5C9
:10572000FA6F71F1000301D20122F2E700294FF470
:105730007A724FF00003D8BF002108F057FBC4E98C
:105740000001E9E791F83C30F7B505460C4613B97E
:1057500091F8397027B112491248E02200F098FA06
:105760006846FFF7C2FFDDE900364FF47A7084F82F
:105770003870A3FB007200FB0622D4E90A10C91995
:1057800042EB0002C4E90A12D4E90C125B1842EBA6
:1057900006022846C4E90C32C5E9003203B0F0BD68
:1057A000E8380200193902002DE9FF411F4690F840
:1057B0003C300446904623B122492348582200F049
:1057C00067FA90F839605EB9014602A8FFF7BAFFA0
:1057D000029B4345039BBB4105D3012384F83A3028
:1057E00004B0BDE8F081214602A8FFF755FF4FF451
:1057F0007A73A8FB032503FB0753D4E9081594F833
:105800003D0084F83A6052184FF0010143EB050364
:1058100084F8391060B9A069006890F8200038B9A0
:1058200084F83D10CDE9002300F0CEFDDDE9002332
:105830000021204684F83B1004B0BDE8F041FDF79C
:1058400029BB00BFE83802000F390200024B4FF0BD
:1058500080625A60704700BF00ED00E008B501218A
:10586000383000F032FA08B1FFF7F0FF08BD10B58C
:10587000012380F83C3090F8383004460BB1FFF734
:10588000E5FF2046FFF729FF10BD90F8393010B52D
:1058900004464BB1002380F8393090F83B3013B9FF
:1058A000012380F83A3010BD90F83C30002BFAD03C
:1058B00090F83830013380F83830FFF7C7FF2046C2
:1058C000FFF7FBFE2046FFF708FFECE7024B4FF027
:1058D00000725A60704700BF00ED00E010B504464A
:1058E000FDF7E2FA002384F83C30FFF7EFFF10BD2C
:1058F000102300F007B8202300F004B8302300F094
:1059000001B840239C46F0B404AE7546E80801D3C4
:10591000EFF309860E4F0FCE0FC70FBC0FC74046DF
:10592000494652465B460FC71DCE3100A60A00D33A
:1059300004316E0900D248311FC7EFF30980694670
:10594000EFF3148663C76046014900F079F800BFA1
:1059500074200220F0B52C4E2C4F85B00024354623
:10596000214656F8042B3846013400F075FA0D2C08
:10597000F6D1AB6C02936B6C01932B6C244C0093AF
:10598000D5E90E23696B234800F066FA21682248A6
:1059900000F062FAE16AA26AA36AA06A266BE76B6A
:1059A000000CCDE901670090C3F307231B48D2B276
:1059B00000F052FAA36A1E0603D5616B184800F086
:1059C0004BFAA36A180403D5A16B164800F044FAF9
:1059D000EB6C190712D5144800F03EFA2B6DDA076C
:1059E0000FD5124800F038FAEB6C5B074CBF10483B
:1059F000104805B0BDE8F04000F02EBA0E4800F0A7
:105A00002BFA0E48EEE700BF742002204439020052
:105A100000ED00E052390200A1390200AF39020066
:105A2000FE3902000C3A02001A3A0200293A02003A
:105A3000593A0200653A0200493A0200363A020039
:105A400007B504460D461A48012100F050F968BB1D
:105A5000184800F001FA302C19D0402C1CD0202C12
:105A60001FD11548154C00F0F7F9154800F0F4F96E
:105A7000FFF770FF134800F0EFF90D4B00221A708A
:105A80000023114900932A46204600F069FB0F4885
:105A90000F4C00F0E1F9E8E70E480F4C00F0DCF99C
:105AA000E3E70E480E4C00F0D7F9DEE70024E7E705
:105AB00084210220713A02009A3A02003E01FF80DE
:105AC000C73A0200D23A0200F13A0200A93A0200B3
:105AD0003F01FF80B23A02004001FF80BD3A020060
